:020000040800F2
:1000000000800020FD9B0008F9760008FB760008C0
:10001000FD760008FF760008017700080000000068
:10002000000000000000000000000000037700084E
:10003000057700080000000007770008097700082E
:100040004D9C00084D9C00084D9C00084D9C0008EC
:100050004D9C00084D9C0008117700084D9C00083D
:100060004D9C00084D9C00084D9C00081D77000821
:100070004D9C00084D9C00084D9C00084D9C0008BC
:100080004D9C00084D9C00082D77000800000000E2
:100090000000000000000000000000003D770008A4
:1000A0004D9C00084D9C00084D9C00084D9C00088C
:1000B0004D9C000800000000000000004D9C00085E
:1000C0004D9C00084D9C00084D9C00084D9C00086C
:1000D0004D9C00084D9C00084D9C00084D9C00085C
:1000E0004D9C00084D9C000800000000000000002E
:1000F0000000000000000000000000000000000000
:1001000000000000000000000000000000000000EF
:1001100000000000000000004D9C000800000000EE
:100120004D9C00084D9C00084D9C00084D9C00080B
:100130004D9C0008000000000000000000000000CE
:100140004D9C0008497700084D9C0008597700082D
:100150004D9C00084D9C00084D9C00084D9C0008DB
:100160004D9C00084D9C00080000000000000000AD
:10017000000000004D9C000800000000000000008E
:100180004D9C00084D9C00084D9C0008000000009C
:1001900010F8012B11F8013B012A28BF9A42F7D031
:1001A000D01A7047034613F8012B002AFBD1181A06
:1001B000013870470000000000000000000000004F
:1001C00001F0FF01102A2BDB10F0070F08D010F808
:1001D000013B013A8B422DD010F0070F42B3F6D10C
:1001E000F0B441EA012141EA014122F007047FF025
:1001F00000070023F0E80256083C85EA010586EA7C
:10020000010685FA47F5A3FA87F586FA47F6A5FAB7
:1002100087F68EB9EED1F0BC01F0FF0102F00702C3
:1002200032B110F8013B013A83EA010313B1F8D16E
:100230000020704701387047002D06BF354603384F
:10024000073815F0010F07D1013015F4807F02BF88
:10025000013015F4C03F0130F0BC0138704700BFD9
:1002600081F0004102E000BF83F0004330B54FEA67
:1002700041044FEA430594EA050F08BF90EA020FD4
:100280001FBF54EA000C55EA020C7FEA645C7FEA67
:10029000655C00F0E2804FEA5454D4EB5555B8BF8A
:1002A0006D420CDD2C4480EA020281EA030382EAFB
:1002B000000083EA010180EA020281EA0303362D8D
:1002C00088BF30BD11F0004F4FEA01314FF4801C60
:1002D0004CEA113102D0404261EB410113F0004F72
:1002E0004FEA03334CEA133302D0524263EB430329
:1002F00094EA050F00F0A780A4F10104D5F1200EC7
:100300000DDB02FA0EFC22FA05F2801841F1000121
:1003100003FA0EF2801843FA05F359410EE0A5F1F5
:1003200020050EF1200E012A03FA0EFC28BF4CF026
:10033000020C43FA05F3C01851EBE37101F00045DC
:1003400007D54FF0000EDCF1000C7EEB00006EEBE9
:100350000101B1F5801F1BD3B1F5001F0CD3490873
:100360005FEA30004FEA3C0C04F101044FEA4452CA
:1003700012F5800F80F09A80BCF1004F08BF5FEA51
:10038000500C50F1000041EB045141EA050130BD31
:100390005FEA4C0C404141EB0101013C28BFB1F543
:1003A000801FE9D291F0000F04BF01460020B1FA8E
:1003B00081F308BF2033A3F10B03B3F120020CDA61
:1003C0000C3208DD02F1140CC2F10C0201FA0CF03F
:1003D00021FA02F10CE002F11402D8BFC2F1200CA4
:1003E00001FA02F120FA0CFCDCBF41EA0C0190405A
:1003F000E41AA2BF01EB0451294330BD6FEA0404A3
:100400001F3C1CDA0C340EDC04F11404C4F120028D
:1004100020FA04F001FA02F340EA030021FA04F39F
:1004200045EA030130BDC4F10C04C4F1200220FAF6
:1004300002F001FA04F340EA0300294630BD21FA34
:1004400004F0294630BD94F0000F83F4801306BFFA
:1004500081F480110134013D4EE77FEA645C18BFEE
:100460007FEA655C29D094EA050F08BF90EA020F85
:1004700005D054EA000C04BF1946104630BD91EA7D
:10048000030F1EBF0021002030BD5FEA545C05D180
:100490004000494128BF41F0004130BD14F58004BF
:1004A0003CBF01F5801130BD01F0004545F0FE4133
:1004B00041F470014FF0000030BD7FEA645C1ABF68
:1004C000194610467FEA655C1CBF0B46024650EA9F
:1004D000013406BF52EA033591EA030F41F40021CB
:1004E00030BD00BF90F0000F04BF0021704730B551
:1004F0004FF4806404F132044FF000054FF0000126
:1005000050E700BF90F0000F04BF0021704730B5E6
:100510004FF4806404F1320410F0004548BF4042BB
:100520004FF000013EE700BF42004FEAE2014FEA10
:1005300031014FEA02701FBF12F07F4393F07F4FEB
:1005400081F06051704732F07F4208BF704793F0EE
:100550007F4F04BF41F40021704730B54FF4607401
:1005600001F0004521F000411CE700BF50EA010204
:1005700008BF704730B54FF000050AE050EA0102AD
:1005800008BF704730B511F0004502D5404261EB1D
:1005900041014FF4806404F132045FEA915C3FF45E
:1005A000D8AE4FF003025FEADC0C18BF03325FEAFB
:1005B000DC0C18BF033202EBDC02C2F1200300FAAC
:1005C00003FC20FA02F001FA03FE40EA0E0021FAD1
:1005D00002F11444BDE600BF70B54FF0FF0C4CF4BF
:1005E000E06C1CEA11541DBF1CEA135594EA0C0F71
:1005F00095EA0C0F00F0DEF82C4481EA030621EAAC
:100600004C5123EA4C5350EA013518BF52EA0335E6
:1006100041F4801143F4801338D0A0FB02CE4FF098
:100620000005E1FB02E506F00042E0FB03E54FF0C8
:100630000006E1FB03569CF0000F18BF4EF0010EC0
:10064000A4F1FF04B6F5007F64F5407404D25FEABC
:100650004E0E6D4146EB060642EAC62141EA55516F
:100660004FEAC52040EA5E504FEACE2EB4F1FD0CB1
:1006700088BFBCF5E06F1ED8BEF1004F08BF5FEA2F
:10068000500E50F1000041EB045170BD06F00046E1
:1006900046EA010140EA020081EA0301B4EB5C048E
:1006A000C2BFD4EB0C0541EA045170BD41F4801186
:1006B0004FF0000E013C00F3AB8014F1360FDEBFAB
:1006C000002001F0004170BDC4F10004203C35DA87
:1006D0000C341BDC04F11404C4F1200500FA05F30A
:1006E00020FA04F001FA05F240EA020001F00042AB
:1006F00021F0004110EBD37021FA04F642EB060121
:100700005EEA430E08BF20EAD37070BDC4F10C044A
:10071000C4F1200500FA04F320FA05F001FA04F20E
:1007200040EA020001F0004110EBD37041F10001FA
:100730005EEA430E08BF20EAD37070BDC4F1200505
:1007400000FA05F24EEA020E20FA04F301FA05F26D
:1007500043EA020321FA04F001F0004121FA04F215
:1007600020EA020000EBD3705EEA430E08BF20EAE5
:10077000D37070BD94F0000F0FD101F0004640001F
:1007800041EB010111F4801F08BF013CF7D041EAA1
:10079000060195F0000F18BF704703F000465200A5
:1007A00043EB030313F4801F08BF013DF7D043EA76
:1007B0000603704794EA0C0F0CEA135518BF95EA2C
:1007C0000C0F0CD050EA410618BF52EA4306D1D1B3
:1007D00081EA030101F000414FF0000070BD50EAD2
:1007E000410606BF1046194652EA430619D094EA5C
:1007F0000C0F02D150EA013613D195EA0C0F05D146
:1008000052EA03361CBF104619460AD181EA030199
:1008100001F0004141F0FE4141F470014FF0000051
:1008200070BD41F0FE4141F4780170BD70B54FF0EC
:10083000FF0C4CF4E06C1CEA11541DBF1CEA13556C
:1008400094EA0C0F95EA0C0F00F0A7F8A4EB05044E
:1008500081EA030E52EA03354FEA013100F0888045
:100860004FEA03334FF0805545EA131343EA12630E
:100870004FEA022245EA111545EA10654FEA0026C3
:100880000EF000419D4208BF964244F1FD0404F57C
:10089000407402D25B084FEA3202B61A65EB0305D8
:1008A0005B084FEA32024FF480104FF4002CB6EB95
:1008B000020E75EB030E22BFB61A754640EA0C0015
:1008C0005B084FEA3202B6EB020E75EB030E22BF55
:1008D000B61A754640EA5C005B084FEA3202B6EB96
:1008E000020E75EB030E22BFB61A754640EA9C0055
:1008F0005B084FEA3202B6EB020E75EB030E22BF25
:10090000B61A754640EADC0055EA060E18D04FEAE2
:10091000051545EA16754FEA06164FEAC30343EA82
:1009200052734FEAC2025FEA1C1CC0D111F4801F4F
:100930000BD141EA00014FF000004FF0004CB6E748
:1009400011F4801F04BF01430020B4F1FD0C88BFE7
:10095000BCF5E06F3FF6AFAEB5EB030C04BFB6EBF2
:10096000020C5FEA500C50F1000041EB045170BDE5
:100970000EF0004E4EEA113114EB5C04C2BFD4EB12
:100980000C0541EA045170BD41F480114FF0000E96
:10099000013C90E645EA060E8DE60CEA135594EA12
:1009A0000C0F08BF95EA0C0F3FF43BAF94EA0C0F15
:1009B0000AD150EA01347FF434AF95EA0C0F7FF48A
:1009C00025AF104619462CE795EA0C0F06D152EADE
:1009D00003353FF4FDAE1046194622E750EA4106C2
:1009E00018BF52EA43067FF4C5AE50EA41047FF4D3
:1009F0000DAF52EA43057FF4EBAE12E74FEA410236
:100A0000B2F1E04324BFB3F5001CDCF1FE5C0DD96C
:100A100001F0004C4FEAC0024CEA5070B2F1004FB6
:100A200040EB830008BF20F00100704711F0804FB9
:100A300021D113F13872BCBF01F00040704741F47E
:100A400080114FEA5252C2F11802C2F1200C10FA82
:100A50000CF320FA02F018BF40F001004FEAC12366
:100A60004FEAD32303FA0CFC40EA0C0023FA02F30A
:100A70004FEA4303CCE77FEA625307D150EA0133E0
:100A80001EBF4FF0FE4040F44000704701F00040B0
:100A900040F0FE4040F40000704700BF53B94AB92F
:100AA000002908BF00281CBF4FF0FF314FF0FF3076
:100AB00000F00CB8ADF1080C6DE904CE0BF02EF887
:100AC000DDF804E0DDE9022304B07047704700BFA1
:100AD0000348044B834202D0034B03B118477047CD
:100AE0007802002078020020000000000548064B34
:100AF0001B1AD90F01EBA301491002D0034B03B11C
:100B0000184770477802002078020020000000009B
:100B100010B5064C237843B9FFF7DAFF044B13B145
:100B20000448AFF300800123237010BD7802002039
:100B30000000000014BE000808B5054B1BB10549B4
:100B40000548AFF30080BDE80840FFF7CFBF00BF06
:100B5000000000007C02002014BE000808B501223D
:100B600008214FF0904003F032FB142002F08CF982
:100B7000002208214FF0904003F029FB022002F0F0
:100B800083F9012208214FF0904003F020FB14204C
:100B900002F07AF908BD10B50446002240214FF05A
:100BA000904003F014FB002210214FF0904003F01E
:100BB0000EFB204600F04CF9012210214FF090402E
:100BC00003F005FB10BD10B50446012240214FF093
:100BD000904003F0FCFA002210214FF0904003F007
:100BE000F6FA204600F034F9012210214FF090402F
:100BF00003F0EDFA10BDF8B507460D4616461C4643
:100C00004420FFF7C8FFC7F3C700FFF7DCFFC6F3B8
:100C1000C700FFF7D8FF4520FFF7BDFFE8B2FFF799
:100C2000D2FF280AFFF7CFFFE0B2FFF7CCFF200A80
:100C3000FFF7C9FFF8BD38B505460C464E20FFF753
:100C4000AAFFE8B2FFF7BFFF4F20FFF7A4FFE0B213
:100C5000FFF7B9FF200AFFF7B6FF38BD08B520211E
:100C60004FF0904003F0ACFA18B10A2002F00CF9F2
:100C7000F5E70A2002F008F908BD38B5054632202C
:100C8000FFF789FF002404E0285DFFF79CFF013493
:100C9000E4B2982CF8D9FFF7E1FF38BD10B504464F
:100CA000FFF7EBFF3F20FFF776FF94F89900FFF77F
:100CB0008AFF0320FFF76FFF94F89A00FFF783FF86
:100CC0000420FFF768FF94F89B00FFF77CFF94F87F
:100CD0009C00FFF778FF94F89D00FFF774FF2C202D
:100CE000FFF759FF94F89E00FFF76DFF10BD08B5A0
:100CF0002220FFF750FFC720FFF765FF2020FFF7F6
:100D00004AFFFFF7ABFF08BD08B5002202212448C7
:100D100003F05DFA642002F0B7F8FFF71FFF6420CC
:100D200002F0B2F8FFF79AFF1220FFF734FFFFF747
:100D300095FF0120FFF72FFFF920FFF744FF002068
:100D4000FFF741FF0020FFF73EFF1120FFF723FFD1
:100D50000320FFF738FFF923792200210846FFF727
:100D60004AFF00210846FFF766FF3C20FFF713FF0C
:100D70000520FFF728FF2120FFF70DFF0020FFF7D8
:100D800022FF8020FFF71FFF1820FFF704FF8020BD
:100D9000FFF719FFFFF762FF0248FFF77FFF08BD6B
:100DA000000400480000002070B505462420FFF72D
:100DB000F2FE002601E00136B6B2F92E0AD8002470
:100DC0000F2CF8D804EB0613E85CFFF7FCFE0134A7
:100DD000A4B2F5E72620FFF7DEFE00260AE004EBCA
:100DE0000613E85CFFF7EFFE0134A4B20F2CF6D92E
:100DF0000136B6B2F92E01D80024F7E7FFF777FFE6
:100E000070BD08B51020FFF7C6FE0120FFF7DBFE1E
:100E1000642002F039F808BD08B5002240214FF0E7
:100E2000904003F0D4F9002210214FF0904003F0DD
:100E3000CEF901220221054803F0C9F90022082158
:100E40004FF0904003F0C3F908BD00BF0004004814
:100E500000B583B08DF807004FF47A7301220DF1CD
:100E60000701034805F08EFF03B05DF804FB00BFE7
:100E70002413002030B4124C00252560206021810D
:100E80006281BDF80800A0810220E08211F0070F06
:100E90000DD1CC080A4844828282C3810024048296
:100EA00043B1B42B06D0064B9A80D98005E0CC081C
:100EB0000134EFE7024B9980DA8030BC704700BF05
:100EC00094020020014B1860704700BF940200207C
:100ED000034630B15A2804D0B42802D0B0F5877F39
:100EE00001D1014AD381704794020020584B9B885E
:100EF0008342C0F0AB80564BDB888B42C0F0A680AB
:100F000010B4534BDB89B42B16D00AD8FBB15A2B43
:100F10003BD14F4B1B895B1A9BB2013B014698B2F8
:100F200015E0B3F5877F30D1494B5B891B1A9BB223
:100F3000013B084699B20AE0454C23891B1A9BB233
:100F4000013B98B263895B1A9BB2013B99B2404B5B
:100F50001B8A032B19D8DFE803F008021B223C4B45
:100F60001B891B1A9BB2013B98B2394B1B898342E8
:100F70000BD3374B5B898B4207D3354BDB8A022B74
:100F800019D0042B30D0072B48D05DF8044B7047A4
:100F90002F4B5B895B1A9BB2013B99B2E5E72C4C66
:100FA00023891B1A9BB2013B98B263895B1A9BB2DF
:100FB000013B99B2D9E7C0F3CF03254CB4F812C076
:100FC0000CFB01332468E15C3AB900F007006FF0D4
:100FD000800202411140E154D7E700F0070080226F
:100FE00002411143E154D0E7C0F38F04184BB3F82A
:100FF00012C00CFB014102F003021C6814F801C08E
:1010000000F0030040006FF0C003034103EA0C034B
:101010005BB29201024113436354B6E7C0F34F043D
:101020000B4BB3F812C00CFB01411C6814F801C053
:1010300000F0010080006FF0F003034103EA0C03AD
:101040005BB212010241134363549EE7704700BF35
:10105000940200202F4BDB8A022B1AD010B5042BF0
:101060003AD0072B53D010BD02FB0C322949096836
:10107000885401339BB2274A528A9A42F4D80CF121
:10108000010C1FFA8CFC234B9B8A634504D9002377
:10109000F1E74FF0000CF6E7704703FB0E1C42B27D
:1010A000130143EA82135BB243EA82035BB2194C39
:1010B00024681A4304F80C20013189B2154B5B8A6D
:1010C0008B42EAD80EF1010E1FFA8EFE114B9B8A5D
:1010D0007345C8D90021F1E74FF0000EF6E70CF197
:1010E000010C1FFA8CFC0B4B9B8A6345BBD9002279
:1010F000084B5B8A9342F2D903FB0C2143B2054CA7
:10110000246843EA03136354013292B2F0E74FF0CC
:10111000000CE8E7940200202DE9F84F1D462D4B06
:101120009B88834253D306460F469046294BDB8863
:101130008B424CD39DF82830012B29D04FF0000969
:1011400040E0013424B2A2464FEA450909F1FF39D3
:101150004C453CDA00234B45F3DA06EB0A02521BFE
:10116000002AEEDBFA18521B002AEADB301980B2A3
:101170001FFA83FB0BEB070189B2491B401B424658
:1011800089B280B2FFF7B2FE0BF101031BB2E2E7B6
:101190000024D8E706EB090080B21FFA8CF4E119AD
:1011A00089B201390138424689B280B2FFF79EFE0A
:1011B00004F1010C0FFA8CFCAC45EBDB09F10109E1
:1011C0000FFA89F9A94502DA4FF0000CF4E7BDE8FF
:1011D000F88F00BF940200202DE9F04F8BB0054638
:1011E0000E4606921C460593BDF8501003919DF8DB
:1011F00054B09DF858A0374B9B88834266D3104665
:10120000344AD288B24261D383425FD3A2425DD3D3
:10121000A0EB0509B9F1000FB8BFC9F10009A31B84
:1012200083EAE371A1EBE37107914B42049385429A
:101230000BD201230893059B9E420AD201230993F6
:10124000079BA9EB0308002426E04FF0FF33089327
:10125000F1E74FF0FF330993F2E7012300935B4678
:10126000039A31462846FFF757FF049BB3EB480F1C
:1012700008DC069B9D4229D0079BA8EB0308089B2E
:101280001D44ADB2B9EB480F06DB059B9E421DD055
:10129000C844099B1E44B6B20134E4B2BAF1010F4E
:1012A000DBD10D4BA3FB042323F0010707EB53070E
:1012B000E71B17F0FF07D0D1012300935B46FF2205
:1012C00031462846FFF728FF3C46CEE70BB0BDE885
:1012D000F08F00BF94020020ABAAAAAA2DE9F84F14
:1012E0001F46BDF828B0BDF82C80304B9B88834248
:1012F00059D381468A462D4BDB888B4253D3203A03
:10130000FB8802FB03F3B98811F0070218BF012222
:1013100002EBD1023D6802FB035500263EE02A782D
:1013200004F0070180230B411A4212D006EB0A0198
:1013300004EB09005A4689B280B2FFF7D7FD08E0F6
:1013400006EB0A0104EB0900424689B280B2FFF7BE
:10135000CDFD04F00703072B18D00134A4B2BB88DD
:10136000A34215D9B8F1FF0FD9D02A7804F00701AC
:1013700080230B411A42E3D006EB0A0104EB09007B
:101380005A4689B280B2FFF7B1FDE2E70135E4E7E2
:1013900013F0070F00D001350136B6B2FB88B34217
:1013A00001D90024DBE7BDE8F88F00BF94020020DC
:1013B0002DE9F04F83B01C46BDF830A0BDF834B025
:1013C000194B9B8883422BD3804689461646164B81
:1013D000DB888B4224D30F4605460CE0CDF804A0F1
:1013E000CDF800B0234639462846FFF777FF01368F
:1013F000A3882B449DB2327892B1A3882B440A492A
:1014000089888B4203DDE3883B449FB24546E388ED
:101410003B440549C9888B42E0DD4F464546DDE740
:1014200003B0BDE8F08F00BF940200202DE9F04F1B
:101430008BB006460F4615469846BDF850A0BDF83D
:1014400054905E4A07AC07CA03C422809C88039567
:10145000EA785B4DA5FB02120AA901EBD20212F851
:101460000C2CCDF804A0CDF8009039463046FFF79B
:1014700035FF04EB060B1FFA8BFB039AD378A5FB11
:101480000312D20802EB8202A3EB42030AA951FA2B
:1014900083F313F80C2CCDF804A0CDF8009043464C
:1014A00039465846FFF71AFFA30805930BEB940043
:1014B0004FEA540B1BFA80F0CDF804A0CDF8009051
:1014C00043462E22394680B2FFF708FF06EB440060
:1014D000039A9378A5FB03230DF1280C0CEBD3039F
:1014E00013F80C2C1BFA80F0CDF804A0CDF8009076
:1014F0004346394680B2FFF7F1FE04EB4403049300
:10150000F018039A9378A5FB0312D20802EB82022B
:10151000A3EB42030DF1280C5CFA83F313F80C2CB7
:101520001BFA80F0CDF804A0CDF800904346394670
:1015300080B2FFF7D3FE06EB84001BFA80F080B286
:101540000599401ACDF804A0CDF8009043462E220C
:10155000394680B2FFF7C2FE039A1388A5FB032326
:101560000AA901EBD30313F80C2C04EB8404301903
:10157000CDF804A0CDF800904346394680B2FFF77D
:10158000ADFE039A1388A5FB0325ED0805EB850541
:10159000A3EB45030AAA12FA83F313F80C2C049B5D
:1015A00006EB4300CDF804A0CDF800904346394641
:1015B00080B2FFF793FE0BB0BDE8F08F3CBE000891
:1015C000CDCCCCCC2DE9F0478246894617461E4645
:1015D000DDF82080002512E0002205EB090104EB74
:1015E0000A00FFF783FC0134E4B2BC4205D206FBDB
:1015F00004835B5D002BF6D1EEE70135EDB2B54219
:1016000001D20024F1E7BDE8F087000008B5084BDF
:1016100001221A700021074B1980074B1980074BD4
:10162000074A1A604FF47F62064808F0BFFB08BD06
:101630000400001008000010060000100000001058
:10164000FF55FFAA1000001038B504460D46134B95
:101650001A68134B9A421DD1124B1D60124A13880F
:10166000124921F8134001339BB2138010490A88B4
:1016700001320A80B3F57F6F04D300230D4A137043
:10168000094A13800B4B1B781BB9094B40F6EF72CC
:101690001A8038BDFFF7BAFFDEE700BF0000001078
:1016A000FF55FFAA0C0000100800001010000010E9
:1016B00006000010040000100F4B1A680F4B9A42EE
:1016C00017D10F4B1B785BB90E4B1B881844B0F534
:1016D0007F6F09DDA0F6F1700B4B33F910007047F6
:1016E000094B33F9100070470138074B33F91000EC
:1016F00070470648704700BF00000010FF55FFAA62
:101700000400001008000010100000100080FFFF0F
:10171000014B1888704700BF06000010014B186885
:10172000704700BF0C000010F8B5044681880068BF
:1017300002F046FDB0FA80F56D09A779AF420CBF03
:101740000126002601D0237C3BB1AF4217D0237C79
:101750000BB9AF4225D03046F8BD01F08FFBA3682E
:10176000C01A6428F1D901232374637C0BB90123C7
:10177000E3740023637401F081FBA060E5E7237C40
:10178000002BE4D001F07AFBA368C01A6428DED9EC
:101790000023237401F072FBA06001F06FFBE06096
:1017A000D5E701F06BFBE368C01AC728D3D9637C87
:1017B000002BD0D10123637401F060FBE060CAE725
:1017C0000346C07C00B970470022DA74FBE700B51D
:1017D000864600200B460139C9B2A3B11EF801CBE1
:1017E000082303E04FEA5C0C013BDBB2002BF1D095
:1017F00080EA0C0212F0010F4FEA5000F2D080F0A4
:101800008C00C0B2EEE75DF804FBF0B583B0019147
:1018100043781BB90127384603B0F0BD054616468C
:101820009DF80410406801F07DF99DF80570B7B986
:101830003C461CE0FF21686801F074F93055013422
:10184000E4B2A742F6D8791EC9B23046FFF7BFFF0F
:101850003E4416F8013C83420ED10027DBE700240A
:10186000EFE7315D686801F05DF90134E4B29DF89D
:101870000630A342F5D8CEE70127CCE710B50446E1
:101880000121406801F030F903E00121606801F0B6
:101890002BF9FF28F9D110BD70B582B006460C4671
:1018A0000DF107024421FFF7B0FF0546012C04D0DB
:1018B000022C06D0284602B070BD3046FFF7DEFF8E
:1018C000F6E7337C5F2B0BD005D81F2B0DD03F2BB9
:1018D0000DD1BC2006E07F2B0BD140F2EE2001E0C1
:1018E00040F2771001F0D0FAE4E75E20FAE700203A
:1018F000F8E70020F6E7000010B584B0044601AA1E
:1019000000216FF0410363F30701092363F30F2103
:10191000FFF77BFFD0BB9DF80630E3739DF80730DF
:10192000A3739DF8081021749DF805309DF80420DC
:1019300042EA0322134612F4784201D05B429BB282
:101940005F2925D00AD81F290FD03F2927D123F09E
:1019500003035B055B0D07EE903A0AE07F291ED179
:10196000C3F30A0307EE903A03E003F4FF6307EEC4
:10197000903AF8EE677A9FED0C7A67EE877AC4EDBD
:10198000057A1AB1F1EE677AC4ED057A04B010BD9C
:1019900023F001035B055B0D07EE903AE9E7C3F323
:1019A0000A0307EE903AE4E70000803D38B50546AB
:1019B0000C460A4600214E2363F30701032363F319
:1019C0001741FFF722FF28B92378EB736378AB73D5
:1019D000A3782B7438BD03780BB90120704710B57C
:1019E0000446406801F0BDF810B90123637010BDD2
:1019F000002363700120FAE710B582B004466A46FE
:101A00000021332363F30701082363F30F21FFF75A
:101A1000FCFE60B9034608E05A1C03F10901694461
:101A200011F8081C23441972D3B2052BF4D902B063
:101A300010BD00B583B00DF10702CC21FFF7E5FE24
:101A400003B05DF804FB0023437041600123037081
:101A50007047000000B583B00A4B9A6C42F0010257
:101A60009A649B6C03F001030193019B00221146D1
:101A70000B2002F0E7F80B2002F0F4F803B05DF859
:101A800004FB00BF001002402DE9F0478AB005AD0D
:101A9000002405940694079408940994504BDA6C3A
:101AA00042F00402DA64DA6C02F004020192019A54
:101AB000DA6C42F00102DA64DA6C02F0010202929E
:101AC000029ADA6C42F00202DA64DA6C02F0020284
:101AD0000392039ADA6C42F08002DA64DB6C03F062
:101AE00080030493049B224658214FF0904002F05B
:101AF0006EFB3C4F22460221384602F068FB01266D
:101B000005964FF4881ACDF818A0079429464FF08F
:101B1000904002F0F7F94FF00809CDF814900696BE
:101B20000796089429464FF0904002F0EBF95023B5
:101B3000059306960794089429464FF0904002F0CA
:101B4000E1F94FF4487305930694079429464FF042
:101B5000904002F0D7F9D12305934FF00308CDF858
:101B6000188007942946384602F0CCF902230593E1
:101B70000696079408942946384602F0C3F94FF4B4
:101B800004430593CDF81880079429464FF0904000
:101B900002F0B8F920230593CDF818A00794294640
:101BA000384602F0AFF9CDF81490CDF818800794BC
:101BB00029460D4802F0A6F922462146062002F0E9
:101BC00041F8062002F04EF822462146172002F086
:101BD00039F8172002F046F80AB0BDE8F08700BFD8
:101BE0000010024000040048001C004810B491425C
:101BF0000CD0401A019CA4EB030C0CFB00F0521A11
:101C000090FBF2F018445DF8044B7047019A1344BE
:101C100003EBD3735810F6E710B586B0FFF7F1F871
:101C2000FFF7FAF8104A136E23F4805313660F4837
:101C300005F092F801A9002301934B608B60CB6003
:101C40000B61FA230193032302934FF0904002F0BB
:101C500059F90124064B1C7001F02AF9204603F0C3
:101C6000DFFE06B010BD00BF0010024024130020AC
:101C7000D302002008B54FF48071024802F0B8FC8E
:101C800008BD00BFB413002010B582B0114C12493A
:101C90002046FFF7D8FE2046FFF79DFE2046FFF7BF
:101CA000ABFE2046FFF728FEE37B8DF80430A37BD4
:101CB0008DF805307F238DF806302046FFF78BFE28
:101CC0002046FFF7B6FE01A92046FFF76FFE02B0DF
:101CD00010BD00BF7C1200209C12002010B50B4CE0
:101CE0002046FFF778FE2046FFF7A3FE012120469D
:101CF000FFF7D2FD2046FFF76EFE2046FFF799FE64
:101D00002046FFF7F9FD94ED050A10BD7C12002076
:101D10002DE9F0419CB017AF002417941894199442
:101D20001A941B944FF0904317934FF00108ADF8AD
:101D3000608012AE12941394149415941694129316
:101D40004FF48072ADF84C200DAD0D940E940F94AD
:101D5000109411940D934FF40073ADF83830234B69
:101D60000B938DF83040224B93E8030009908DF8D7
:101D70002810204B07938DF8204001F07FF838465B
:101D8000FFF7D2FC2846FFF7CFFC3046FFF7CCFC2C
:101D90003846FFF715FD3046FFF712FD2846FFF7DE
:101DA0000FFD02AD029403940494059406940194EB
:101DB0000C238DF8083019238DF8073003238DF894
:101DC000053018238DF806308DF804800A4E22461F
:101DD00001A9304604F08DFD22462946304604F024
:101DE00022FDFFF747FF1CB0BDE8F0811903180C76
:101DF00048BE0008000101008813002010B40C4BFD
:101E0000A3FB00431B0C0B4C04FB13030A48A0FB71
:101E10000340C00A08704FF4616101FB10330749A9
:101E2000A1FB03135B0913705DF8044B704700BFFF
:101E300007452EC280510100C5B3A29189888888C8
:101E40002DE9F04F9BB0B54DFF2400945A23FA22A0
:101E50007A212846FFF70EF82846FFF733F8204688
:101E6000FFF7F8F8002000F021FF0546002000F001
:101E70001DFF0746002406E0204600F017FF054638
:101E80000AE00134E4B200F0A9FF84420ED22046F9
:101E900000F00CFFA842EFDD204600F007FFB8423B
:101EA000EFDB204600F002FF0746EAE7BD421AD00A
:101EB000002D1DDB3E46A846A7EB050CBCF5C87FF0
:101EC00040DABCF1FA0F59DABCF1630F30DCBCF137
:101ED000320F63DABCF1180F20DCBCF1000F60DBBD
:101EE0004FF005094CE00A3D2DB20A373FB2DFE75B
:101EF000002FDFDD162300936E233A46294600208B
:101F0000FFF774FE81B20023029301220192009335
:101F10000B46FA220A20FFF75FF9CBE7ACF1190371
:101F2000182B02D84FF00A092AE04FF4FA6927E08B
:101F3000ACF16403952B02D84FF0320920E04FF446
:101F4000FA691DE0BCF5FA6F0DDABCF5487F2BDAB3
:101F5000ACF5C873B3F5C87F02D24FF0C8090FE0E3
:101F60004FF4FA690CE0ACF5FA63B3F5FA6F02D8F6
:101F70004FF47A7904E04FF4FA6901E04FF0640914
:101F8000002D14DB09F1FF344444CA4694FBF9F4F4
:101F900014FB09F424B2CDF810C038E04FF0140956
:101FA000EEE74FF4FA69EBE74FF4FA79E8E7C9F1A5
:101FB0000104E9E74FF0000B32E0594B83FB0423A7
:101FC000E217C2EB631212B2564908A807F0CAFE24
:101FD0005FFA80FB0020FEF77BFF5823009302236B
:101FE000324641462846FFF701FEA0EB4B0080B287
:101FF000083000210191FF2300934B4B08AA80B2C7
:10200000FFF7D6F95A20FEF763FF4C4424B2254669
:1020100006EB0A039C4276DA002CCBD04FF0010B82
:10202000A74209DA162300936E233246414628461A
:10203000FFF7DCFD152866DD162300936E2332467C
:1020400041462846FFF7D2FD81B2CDF808B0012302
:102050000193002300930B46FA220A20FFF7BCF8F5
:102060002F4A82FB0432E317C3EB6213642202FBA4
:1020700013431BB2002BA0D02C4981FB0421E21793
:10208000C2EBA10202EB8202A4EB420212B212B92D
:10209000049A632A1DDD254981FB0421E217C2EB66
:1020A000610202EB8202A21A12B2002AADD1049A96
:1020B000092AAADC1A4981FB0421E217C2EB61124A
:1020C000DBB2D2B21A4908A807F04CFE5FFA80FBD7
:1020D00080E76B1D154A82FB0312DB17C3EBA203DB
:1020E0009BB2144AA2FB0312D10801EB8101A3EBBE
:1020F0004103DBB2C2F3C7020D4908A807F032FE64
:102100005FFA80FB66E705210B4804F0A0FC8346DC
:102110000027CDF814A0B24639E000BFDC02002051
:102120001F85EB5150BE0008B00000206766666650
:1021300054BE0008CDCCCCCC88130020384600F02B
:10214000B5FD162600966E2352464146FFF74EFD1A
:1021500004907C1CE7B2384600F0A8FD00966E2380
:1021600052464146FFF742FD04EB840404F10A02A3
:1021700005EB85050A3500210291012301930091A9
:1021800083B292B2BDF81010A8B2FFF725F83D4611
:1021900000F024FE8742D1D3DDF814A000F01EFE2B
:1021A00044B201E0083C64B2002C34DD00F016FEBD
:1021B0008442F7D004EB8405ADB20A35ADB20123F9
:1021C000029301930026009670232A461421284684
:1021D000FFF702F800F002FE001B013800EB800060
:1021E0000DF11F020DF11E01ABEB4000FFF706FEE3
:1021F00008AF9DF81F309DF81E206D49384607F046
:10220000B1FD0196FF2300936A4B3A46722128469E
:10221000FFF7CEF8C6E7A9F10A039BB2592B40F2AB
:102220009F80B9F1090F00F2A680634AA2FB0992D0
:10223000AAEB52135209614917A807F093FD002039
:102240000190FF2300935E4B17AA0146FFF7B0F8F9
:102250005C4B1888FEF756F902460B4652A1D1E9AD
:102260000001FEF7E3FAFEF7C9FB07EE900A564BB2
:102270001860B0EE027AF4EEC77AF1EE10FA00F1CF
:102280008380002402940125019500947023FA2292
:1022900019460A20FEF7A0FF0294019500947023CE
:1022A0000A2214211046FEF797FF12A912944C60DF
:1022B0008C60CC600C611194444D2246284604F099
:1022C00073FB224611A9284604F094FB9DF8463082
:1022D0008DF83F309DF845308DF83E309DF8473001
:1022E000ADF83C303A4E0194FF27009733460FAAD1
:1022F0002146AF20FFF79AF800F070FD0138C0B218
:1023000000F0D4FC054600F069FD0138C0B200F0D1
:10231000CDFC294B83FB0021C217C2EB61124FF0A9
:10232000640808FB120083FB0523EA17C2EB631263
:102330000CAD03B212B22749284607F013FD0194F1
:10234000009733462A4621465520FFF731F82248A8
:10235000FEF72AFD404600F097FD1BB0BDE8F08F68
:10236000154AA2FB0992AAEB521352091B4917A85E
:1023700007F0F8FC63E7104BA3FB09325209184938
:1023800017A807F0EFFC5AE70020FEF7A1FD154B58
:1023900000931A2310225F216B20FFF713F95A20B4
:1023A000FEF796FD6DE700BF9999999919E0B24043
:1023B0005CBE0008B00000201F85EB5174BE000811
:1023C000A000002094120020981200208813002002
:1023D000A800002090BE0008DC02002068BE0008B3
:1023E00084BE000838D2000810B50378732B0CD0D7
:1023F000742B05D0672B07D10F4B01221A7003E015
:1024000011210E4806F0D8FB10BD84460C4B01226A
:102410001A700C4C0068DCF80410DCF80820DCF8BA
:102420000C300FC4DCF81000DCF8141003C49CF866
:1024300018302370E8E700BFD702002098BE0008DC
:10244000D2020020B402002070B58CB007AD002489
:102450000794089409940A940B940694284BB3F8B3
:102460000120ADF808209A88ADF80420B3F80720C1
:10247000ADF800205A89ADF80C20B3F80D20ADF866
:1024800010201B8AADF8143002A807F0E0FB8DF88D
:102490001C0001A807F0DBFB8DF81D00684607F063
:1024A000D6FB8DF81E0003A807F0D1FB8DF81B00AA
:1024B00004A807F0CCFB8DF8190005A807F0C7FBAE
:1024C0008DF81A0001238DF818300A940B940D4EE4
:1024D00022462946304604F0A6F9224606A930468F
:1024E00004F007FA03F03CFA074A0621304604F0EC
:1024F0009FFA0521054806F05FFB0CB070BD00BFD8
:10250000B402002088130020FF55FFAAACBE0008CB
:1025100030B587B0FFF7FCF8054601AC02461B4911
:10252000204607F01FFCC1B2204606F045FB17E02D
:1025300001AC00230193029303930493059328466F
:10254000FFF7BAF802461149204607F00BFCC1B26A
:10255000204606F031FB012000F096FC013DADB2B3
:10256000002DE5D101AC0023019302930393049362
:102570000593FFF7D3F802460549204607F0F2FB22
:10258000C1B2204606F018FB07B030BDB4BE00084B
:10259000BCBE0008202801D000BF7047014B0122BB
:1025A0001A707047D402002008B52021034801F0BA
:1025B00007FE003818BF012008BD00BF0004004816
:1025C0000B4B1A6801321A601B68092B00D8704740
:1025D00010B5084B01221A700024074B1C70074BE2
:1025E0001C70FFF7E1FF064B1870014B1C6010BD1B
:1025F000AC020020D6020020D5020020D302002029
:10260000D802002072B6FEE708B51148114B0360EE
:102610004FF4827343604FF4004383604FF4E063F0
:10262000C3600023036143614FF40072826118228A
:10263000C2610362436283620722C26203630823AA
:10264000436304F01AFB00B908BDFFF7DBFF00BFCE
:10265000241300200030014000B587B0002301930F
:10266000029303930493059300932148214A026047
:1026700083607F22C260FF22026143618361C36184
:102680004FF080420262436204F066F848BB0621C4
:10269000174804F0DCF9184B98421FD000238DF83E
:1026A00004308DF805308DF806304FF480320492F6
:1026B0000593012201A90E4804F0B5F898B901224A
:1026C0008DF800208DF801208DF8022025238DF84B
:1026D00003306946064804F00CF930B907B05DF8DC
:1026E00004FBFFF78FFFFFF78DFFFFF78BFF00BFA6
:1026F0008813002000280040FF55FFAA08B50B48AA
:102700000B4B03604FF4E133436000238360C360ED
:1027100003610C2242618361C3610362436204F07E
:10272000B4FF00B908BDFFF76DFF00BF9C12002089
:102730000044004000B58BB0002307930893099331
:102740000193029303930493059306931C481D4A37
:10275000026043608360C3600361042242610376C8
:1027600001224276C26180F820308362C36280F821
:102770003030436380F8383000F0D6FBD0B9002306
:10278000079307A90E4801F07DF9A8B90E4B0193F4
:1027900006230293002303937F22049204220592CE
:1027A00006930DEB0201064800F056FE30B90BB05F
:1027B0005DF804FBFFF726FFFFF724FFFFF722FF7A
:1027C00038140020000004500100008008B50B48B8
:1027D0000B4B0360002343604FF4606282604FF64E
:1027E000FF724261036243628362C36203634363B5
:1027F00001F088FE00B908BDFFF704FFB413002004
:10280000007C004000B597B04422002105A807F0E5
:10281000CDFA0023009301930293039304934FF4A2
:10282000007003F0ADF838BB03F09AF8154AD2F8FF
:10283000903023F01803C2F890303423059301231D
:1028400007930F930C9300230D9380220E92109305
:1028500005A803F09FF988B90F2300930021019187
:10286000029103910491684603F002FD40B903F020
:1028700007FF17B05DF804FBFFF7C4FEFFF7C2FEC9
:10288000FFF7C0FE0010024008B500F018FBFFF78C
:10289000B9FFFFF7F9F8FFF7B7FE05F0B9FEFEF74D
:1028A00033FA08BD10B50446A0B900F049FAFFF7A5
:1028B00015FADFED0C7A20EE270ABDEEC00A10EE05
:1028C000103A18B200F086F9FFF7BAFA00F0FEF9F4
:1028D0001CB910BDFFF7D8FFE7E70020FFF79CF910
:1028E000F7E700BF0000C84238B500F0A5FAFFF7CF
:1028F00089FFFFF7C9F8FFF7ADF8FFF785FEFFF78F
:10290000ABFEFFF7FBFEFFF715FF05F081FEFFF7BB
:102910005DFF01223449354801F02AF8FFF7B4F988
:10292000FEF7F2F900F048F900F00AFA00B30022CD
:102930001146412001F086F9412001F093F9FFF79B
:1029400099F9FFF7CBF9DFED2A7A60EE277AFDEEF1
:10295000E77A17EE903A18B200F03CF900F0B6F9B9
:10296000FFF76EFAFFF720FE88B9FFF755F90EE082
:10297000FFF7CEF9DBE71F4B1B78D3B91E4B1B7853
:102980000BBB1E4B1B7823BB1D4B1B783BBB1D4B4E
:102990001B78002BEFD000251A4B1D701A4C2078A5
:1029A00080F00100FFF77EFF2570184B01221A709E
:1029B000E1E7104B00221A70FFF766FF00F05EFAA5
:1029C000134B1860DAE70C4B00221A70FFF7A0FDDA
:1029D000D7E70A4B00221A70FFF736FDD4E7012033
:1029E00003F01EF8D3E700BF941200203814002033
:1029F0000000C842D4020020D7020020D2020020EA
:102A0000D3020020D6020020D8020020D5020020E8
:102A1000B002002010B5044641600268304B9A4273
:102A200030D003F0EFFC0246E369B3F5004F2DD040
:102A3000002190184941801841F10001C90041EA84
:102A40005071C000801863684FEA83024FEA9373A5
:102A500041F10001FEF722F8224AA2FB00314909A8
:102A6000642303FB11031B013233A2FB03235B0925
:102A700003F0F00202EB011203F00F03216813448C
:102A8000CB6010BD03F0BEFC0246CDE700239018DA
:102A900043EB0301801841F10001C90041EA507184
:102AA000C000801841F10001626892185B41FDF797
:102AB000F5FF0C4AA2FB00314909642303FB110313
:102AC000DB003233A2FB03235B095A0002F4F872E5
:102AD00002EB011203F0070321681344CB60D0E737
:102AE000003801401F85EB5110B582B00446FF232A
:102AF0008DF8073000238DF8063009B98DF80730BE
:102B00000A2301220DF10701204604F06BFC0A2381
:102B100001220DF10601204604F0C8FC9DF80600D4
:102B200002B010BD2DE9F04107460E4600242546AF
:102B300006E0012303FA08F32B43DDB20134E4B2CB
:102B4000072C0BD8A04646FA04F101F001013846E3
:102B5000FFF7CAFFFF28ECD00023EBE72846BDE8CB
:102B6000F08110B582B00446F0238DF807300023C1
:102B70008DF806304FF41651FFF74CFF0A2301225F
:102B80000DF10701204604F02DFC0A2301220DF16E
:102B90000601204604F08AFC4FF4E1312046FFF79D
:102BA00039FF9DF806209DF807309A4202D0002098
:102BB00002B010BD0120FBE7054B002283F8602026
:102BC00083F86320012183F8621083F86120704745
:102BD000A014002070B590B00546314A92F86030DC
:102BE00022F813000133DBB282F8603092F86310F0
:102BF000013182F863102F2B05D91346002283F888
:102C0000622083F86020264B93F862303BB9244B56
:102C100093F8602083F861202F2283F863200BA9AA
:102C200000240B944C608C60CC600C610A941D4EA7
:102C30002246304603F0B8FE22460AA9304603F089
:102C4000D9FE9DF82B30643306939DF82930013B63
:102C500005939DF82A3004939DF82C3003939DF83A
:102C60002D3002939DF82E3001930123099301A882
:102C700007F076F9044602F073FE0B4B1B782BB17C
:102C800021462846FEF7E0FC10B070BD2246052123
:102C9000304603F0CDFE044B01221A70F0E700BF6E
:102CA000A0140020881300209C140020064B93F8E9
:102CB00061301844C0B22F2801D93038C0B2024B5D
:102CC00033F91000704700BFA014002010B502F0C7
:102CD00047FE184A0621184803F0AAFE00240EE019
:102CE0006300164931F82420013331F8133043EAE8
:102CF000024204F10801104803F09AFE0134172C37
:102D0000EEDD0E4A92F8631092F861301B0443EA3C
:102D1000016392F8601043EA012392F8622032B115
:102D200001221A430721044803F082FE10BD00224D
:102D3000F7E700BFFF55FFAA88130020A01400206A
:102D40002DE9F0410621224803F081FE214B9842F3
:102D50003BD1002413E004F108081D4F41463846DA
:102D600003F075FE6500000C1B4E26F81500414669
:102D7000384603F06CFE013526F815000134172C97
:102D8000E9DD134D0721284603F061FE000E124CC9
:102D900084F863000721284603F059FEC0F307407A
:102DA00084F861000721284603F051FEC0F3072094
:102DB00084F860000721284603F049FE00F0010076
:102DC00084F862000120BDE8F0810020FBE700BF2D
:102DD00088130020FF55FFAAA0140020014B93F890
:102DE00063007047A0140020104B1B780BB9012022
:102DF000704710B504464FF47A70B0FBF3F30C4AF9
:102E00001068B0FBF3F000F031FF68B90F2C01D966
:102E100001200AE0002221464FF0FF3000F012FFAF
:102E2000044B1C60002000E0012010BDB800002011
:102E3000C4000020BC00002010B5094A136843F408
:102E400080731360032000F0EBFE0F20FFF7CCFF30
:102E500010B10124204610BD044601F029FCF9E719
:102E600000200240034B1B78034A11680B44136097
:102E7000704700BFB800002004150020014B1868FF
:102E8000704700BF0415002038B50446FFF7F6FF71
:102E90000546B4F1FF3F02D0044B1B781C44FFF7FA
:102EA000EDFF401BA042FAD338BD00BFB8000020A0
:102EB0004FF0E022136923F00203136170474FF0D3
:102EC000E022136943F002031361704710B43030FD
:102ED0000B0A9B0003F00C03C45801F01F014FF0D4
:102EE0001F0C0CFA01FC24EA0C0CC2F384628A4029
:102EF0004CEA0202C2505DF8044B704710B4143023
:102F00004B0E9B0003F00403C458C1F304514FF06F
:102F1000070C0CFA01FC24EA0C0C8A404CEA020271
:102F2000C2505DF8044B704730B583B00023019365
:102F3000002800F0D9800446436D13B323689A68D3
:102F400012F0005F05D09A6822F0204222F03F0282
:102F50009A602268936813F0805F1FD1936823F012
:102F6000104323F03F0343F0805393605F4B1B6893
:102F70009B095F4AA2FB03239B0901335B0001937A
:102F800009E001F0ADFB0023A36584F85030D5E7DC
:102F9000019B013B0193019B002BF9D122689368AF
:102FA00013F0805F79D1636D43F010036365A36D07
:102FB00043F00103A3650120936813F0040300D0DC
:102FC0000123616D11F0100F40F08780002B40F05D
:102FD0008480636D23F4817343F002036365936817
:102FE00013F0010F12D1434B9B6813F0010300D083
:102FF0000123414A926812F0010F07D133B9636887
:103000003E498A6822F47C1213438B60627E636BB4
:1030100043EA4233E2681343A268134394F8202042
:1030200043EA0243012A3AD0A26A22B102F4707242
:10303000E16A0A4313432168CD68314A2A401A43A2
:10304000CA602268936813F0080300D00123ABB96B
:10305000237E94F83010490041EA8331D36823F489
:10306000804323F002030B43D36094F83830012BE4
:103070001AD02268136923F0010313612369012B1D
:1030800022D02268136B23F00F031363636D23F0C8
:10309000030343F00103636524E000208CE7626AC8
:1030A000013A43EA4243BFE721680B696FF38A03A1
:1030B000E26B256C2A43656C2A43A56C2A431343B3
:1030C00043F001030B61D9E721680B6B23F00F0379
:1030D000E269013A13430B63D8E7636D43F01003D1
:1030E0006365012003B030BD0120FBE7C400002070
:1030F000632D3E05000004500001045000030450FD
:1031000007C0F0FF7047704708B5806AFFF7FBFF04
:1031100008BD704770470000F8B5044603681F6893
:103120005D689A4B9E6806F01F0617F0020F10D0DC
:1031300015F0020F0DD0436D13F0100F03D1436D46
:1031400043F400634365204600F09AFC23680222A2
:103150001A6017F0040F02D015F0040F05D117F014
:10316000080F4DD015F0080F4AD0636D13F0100F03
:1031700003D1636D43F4007363652368DA6812F466
:10318000406F37D1824A934227D01A46934207D0E4
:10319000092E25D840F22121F14011F0010F1FD056
:1031A000DA6812F4005F25D11A6812F0080F21D0F6
:1031B0009A6812F0040F15D15A6822F00C025A6076
:1031C000636D23F480736365636D13F4805F11D1C5
:1031D000636D43F0010363650CE0A2F58072D5E7EF
:1031E000D268DEE7636D43F010036365A36D43F0BF
:1031F0000103A3652046FFF785FF23680C221A60B0
:1032000017F0200F02D015F0200F05D117F0400F56
:103210005CD015F0400F59D0636D13F0100F03D13F
:10322000636D43F4005363652368DA6C12F0C00FDA
:1032300012D10121DA6812F4406F0FD10120544AF3
:1032400093420DD01A4693420DD066B1062E0AD095
:10325000072E08D0D26807E00021EBE70020EEE758
:10326000A2F58072EFE7DA6851B312F0007F03D065
:1032700030B312F4005F23D1196811F0400F1FD052
:1032800012F4001F1CD19A6812F0080F10D15A686E
:1032900022F060025A60636D23F480536365636DAE
:1032A00013F4807F0CD1636D43F00103636507E085
:1032B000636D43F010036365A36D43F00103A365E1
:1032C000204600F0D9FB236860221A6017F0800FB7
:1032D00002D015F0800F2FD117F4807F02D015F4A3
:1032E000807F34D117F4007F02D015F4007F3AD1EB
:1032F00017F0100F19D015F0100F16D0636B33B103
:10330000002E3CD0214B9B6813F4604F0AD0636DB4
:1033100043F480636365A36D43F00203A365204615
:10332000FFF7F8FE236810221A6017F4806F02D0AE
:1033300015F4806F2ED1F8BD636D43F4803363655F
:103340002046FFF7E6FE236880221A60C4E7636D1B
:1033500043F400336365204600F090FB23684FF48C
:1033600080721A60BEE7636D43F480236365204674
:1033700000F085FB23684FF400721A60B8E72368F9
:10338000DB6813F0010FCDD0C1E700BF000304508C
:1033900000010450636D43F480436365A36D43F003
:1033A0000803A36523684FF480621A60204600F08A
:1033B00064FBC0E708B50346806A426D12F0500F07
:1033C00030D1436D43F40073436503681A6812F00B
:1033D000080F14D0DA6812F4406F20D1DB6813F4C0
:1033E000005F1CD1436D23F480734365436D13F478
:1033F000805F14D1436D43F0010343650FE0DB6848
:1034000013F0020F0BD1436D23F480734365436DBA
:1034100013F4805F03D1436D43F001034365FFF76D
:1034200071FE08BD426D12F0100F04D1C26C526BD8
:1034300018469047F5E7FFF76DFEF2E708B5806A9A
:10344000436D43F040034365836D43F0040383659C
:10345000FFF760FE08BD0000F0B583B000230193C4
:1034600090F85030012B00F00B8204460D460123EA
:1034700080F850300068836813F0040F09D0636D42
:1034800043F0200363650120002384F8503003B02B
:10349000F0BD4968052907D80239032971D8DFE84A
:1034A00001F002726B6D0C212A68FFF70FFD206896
:1034B000836813F0040300D00123826812F008022D
:1034C00000D0012223BB1ABBAA68B2F1004F5CD026
:1034D0002968FFF713FD2268536923F00043536105
:1034E00069692268D368C3F3C1035B009940286906
:1034F000042854D02E68603252F82070A74B3B400D
:1035000006F0F84631430B4343F0004342F82030C5
:103510002268936813F0010F17D12B68E868D2F87E
:10352000B010C3F3120621EA060100F0180C9C4803
:1035300020FA0CF00340C3F312030B43C2F8B0307F
:10354000EA68984B9A4200F091802B68964A1342A1
:1035500000F09281954A926802F0E07094498B42A3
:1035600000F03D8193498B4200F05F8192498B428C
:1035700000F06F81002087E7182195E74FF48071F4
:1035800092E7062190E712218EE700222968FFF7D3
:10359000B5FC2268536943F000435361A0E7136E02
:1035A000116EC1F384612B68C3F3120078BBC3F3BF
:1035B0008463994233D021684B6E4A6EC2F38462B1
:1035C0002B68C3F3120078BBC3F384639A4233D0F1
:1035D00021688B6E8A6EC2F384622B68C3F312007B
:1035E00078BBC3F384639A4233D02168CB6ECA6E32
:1035F000C2F384622B68C3F3120078BBC3F3846305
:103600009A4285D1CB6E23F00043CB6680E793FAD4
:10361000A3F313B1B3FA83F3CBE72023C9E7136E07
:1036200023F000431366C6E793FAA3F313B1B3FA8A
:1036300083F3CBE72023C9E74B6E23F000434B66AF
:10364000C6E793FAA3F313B1B3FA83F3CBE72023CE
:10365000C9E78B6E23F000438B66C6E793FAA3F3AA
:1036600013B1B3FA83F3CBE72023C9E720682B68B3
:10367000C3F3120626BB9A0E013202F01F02092A7A
:103680008CBF00220122002A52D046BB990E013184
:10369000890601F0F84176BB9F0E013707F01F073E
:1036A0000122BA401143AEBB9B0E013303F01F034E
:1036B00003EB43031B051943AA68FFF71FFC44E70C
:1036C00093FAA3F24AB1B2FA82F2013202F01F0277
:1036D000092A8CBF00220122D5E72022F5E793FAC0
:1036E000A3F131B1B1FA81F10131890601F0F8415C
:1036F000D1E72021F8E793FAA3F24AB1B2FA82F2B5
:10370000013202F01F024FF0010C0CFA02F2C9E77D
:103710002022F5E793FAA3F343B1B3FA83F301331D
:1037200003F01F0303EB43031B05C4E72023F6E765
:10373000CEB9990E0131890601F0F841FEB99F0E0C
:10374000013707F01F070122BA401143B6BB9B0E99
:10375000013303F01F0303EB43031E3B1B0543F040
:1037600000731943A8E793FAA3F131B1B1FA81F1DB
:103770000131890601F0F841E0E72021F8E793FAEA
:10378000A3F24AB1B2FA82F2013202F01F024FF004
:10379000010C0CFA02F2D8E72022F5E700F0FF0353
:1037A000FFFF070000007F40000008800003045076
:1037B000000052C7000084CB0100008093FAA3F3FD
:1037C0005BB1B3FA83F3013303F01F0303EB43034D
:1037D0001E3B1B0543F00073C3E72023F3E712F4FD
:1037E000000F7FF4BFAE2268264B9A4201D0002022
:1037F0004AE640F4000324498A6822F0E072134349
:103800008B60224B1B689B09214AA2FB03239B0967
:10381000013303EB43039B000193019B1BB1019B0D
:10382000013B0193F9E700202EE612F0807F7FF440
:103830009DAE2268134B9A4201D0002024E640F04E
:10384000807311498A6822F0E07213438B60002074
:103850001AE612F4800F11D122680A4B9A4201D065
:10386000002011E640F4800307498A6822F0E072E4
:1038700013438B60002007E6002005E6002003E6E6
:10388000022004E60000045000030450C40000209D
:10389000632D3E0530B583B00023019303689A6819
:1038A00012F0010F58D1044699682D4A114219D1DE
:1038B0009A6822F0004222F03F0242F001029A6030
:1038C000284B9B6813F4000F1CD0274B1B689B09E7
:1038D000264AA2FB03239B09013303EB43039B000E
:1038E00001930CE0436D43F010034365836D43F097
:1038F00001038365012030E0019B013B0193019BA3
:10390000002BF9D1FFF7BAFA054623681A6812F0BE
:10391000010F1FD19A6812F0010F07D19A6822F0A7
:10392000004222F03F0242F001029A60FFF7A6FA3D
:10393000431B022BE9D923681B6813F0010FE4D164
:10394000636D43F010036365A36D43F00103A3654A
:10395000012002E0002000E0002003B030BD00BFE5
:103960003F00008000030450C4000020632D3E058A
:10397000F8B504463B4B9D680068806810F0040F62
:103980006CD10E46174605F01F0594F85030012BF8
:1039900066D0012384F85030092D05D840F2212348
:1039A000EB4013F0010F04D1002384F850300120C4
:1039B00055E02046FFF76EFF00284BD1636D23F4DE
:1039C000706323F0010343F4807363652368264A20
:1039D000934239D01A46934200D01DB9636D23F447
:1039E00080136365636D13F4805F30D0A36D23F0A3
:1039F0000603A365E36C1D4ADA62E36C1C4A1A6392
:103A0000E36C1C4A5A6323681C221A60002384F862
:103A100050302268536843F0100353602268D36823
:103A200043F00103D36021683B4632464031E06CED
:103A300000F0CCF92268936823F0004323F03F03A1
:103A400043F0040393600AE0A2F58072C3E7002309
:103A5000A365CFE7002384F8503000E00220F8BDD2
:103A60000220FCE70003045000010450B5330008B5
:103A7000093100083D3400087047704770477047AF
:103A80007047000090F85020012A7FD010B49BB0FE
:103A90000346012280F850200022169217920068F7
:103AA0003B4A904237D000220192019A002A36D038
:103AB000926812F0040200D00122806810F0040F16
:103AC00050D1002A4ED10A68002A31D0314CA26868
:103AD00022F46042486893F830C040EA4C30024318
:103AE000A2602B4A926812F0010200D001222A48FB
:103AF000806810F0010F41D1002A41D1254CA26805
:103B000022F4716222F00F020868896801430A43B7
:103B1000A26000202BE002F580720192C5E75A6D89
:103B200042F020025A65002283F85020012021E053
:103B300018498A6822F460428A60154A926812F035
:103B4000010200D001221449896811F0010F19D136
:103B5000D2B910498A6822F4716222F00F028A6099
:103B6000002004E05A6D42F020025A650120002234
:103B700083F850201BB05DF8044B70470020F6E737
:103B80000020F4E70020F2E70020F0E70220704771
:103B9000000004500003045000010450002807DB1B
:103BA00000F01F02400901239340024A42F82030EE
:103BB000704700BF00E100E0002808DB0901C9B23E
:103BC00000F1604000F5614080F80013704700F09C
:103BD0000F000901C9B2014B1954704714ED00E000
:103BE00000B500F00700C0F1070CBCF1040F28BFBE
:103BF0004FF0040C031D062B0FD9C31E4FF0FF3EE0
:103C00000EFA0CF021EA000199400EFA03FE22EAB6
:103C10000E0241EA02005DF804FB0023EEE700001B
:103C2000074AD36823F4E0631B041B0C000200F472
:103C3000E060034343F0BF6343F40033D360704755
:103C400000ED00E010B50446054BD868C0F3022033
:103C5000FFF7C6FF01462046FFF7AEFF10BD00BFCD
:103C600000ED00E008B5FFF799FF08BD0138B0F19D
:103C7000807F0BD24FF0E0235861054AF02182F893
:103C800023100020986107221A61704701207047B5
:103C900000ED00E030B4446C04F01C0C012404FA84
:103CA0000CF4056C6C60046863608368102B05D0AD
:103CB000036899600368DA6030BC704703689A60F3
:103CC0000368D960F8E70000002871D010B40346FB
:103CD0000168384A914248D8374A0A443748A0FB1D
:103CE0000202120992005A64354A1A64022283F8C9
:103CF000252008686FF30E109A68DC6822431C695F
:103D000022435C6922439C692243DC6922431C6A8A
:103D1000224302430A609A68B2F5804F1BD0196CA7
:103D2000274A91422CD0264AD2F8A814586C00F0A9
:103D30001C0C0F2000FA0CF021EA0001C2F8A814B4
:103D4000D2F8A81458685C6C04F01C0C00FA0CF053
:103D50000143C2F8A8140020D863012283F825206B
:103D600083F824005DF8044B7047164A0A44134850
:103D7000A0FB0202120992005A64134A1A64B5E7C2
:103D8000D2F8A810586C00F01C0C0F2000FA0CF0B0
:103D900021EA0001C2F8A810D2F8A81058685C6C9B
:103DA00004F01C0C00FA0CF00143C2F8A810D2E792
:103DB0000120704707040240F8FFFDBFCDCCCCCCFA
:103DC00000000240F8FBFDBF0004024038B5044685
:103DD00090F82400012831D0012084F8240094F8C0
:103DE0002500012804D0002384F82430022038BDA7
:103DF000022084F825000020E0632568286820F070
:103E0000010028602046FFF745FF236B5BB1226865
:103E1000136843F00E0313602268136843F0010334
:103E200013600020E3E72268136823F004031360A3
:103E30002268136843F00A031360EDE70220D6E717
:103E400038B5036C196804682568436C03F01C03DB
:103E500004229A400A4215D015F0040F12D02368AC
:103E600013F0200F03D1236823F004032360436C75
:103E700003F01C02016C042393404B60036B03B1FD
:103E8000984738BD02229A400A421CD015F0020F12
:103E900019D0236813F0200F06D1236823F00A03FA
:103EA0002360012380F82530436C03F01C02016C71
:103EB000022393404B60002380F82430C36A002B18
:103EC000DFD09847DDE7082202FA03F30B42D8D08F
:103ED00015F0080FD5D0236823F00E032360436C40
:103EE00003F01C03016C012202FA03F34B60C2636E
:103EF00080F82520002380F82430436B002BC0D0AD
:103F00009847BEE7F0B583B0002362E085685E00A5
:103F10000324B44025EA0405CC68B4402C438460F3
:103F2000456825EA0C054C68C4F300149C402C43FA
:103F300044605FE0DD08083550F8254003F0070CC9
:103F40004FEA8C0C4FF00F0E0EFA0CFE24EA0E0E08
:103F50000C6904FA0CF444EA0E0440F8254060E0D1
:103F6000032400E0002404FA0EF42C430CF1020CAC
:103F70004F4D45F82C404F4CA568D44325EA020626
:103F80004F6817F4801F01D042EA0506494DAE6024
:103F9000ED6804EA05064F6817F4001F01D042EAF5
:103FA0000506444DEE606D6804EA05064F6817F497
:103FB000003F01D042EA05063E4D6E602D682C4060
:103FC0004E6816F4803F01D042EA0504394A146075
:103FD00001330A6832FA03F468D04FF0010C0CFA8E
:103FE00003FC1CEA0202F3D04C6804F00304013C19
:103FF000012C8BD94C6804F00304032C0CD0C4684A
:104000005D004FF0030C0CFA05FC24EA0C0C8C68E4
:10401000AC4044EA0C04C4604C6804F00304022C75
:1040200088D004684FEA430E4FF0030C0CFA0EFCE4
:1040300024EA0C0C4C6804F0030404FA0EF444EA7D
:104040000C0404604C6814F4403FC1D01A4C256E37
:1040500045F001052566246E04F001040194019CDD
:104060004FEA930C0CF10205114C54F8255003F063
:10407000030E4FEA8E0E0F2404FA0EF425EA04050F
:10408000B0F1904F3FF46EAF0C4CA0420AD004F553
:104090008064A04208D004F58064A0423FF460AF81
:1040A000072460E701245EE702245CE703B0F0BD6B
:1040B00000000140000401400010024000040048DC
:1040C000002331FA03F274D0F0B52EE0032500E0AE
:1040D000002505FA0CF5A5424FD004685D004FF0AD
:1040E000030C0CFA05FC44EA0C0404604FEAD30EFE
:1040F0000EF1080E50F82E4003F00706B6000F250B
:10410000B54024EA050440F82E40846824EA0C04F3
:104110008460446824EA02024260C26822EA0C0217
:10412000C260013331FA03F242D001229A4012EA0E
:104130000107F6D04FEA930E0EF102051D4C54F81C
:10414000254003F0030C4FEA8C0C0F2505FA0CF602
:104150003440B0F1904FBBD0174DA84209D005F5BF
:104160008065A84207D005F58065A842AED0072536
:10417000AFE70125ADE70225ABE7104C256825EA3E
:1041800007052560656825EA07056560E56825EA95
:104190000705E560A56825EA0705A560054F0EF14E
:1041A000020457F8245025EA060547F8245094E7FE
:1041B000F0BD7047000001400004004800040140C9
:1041C0000369194201D001207047002070470AB1ED
:1041D000816170478162704708B5054B5B69034296
:1041E00000D108BD024B5861FEF7D4F9F9E700BFD2
:1041F0000004014084460C4B1B680C4AA2FB0323BD
:104200009B0B4FF47A7202FB03F3002006E0DCF80C
:104210000020126831EA020204D01BB1013BF6D142
:104220000320F4E7704700BFC40000205917B7D13E
:1042300070477047704770477047704770477047C6
:1042400010B5044603681A6812F0010F03D09A688B
:1042500012F0010F48D123681A6812F0020F03D040
:104260009A6812F0020F44D123681A6812F0040F02
:1042700003D09A6812F0040F41D123681A6812F033
:10428000080F03D09A6812F0080F3ED123681A680D
:1042900012F0100F03D09A6812F0100F3BD1236870
:1042A0001A6812F0200F03D09A6812F0200F38D14C
:1042B00023681A6812F0400F03D09A6812F0400F7A
:1042C00035D123681A6812F0800F03D09A6812F073
:1042D000800F32D123681A6812F4807F03D09A6865
:1042E00012F4807F2FD110BD01225A60FFF7A0FF8A
:1042F000B1E702225A602046FEF762F9B4E70422D1
:104300005A602046FFF795FFB7E708225A6020461B
:10431000FFF790FFBAE710225A602046FFF78BFFA5
:10432000BDE720225A602046FFF786FFC0E7402203
:104330005A602046FFF781FFC3E780225A6020467B
:10434000FFF77CFFC6E74FF480725A602046FFF704
:1043500076FFC8E790F83A00704700002DE9F84F63
:104360000446EFF31085012383F310880368634A42
:10437000934205D002F5C052934221D0002604E0BA
:104380005F4AD2F8886006F44026D3F808B0D3F824
:104390000CA05A699F69D3F82090D3F82880574918
:1043A0008B4213D001F5C0518B4218D1544BD96BBD
:1043B00041F02001D963D96B21F02001D9630EE0CF
:1043C0004F4AD2F8886006F44016DEE74C4B996BF2
:1043D00041F000419963996B21F0004199631AB94A
:1043E00017B9B8F1000F76D0236844498B420BD03F
:1043F00001F5C0518B420ED14149D1F8883023F4E8
:104400004013C1F8883006E03D49D1F8883023F4E4
:104410004023C1F88830A2B947BBB8F1000F3AD1A8
:104420002368364A93424ED002F5C052934252D18D
:10443000334AD2F8883023F440133343C2F888302B
:1044400049E021680B6943F001030B6123685A615D
:1044500008212046FFF7CEFE032803D02368082258
:104460005A60D9E7032384F83A30F7E722681369E2
:1044700043F00103136123689F6110212046FFF779
:10448000B9FE032803D0236810225A60C5E703232E
:1044900084F83A30F7E72268136943F001031361A7
:1044A0002368C3F828804FF480712046FFF7A2FEEE
:1044B000032804D023684FF480725A60B0E70323C6
:1044C00084F83A30F6E70E4AD2F8883023F44023D5
:1044D0003343C2F888302268136923F00103136163
:1044E0002368C3F808B02368C3F80CA02368C3F896
:1044F000209085F31088BDE8F88F00BF007C004055
:104500000010024000286DD0F8B5044690F83A300B
:10451000002B5DD0022384F83A302268136943F0FF
:104520000103136123684FF4807159602368626B43
:104530009A622046FFF75EFE032848D02046FFF728
:104540000DFF2046FFF706FF032840D02568EB68E3
:104550006168012903D0A26AB2F5000F01D123F0EE
:104560001E0362694FF6FF70824203D023F460435A
:1045700023F0C0031C481840A3680B43266A33434A
:10458000666A3343A66A3343034319B9E06927696E
:1045900038430343012902D0B6F5000F03D1E16887
:1045A000206901430B434FF6FF718A4204D0A16991
:1045B0000A43E1690A431343EB6023680B4A9342C1
:1045C0000BD0E26A1A62012384F83A300020F8BD69
:1045D00080F8393000F0C4F89CE7E26A216B0A43A6
:1045E0001A62F0E701207047FEF119FF007C0040DD
:1045F00010B504460B46022280F83A2001682A4A88
:10460000914245D029490A6A42F002020A62626870
:10461000012A03D0A26AB2F5000F3FD021680A69CF
:1046200042F001020A612268102151602268936100
:104630002046FFF7DFFD032829D02046FFF78EFE36
:104640002046FFF787FE032821D02268936843F0B5
:10465000100393602268936843F00203936022681A
:10466000936843F4807393602268936843F08003F7
:1046700093602268136943F0010313612268136990
:1046800043F004031361012384F83A30002010BD85
:1046900006490A6A42F001020A62B8E72168CA685C
:1046A00022F46062CA60B9E7007C00400004014067
:1046B00082B00A4B1A6E42F001021A661A6E02F0BC
:1046C00001020092009A9A6D42F080529A659B6DA9
:1046D00003F080530193019B02B070470010024029
:1046E00002681C4B9A4200D0704710B582B0044655
:1046F00003F17043A3F5F833DA6C42F40052DA6444
:10470000DB6C03F400530193019B1348134B0360CC
:10471000002343608360C360802202614FF4807293
:1047200042614FF4806282612022C2610362FFF71E
:10473000CBFA60B9084BE3649C6200221146122058
:10474000FFF780FA1220FFF78DFA02B010BDFDF7D7
:1047500059FFEFE700000450F0130020080002406A
:1047600010B58EB004463422002101A805F01EFBCE
:104770002268124B9A4201D00EB010BD4FF4007364
:1047800001934FF44023099301A801F05FFE90B913
:104790000B4B9A6D42F000429A659B6D03F000430B
:1047A0000093009B002211464120FFF74BFA412065
:1047B000FFF758FAE0E7FDF725FFE9E7007C004046
:1047C0000010024010B58EB004463422002101A82A
:1047D00005F0ECFA22680D4B9A4201D00EB010BDE4
:1047E0004FF4003301934FF480730D9301A801F04F
:1047F0002DFE38B9064AD2F8903043F40043C2F88F
:104800009030EBE7FDF7FEFEF4E700BF0028004024
:104810000010024000B589B0002303930493059370
:10482000069307930268134B9A4202D009B05DF8D1
:1048300004FB03F560431A6E42F480521A661A6E46
:1048400002F480520192019ADA6C42F00102DA64B9
:10485000DB6C03F001030293029B82230393022388
:10486000049306930523079303A94FF09040FFF7A5
:1048700049FBDBE70030014008B50268074B9A426C
:1048800000D008BD064A136E23F4805313668221BC
:104890004FF09040FFF714FCF3E700BF00300140F9
:1048A0000010024010B594B0044600210F91109101
:1048B000119112911391342202A805F077FA22681F
:1048C000184B9A4201D014B010BD0223029302A8E3
:1048D00001F0BCFD10BB144B9A6D42F400329A6596
:1048E0009A6D02F400320092009ADA6C42F00102F2
:1048F000DA64DB6C03F001030193019B04230F9343
:10490000122310930123119303231293072313936C
:104910000FA94FF09040FFF7F5FAD4E7FDF772FECC
:10492000D9E700BF004400400010024038B512F43F
:10493000804F43D00468B4F8503091F800C04FEA7B
:10494000CC0E1EFA83F32344B3F80244C4F30904E3
:104950008B69A34228D31B1B8B618B697BB90568CC
:1049600035F82C309BB223F4804323F0700383F49A
:10497000005343F4004343F0800325F82C3012F039
:10498000400F0ED002680D7832F825309BB223F428
:10499000E04323F0700343F4004343F0C00322F8E4
:1049A000253024B9204638BD00238B61D5E7234646
:1049B0000A894969006803F0E5FDF3E70468B4F883
:1049C000503091F800C04FEACC0E1EFA83F3234416
:1049D000B3F80644C4F309048B69A3422FD31B1B0D
:1049E0008B618B697BB9056835F82C309BB223F459
:1049F000804323F0700383F4005343F4004343F0F7
:104A0000800325F82C3012F0400F0FD1026891F886
:104A100000C032F82C309BB223F4E04323F0700343
:104A200043F4004343F0C00322F82C30002CB9D0EB
:104A300023464A894969006803F0A4FDB2E70023D0
:104A40008B61CEE738B5002875D0044690F89132D6
:104A5000A3B1032384F8913200236371206802F02C
:104A600093FE234653F8040B0ECB02F07DFE50B1AB
:104A7000022384F891320125284638BD80F890320F
:104A800004F0B4F8E5E70021206802F087FE034651
:104A9000A8B902462079904216D902EB820104EBB4
:104AA000C101012048740A740020C8740862486279
:104AB000013202EB8201C9006050D2B2EAE7022360
:104AC00084F891320125D7E7984217D903EB830286
:104AD00004EBC202002182F8511182F8503182F8B1
:104AE0005311C2F86011C2F8641103EB830204EBA6
:104AF000C202C2F868110133DBB2E5E7234653F87E
:104B0000040B0ECB02F04CFE054658B9002363732C
:104B1000012384F89132E37A012B08D0206803F056
:104B20004CFAA9E7022384F891320125A4E7204634
:104B300000F0FFFEF2E701259EE790F89032012B8E
:104B40000ED010B50446012380F89032006802F0C0
:104B500012FE206803F026FA002084F8900210BDAF
:104B60000220704770B505460C46164612F0400FFD
:104B700000F020810268B2F8503009784FEAC10C89
:104B80001CFA83F31344B3F80224C2F30902A369A5
:104B900093422CD99B1AA361A06958B316F4804F95
:104BA0000DD0286830F821309BB223F4E04323F085
:104BB000700343F4404343F0800320F8213094F81D
:104BC0002430012B00F08D802A68217832F82130C2
:104BD0009BB223F4E04323F0400383F0300343F41B
:104BE000004343F0800322F82130002070BD0023F1
:104BF000A361D1E76378002B48D12A68B2F850301E
:104C000012FA83F36344B3F80224C2F30902A3F84F
:104C10000224B3F802246FEA42426FEA524292B28F
:104C2000A3F802242A686378002B3BD1B2F85030F5
:104C300012FA83F3227803EBC203B3F80624C2F31B
:104C40000902A3F80624B3F806246FEA42426FEA89
:104C5000524292B2A3F80624E378022B2FD0217897
:104C6000284604F025F816F4804FBED02A68217833
:104C700032F821309BB223F4E04323F0700343F475
:104C8000404343F0800322F82130AEE7012BC9D125
:104C90002A68B2F8503012FA83F363440022A3F872
:104CA0000224BFE7012BD7D1B2F8503012FA83F3B8
:104CB000227803EBC2030022A3F80624CCE72A687B
:104CC000217832F821309BB223F4E04323F04003F3
:104CD00083F0200343F4004343F0800322F82130A3
:104CE000BDE7636913446361E3691344E361216AC7
:104CF000236999421DD3C91A21626278002A44D1DE
:104D00002968B1F8502011FA82F2217802EBC10231
:104D1000B2F80214C1F30901A2F80214ABB9B2F857
:104D200002146FEA41416FEA514189B2A2F80214BC
:104D30002DE021B9002384F824301346DDE7002359
:104D400084F8243023620B46D7E73E2B0DD8590850
:104D500013F0010F00D00131B2F8020480B28902D1
:104D600089B20143A2F8021411E0580913F01F0F91
:104D700000D10138B2F8021489B2800280B2014336
:104D800041F40041A2F8021401E0012A06D09BB2CE
:104D900022896169286803F01EF915E72968B1F8CE
:104DA000502011FA82F2217802EBC10299B2A2F8E6
:104DB0000214ECE70268B2F850300978C80010FA23
:104DC00083F31344B3F80624C2F30902A3699342A0
:104DD00046D39B1AA361A369002B44D016F4804FDD
:104DE0000DD1286830F821309BB223F4E04323F042
:104DF000700343F4404343F0800320F8213094F8DB
:104E00002430012B7FF4E0AE636913446361E369EE
:104E10001344E361216A23699942C0F09C80C91A56
:104E2000216229686278002A40F0C180B1F85020E0
:104E300011FA82F2217802EBC102B2F80614C1F332
:104E40000901A2F80614002B40F09180B2F8061474
:104E50006FEA41416FEA514189B2A2F80614A8E015
:104E60000023A361B7E76378002B49D12A68B2F821
:104E7000503012FA83F30344B3F80224C2F3090258
:104E8000A3F80224B3F802246FEA42426FEA5242C6
:104E900092B2A3F802242A686378002B3CD1B2F8BE
:104EA000503012FA83F3227803EBC203B3F80624DE
:104EB000C2F30902A3F80624B3F806246FEA4242BB
:104EC0006FEA524292B2A3F80624E378022B30D064
:104ED0002178284603F0ECFE16F4804F7FF485AE6F
:104EE0002A68217832F821309BB223F4E04323F082
:104EF000700343F4404343F0800322F8213074E60A
:104F0000012BC8D12A68B2F8503012FA83F3034457
:104F10000022A3F80224BEE7012BD6D1B2F850300C
:104F200012FA83F3227803EBC2030022A3F80624CB
:104F3000CBE72A68217832F821309BB223F4E04392
:104F400023F0400383F0200343F4004343F0800345
:104F500022F82130BCE721B9002384F8243013461D
:104F60005FE70023236284F824300B4659E73E2B89
:104F70000DD8590813F0010F00D00131B2F8060422
:104F800080B2890289B20143A2F8061411E05809DF
:104F900013F01F0F00D10138B2F8061489B2800255
:104FA00080B2014341F40041A2F8061401E0012A55
:104FB00006D09BB262896169286803F00CF803E6A9
:104FC000B1F8502011FA82F2217802EBC10299B2B5
:104FD000A2F80614EDE72DE9F04105462868B0F87F
:104FE000443013F4004F00F05582B0F84440A3B2AF
:104FF00014F00F0440F09F8013F0100F4AD0038884
:105000009AB213F4006F75D112F4004FE6D0038802
:1050100023F070031B051B0D43F0800303802868F9
:10502000B0F8503095F85021D20012FA83F30344BF
:10503000B3F80634C3F30903C5F86C318BB1D5F866
:10504000641171B1B5F8562103F09CFAD5F86431BA
:10505000D5F86C211344C5F864310021284603F0CB
:105060001BFE2A68138899B213F4006FB6D101F4BD
:105070004051B1F5405FB1D013889BB223F4804317
:1050800023F0700383F4405343F4004343F0800360
:105090001380A3E703889BB223F4E14323F070035A
:1050A0006FEA43436FEA53439BB203802968B1F828
:1050B00050302A7CD20012FA83F30B44B3F8023446
:1050C000C3F30903EB626A6A1A446A620021284644
:1050D00003F0EEFD6B7B002B80D0AB6A002B7FF4DE
:1050E0007DAF6B7B2A6843F08003A2F84C3000232D
:1050F0006B7373E7B0F8503095F85021D20012FA74
:1051000083F30344B3F80634C3F30903C5F86C31E1
:10511000B5F8562105F5267103F034FA2A6813888C
:1051200023F070031B051B0D43F0800313802846FA
:1051300003F0AAFD52E730F824309EB213F4004F7A
:105140004ED116F0800F3FF449AF04EB8401C90043
:10515000103129442A6832F824309BB223F4E14309
:1051600023F070036FEA43436FEA53439BB222F884
:10517000243004EB840305EBC303DB7C012B00F03C
:10518000E98016F4807F40F080812868B0F85030C4
:1051900004EB840205EBC202167CF20012FA83F3E0
:1051A0000344B3F80234C3F30903621C02EB820226
:1051B00055F832209A4240F24B81671C07EB870773
:1051C000D21A45F83720621C02EB820255F83220D1
:1051D000002A40F044813146284603F069FDFDE68F
:1051E00030F8243023F070031B051B0D43F08003BF
:1051F00020F8243004EB8401C90001F5A87105EB07
:10520000010804EB840305EBC30393F85C31002B26
:1052100040D12868B0F8503004EB840205EBC2029C
:1052200092F85021D20012FA83F30344B3F80674C3
:10523000C7F3090717BB04EB840305EBC303D3F8DB
:105240006C213A44C3F86C21D3F864213A44C3F882
:105250006421D3F868313BB104EB840305EBC3034D
:10526000D3F860319F4270D204EB840305EBC30393
:1052700093F85011284603F00FFD62E704EB840118
:1052800005EBC1013B46B1F85621D1F8641103F09A
:1052900079F9D0E704EB840305EBC30393F85331AA
:1052A000022B33D0296804EB840205EBC20292F88A
:1052B000500131F820309BB223F4E04323F0700317
:1052C00043F4004343F0C00321F82030286892F8EB
:1052D000503130F8232012F4804F1ED0B0F8502007
:1052E000DB0013FA82F30344B3F80274C7F309072F
:1052F000002FA0D004EB840105EBC1013B46B1F8BF
:105300005821D1F8641103F03DF994E73246414643
:105310002846FFF70BFB07468DE7B0F85020DB006F
:1053200013FA82F30344B3F80674C7F30907002F96
:1053300081D004EB840105EBC1013B46B1F85A2151
:10534000D1F8641103F01EF975E74146286802F0B0
:1053500054FEF6E6631C03EB8303DB000022EA50F5
:1053600004EB840305EBC3031B7F1BB316F0400F54
:105370003BD004EB840305EBC3035B7C1BBB2A68B7
:10538000B2F8503012FA83F304EB840205EBC20248
:10539000127C03EBC203B3F80224C2F30902A3F8A0
:1053A0000224B3F802246FEA42426FEA524292B2F8
:1053B000A3F8022404EB840405EBC404217C2846F2
:1053C00003F076FC0AE6012BF4D12A68B2F85030DB
:1053D00012FA83F304EB840205EBC202127C03EBA6
:1053E000C2030022A3F80224E4E72A6804EB840342
:1053F00005EBC3035B7CD3B9B2F8503012FA83F3E8
:1054000004EB840205EBC202127C03EBC203B3F887
:105410000624C2F30902A3F80624B3F806246FEAAF
:1054200042426FEA524292B2A3F80624C2E7012B2D
:10543000C0D1B2F8503012FA83F304EB840205EBCA
:10544000C202127C03EBC2030022A3F80624B1E7D8
:10545000621C02EB8202D2000027AF50B3E604EBDD
:10546000840205EBC202566A1E445662013404EB04
:10547000840205EBC202526804EB840405EBC40409
:105480001344636002F0B9FDA8E532462846FFF7F1
:1054900069FBA3E50020BDE8F08190F89032012B74
:1054A0000CD010B50446012380F890324173006897
:1054B00002F072FD002084F8900210BD02207047B7
:1054C00010B50446006802F080FD10F4004F23D1AF
:1054D00010F4806F24D110F4804F32D110F4005FAB
:1054E00039D110F4805F40D110F4006F67D110F013
:1054F000800F40F0818010F4007F40F0AD8010F408
:10550000807F27D02268B2F844309BB223F48073A6
:105510009BB2A2F844301DE02046FFF75CFD19E085
:105520002268B2F844309BB223F480639BB2A2F8A5
:105530004430204603F0CDFB00212046FFF7ADFFAD
:1055400008E02268B2F844309BB223F480439BB257
:10555000A2F8443010BD2268B2F844309BB223F464
:1055600000539BB2A2F84430F4E72268B2F840300E
:105570009BB223F004039BB2A2F840302268B2F839
:1055800040309BB223F008039BB2A2F8403094F85D
:10559000C832012B0CD0204603F0BEFB2268B2F8C3
:1055A00044309BB223F480539BB2A2F84430D1E73D
:1055B000002184F8C812204603F0A0FCEBE7226823
:1055C000B2F840309BB243F00803A2F840302268A2
:1055D000B2F844309BB223F400639BB2A2F844308B
:1055E0002268B2F840309BB243F00403A2F8403086
:1055F000204603F081FBADE72268B2F844309BB24D
:1056000023F080039BB2A2F8443094F8C832FBB96F
:105610002268B2F840309BB243F00403A2F8403055
:105620002268B2F840309BB243F00803A2F8403041
:10563000012184F8C8122368B3F85430C3F38D03F2
:1056400003F03C03C4F8CC32204603F057FC81E75A
:10565000204603F051FB7DE72268B2F844309BB24C
:1056600023F400739BB2A2F84430204603F02BFBD6
:1056700070E710B50446084611F0800F27D101F0FD
:10568000070C0CEB8C01C90001F5A87E04EB0E01A0
:105690000CEB8C0C04EBCC0C4FF0000E8CF851E1B1
:1056A00000F007000870C2F30A020A61CB70022BF7
:1056B0001DD094F89032012B1CD0012384F8903235
:1056C000206802F07EF8002084F8900210BD01F0FE
:1056D000070C0CEB8C01C900103121440CEB8C0C35
:1056E00004EBCC0C4FF0010E8CF811E0D8E700234E
:1056F0000B71DEE70220E9E710B504460A4611F017
:10570000800F1FD101F0070000EB8003DB0003F5E1
:10571000A873E11800EB800004EBC000002380F8C0
:10572000513102F007020A7094F89032012B17D021
:10573000012384F89032206802F0D0FA002084F827
:10574000900210BD01F0070000EB8003DB00103376
:10575000E11800EB800004EBC00001234374E0E794
:105760000220EEE710B501F0070C0CEB8C01C9002C
:1057700001F5A8710CEB8C0E00EBCE0ECEF8642177
:10578000CEF868310024CEF86C418EF851418EF885
:1057900050C10144006802F030FC204610BD01F009
:1057A000070101EB810100EBC100D0F86C017047EB
:1057B00038B501F0070C0CEB8C01C90010310CEB73
:1057C0008C0E00EBCE0ECEF824200CF1010202EB81
:1057D000820440F8343001258EF83450CEF8303051
:1057E00000EBC402002454608EF811508EF810C0F3
:1057F0000144006802F001FC204638BD38B501F0D4
:1058000007050279AA4235D304460B4611F0800FF2
:105810001ED101EB8101C90001F5A871014403EB20
:10582000830300EBC303002283F8512101238B7013
:105830000D7094F89032012B1ED0012384F8903221
:10584000206802F036FB7DB1002084F8900238BD5C
:1058500005EB8501C9001031014405EB850300EB20
:10586000C30301225A74E1E704F52671206802F0AF
:10587000B0FBE9E70120EAE70220E8E70B460179FF
:1058800003F00F02914234D310B5044613F0800F99
:1058900021D103F0070202EB8201C90001F5A871D2
:1058A000014402EB820200EBC202002082F85101A7
:1058B00000228A7003F007030B7094F89032012BDA
:1058C00019D0012384F89032206802F017FB0020E1
:1058D00084F8900210BD03F0070202EB8201C900B8
:1058E0001031014402EB820200EBC202012050742D
:1058F000DEE7012070470220ECE711F0800F0BD0AB
:1059000001F0070101EB8101C9001031084452B9CF
:105910000273C3800020704701EB8101C90001F5CB
:10592000A8710844F3E70122027303811B0C438131
:10593000F0E7034602680121C0F8D412002083F882
:10594000C802B2F854309BB20B43A2F85430B2F8FC
:1059500054309BB243F00203A2F854307047000069
:10596000024A136843F4807313607047007000406C
:10597000024B186800F4C060704700BF0070004020
:10598000B0F5007F0FD01F4B1B6803F4C063B3F565
:10599000806F34D01B4A136823F4C06343F48063E0
:1059A000136000207047174B1B6803F4C063B3F506
:1059B000007F20D0134A136823F4C06343F40073BC
:1059C0001360114B1B68322202FB03F30F4AA2FB48
:1059D00003239B0C013300E0013B0A4A526912F495
:1059E000806F01D0002BF7D1064B5B6913F4806FF9
:1059F00003D100207047002070470320704700202B
:105A0000704700BF00700040C400002083DE1B43CD
:105A1000024A536843F4806353607047007000404B
:105A20000C4A136823F0070343F0020313600A4A89
:105A3000136943F004031361012808D040BF20BF5D
:105A400020BF054A136923F004031361704730BF78
:105A5000F7E700BF0070004000ED00E030B583B014
:105A60000446204B9B6D13F0805F0BD0FFF780FF47
:105A7000B0F5007F17D0802C1FD82DD0702C2DD0E2
:105A800000211BE0174DAB6D43F08053AB65AB6D50
:105A900003F080530193019BFFF76AFFAB6D23F086
:105AA0008053AB65E4E7802C03D9A02C03D90221F5
:105AB00004E0002102E0012100E003210A4A13680A
:105AC00023F007030B431360136803F007038B42B3
:105AD00006D1002003B030BD0221EFE70121EDE740
