:020000040800F2
:1000000000800020E99600083D7200083F72000859
:1000100041720008437200084572000800000000A9
:10002000000000000000000000000000477200080F
:1000300049720008000000004B7200084D72000871
:100040003997000839970008399700085572000859
:100050003997000839970008657200083997000839
:10006000399700083997000839970008717200081D
:100070003997000839970008399700083997000820
:1000800039970008399700088172000800000000C5
:100090000000000000000000000000003997000888
:1000A00039970008399700083997000839970008F0
:1000B0003997000800000000000000003997000890
:1000C00039970008399700083997000839970008D0
:1000D00039970008399700083997000839970008C0
:1000E0003997000839970008000000000000000060
:1000F0000000000000000000000000000000000000
:1001000000000000000000000000000000000000EF
:100110000000000000000000399700080000000007
:10012000399700083997000839970008399700086F
:1001300039970008000000000000000000000000E7
:10014000399700083997000839970008917200081C
:10015000399700083997000839970008399700083F
:1001600039970008399700080000000000000000DF
:1001700000000000399700080000000000000000A7
:1001800039970008399700083997000800000000E7
:1001900010F8012B11F8013B012A28BF9A42F7D031
:1001A000D01A7047034613F8012B002AFBD1181A06
:1001B000013870470000000000000000000000004F
:1001C00001F0FF01102A2BDB10F0070F08D010F808
:1001D000013B013A8B422DD010F0070F42B3F6D10C
:1001E000F0B441EA012141EA014122F007047FF025
:1001F00000070023F0E80256083C85EA010586EA7C
:10020000010685FA47F5A3FA87F586FA47F6A5FAB7
:1002100087F68EB9EED1F0BC01F0FF0102F00702C3
:1002200032B110F8013B013A83EA010313B1F8D16E
:100230000020704701387047002D06BF354603384F
:10024000073815F0010F07D1013015F4807F02BF88
:10025000013015F4C03F0130F0BC0138704700BFD9
:1002600081F0004102E000BF83F0004330B54FEA67
:1002700041044FEA430594EA050F08BF90EA020FD4
:100280001FBF54EA000C55EA020C7FEA645C7FEA67
:10029000655C00F0E2804FEA5454D4EB5555B8BF8A
:1002A0006D420CDD2C4480EA020281EA030382EAFB
:1002B000000083EA010180EA020281EA0303362D8D
:1002C00088BF30BD11F0004F4FEA01314FF4801C60
:1002D0004CEA113102D0404261EB410113F0004F72
:1002E0004FEA03334CEA133302D0524263EB430329
:1002F00094EA050F00F0A780A4F10104D5F1200EC7
:100300000DDB02FA0EFC22FA05F2801841F1000121
:1003100003FA0EF2801843FA05F359410EE0A5F1F5
:1003200020050EF1200E012A03FA0EFC28BF4CF026
:10033000020C43FA05F3C01851EBE37101F00045DC
:1003400007D54FF0000EDCF1000C7EEB00006EEBE9
:100350000101B1F5801F1BD3B1F5001F0CD3490873
:100360005FEA30004FEA3C0C04F101044FEA4452CA
:1003700012F5800F80F09A80BCF1004F08BF5FEA51
:10038000500C50F1000041EB045141EA050130BD31
:100390005FEA4C0C404141EB0101013C28BFB1F543
:1003A000801FE9D291F0000F04BF01460020B1FA8E
:1003B00081F308BF2033A3F10B03B3F120020CDA61
:1003C0000C3208DD02F1140CC2F10C0201FA0CF03F
:1003D00021FA02F10CE002F11402D8BFC2F1200CA4
:1003E00001FA02F120FA0CFCDCBF41EA0C0190405A
:1003F000E41AA2BF01EB0451294330BD6FEA0404A3
:100400001F3C1CDA0C340EDC04F11404C4F120028D
:1004100020FA04F001FA02F340EA030021FA04F39F
:1004200045EA030130BDC4F10C04C4F1200220FAF6
:1004300002F001FA04F340EA0300294630BD21FA34
:1004400004F0294630BD94F0000F83F4801306BFFA
:1004500081F480110134013D4EE77FEA645C18BFEE
:100460007FEA655C29D094EA050F08BF90EA020F85
:1004700005D054EA000C04BF1946104630BD91EA7D
:10048000030F1EBF0021002030BD5FEA545C05D180
:100490004000494128BF41F0004130BD14F58004BF
:1004A0003CBF01F5801130BD01F0004545F0FE4133
:1004B00041F470014FF0000030BD7FEA645C1ABF68
:1004C000194610467FEA655C1CBF0B46024650EA9F
:1004D000013406BF52EA033591EA030F41F40021CB
:1004E00030BD00BF90F0000F04BF0021704730B551
:1004F0004FF4806404F132044FF000054FF0000126
:1005000050E700BF90F0000F04BF0021704730B5E6
:100510004FF4806404F1320410F0004548BF4042BB
:100520004FF000013EE700BF42004FEAE2014FEA10
:1005300031014FEA02701FBF12F07F4393F07F4FEB
:1005400081F06051704732F07F4208BF704793F0EE
:100550007F4F04BF41F40021704730B54FF4607401
:1005600001F0004521F000411CE700BF50EA010204
:1005700008BF704730B54FF000050AE050EA0102AD
:1005800008BF704730B511F0004502D5404261EB1D
:1005900041014FF4806404F132045FEA915C3FF45E
:1005A000D8AE4FF003025FEADC0C18BF03325FEAFB
:1005B000DC0C18BF033202EBDC02C2F1200300FAAC
:1005C00003FC20FA02F001FA03FE40EA0E0021FAD1
:1005D00002F11444BDE600BF70B54FF0FF0C4CF4BF
:1005E000E06C1CEA11541DBF1CEA135594EA0C0F71
:1005F00095EA0C0F00F0DEF82C4481EA030621EAAC
:100600004C5123EA4C5350EA013518BF52EA0335E6
:1006100041F4801143F4801338D0A0FB02CE4FF098
:100620000005E1FB02E506F00042E0FB03E54FF0C8
:100630000006E1FB03569CF0000F18BF4EF0010EC0
:10064000A4F1FF04B6F5007F64F5407404D25FEABC
:100650004E0E6D4146EB060642EAC62141EA55516F
:100660004FEAC52040EA5E504FEACE2EB4F1FD0CB1
:1006700088BFBCF5E06F1ED8BEF1004F08BF5FEA2F
:10068000500E50F1000041EB045170BD06F00046E1
:1006900046EA010140EA020081EA0301B4EB5C048E
:1006A000C2BFD4EB0C0541EA045170BD41F4801186
:1006B0004FF0000E013C00F3AB8014F1360FDEBFAB
:1006C000002001F0004170BDC4F10004203C35DA87
:1006D0000C341BDC04F11404C4F1200500FA05F30A
:1006E00020FA04F001FA05F240EA020001F00042AB
:1006F00021F0004110EBD37021FA04F642EB060121
:100700005EEA430E08BF20EAD37070BDC4F10C044A
:10071000C4F1200500FA04F320FA05F001FA04F20E
:1007200040EA020001F0004110EBD37041F10001FA
:100730005EEA430E08BF20EAD37070BDC4F1200505
:1007400000FA05F24EEA020E20FA04F301FA05F26D
:1007500043EA020321FA04F001F0004121FA04F215
:1007600020EA020000EBD3705EEA430E08BF20EAE5
:10077000D37070BD94F0000F0FD101F0004640001F
:1007800041EB010111F4801F08BF013CF7D041EAA1
:10079000060195F0000F18BF704703F000465200A5
:1007A00043EB030313F4801F08BF013DF7D043EA76
:1007B0000603704794EA0C0F0CEA135518BF95EA2C
:1007C0000C0F0CD050EA410618BF52EA4306D1D1B3
:1007D00081EA030101F000414FF0000070BD50EAD2
:1007E000410606BF1046194652EA430619D094EA5C
:1007F0000C0F02D150EA013613D195EA0C0F05D146
:1008000052EA03361CBF104619460AD181EA030199
:1008100001F0004141F0FE4141F470014FF0000051
:1008200070BD41F0FE4141F4780170BD70B54FF0EC
:10083000FF0C4CF4E06C1CEA11541DBF1CEA13556C
:1008400094EA0C0F95EA0C0F00F0A7F8A4EB05044E
:1008500081EA030E52EA03354FEA013100F0888045
:100860004FEA03334FF0805545EA131343EA12630E
:100870004FEA022245EA111545EA10654FEA0026C3
:100880000EF000419D4208BF964244F1FD0404F57C
:10089000407402D25B084FEA3202B61A65EB0305D8
:1008A0005B084FEA32024FF480104FF4002CB6EB95
:1008B000020E75EB030E22BFB61A754640EA0C0015
:1008C0005B084FEA3202B6EB020E75EB030E22BF55
:1008D000B61A754640EA5C005B084FEA3202B6EB96
:1008E000020E75EB030E22BFB61A754640EA9C0055
:1008F0005B084FEA3202B6EB020E75EB030E22BF25
:10090000B61A754640EADC0055EA060E18D04FEAE2
:10091000051545EA16754FEA06164FEAC30343EA82
:1009200052734FEAC2025FEA1C1CC0D111F4801F4F
:100930000BD141EA00014FF000004FF0004CB6E748
:1009400011F4801F04BF01430020B4F1FD0C88BFE7
:10095000BCF5E06F3FF6AFAEB5EB030C04BFB6EBF2
:10096000020C5FEA500C50F1000041EB045170BDE5
:100970000EF0004E4EEA113114EB5C04C2BFD4EB12
:100980000C0541EA045170BD41F480114FF0000E96
:10099000013C90E645EA060E8DE60CEA135594EA12
:1009A0000C0F08BF95EA0C0F3FF43BAF94EA0C0F15
:1009B0000AD150EA01347FF434AF95EA0C0F7FF48A
:1009C00025AF104619462CE795EA0C0F06D152EADE
:1009D00003353FF4FDAE1046194622E750EA4106C2
:1009E00018BF52EA43067FF4C5AE50EA41047FF4D3
:1009F0000DAF52EA43057FF4EBAE12E74FEA410236
:100A0000B2F1E04324BFB3F5001CDCF1FE5C0DD96C
:100A100001F0004C4FEAC0024CEA5070B2F1004FB6
:100A200040EB830008BF20F00100704711F0804FB9
:100A300021D113F13872BCBF01F00040704741F47E
:100A400080114FEA5252C2F11802C2F1200C10FA82
:100A50000CF320FA02F018BF40F001004FEAC12366
:100A60004FEAD32303FA0CFC40EA0C0023FA02F30A
:100A70004FEA4303CCE77FEA625307D150EA0133E0
:100A80001EBF4FF0FE4040F44000704701F00040B0
:100A900040F0FE4040F40000704700BF53B94AB92F
:100AA000002908BF00281CBF4FF0FF314FF0FF3076
:100AB00000F00CB8ADF1080C6DE904CE0AF080FD31
:100AC000DDF804E0DDE9022304B07047704700BFA1
:100AD00010B5054C237833B9044B13B10448AFF378
:100AE00000800123237010BD800200200000000060
:100AF0007CB8000808B5034B1BB103490348AFF3AA
:100B0000008008BD00000000840200207CB80008BE
:100B100008B5012208214FF0904003F0A8FA1420F4
:100B200002F0E6F8002208214FF0904003F09FFA0F
:100B3000022002F0DDF8012208214FF0904003F07E
:100B400096FA142002F0D4F808BD10B5044600222D
:100B500040214FF0904003F08AFA002210214FF01C
:100B6000904003F084FA204600F04EF90122102153
:100B70004FF0904003F07BFA10BD10B504460122FF
:100B800040214FF0904003F072FA002210214FF004
:100B9000904003F06CFA204600F036F90122102153
:100BA0004FF0904003F063FA10BDF8B507460D46CC
:100BB00016461C464420FFF7C8FFC7F3C700FFF7DF
:100BC000DCFFC6F3C700FFF7D8FF4520FFF7BDFFE6
:100BD000E8B2FFF7D2FF280AFFF7CFFFE0B2FFF736
:100BE000CCFF200AFFF7C9FFF8BD38B505460C4613
:100BF0004E20FFF7AAFFE8B2FFF7BFFF4F20FFF735
:100C0000A4FFE0B2FFF7B9FF200AFFF7B6FF38BD37
:100C100008B502E00A2002F06BF820214FF0904066
:100C200003F01EFA0028F5D10A2002F061F808BD91
:100C300038B505463220FFF788FF002404E0285D20
:100C4000FFF79BFF0134E4B2982CF8D9FFF7E0FFDF
:100C500038BD10B50446FFF7EBFF3F20FFF775FFE7
:100C600094F89900FFF789FF0320FFF76EFF94F8CF
:100C70009A00FFF782FF0420FFF767FF94F89B00BC
:100C8000FFF77BFF94F89C00FFF777FF94F89D0037
:100C9000FFF773FF2C20FFF758FF94F89E00FFF733
:100CA0006CFF10BD08B52220FFF74FFFC720FFF7EC
:100CB00064FF2020FFF749FFFFF7AAFF08BD0000EF
:100CC00008B500220221244803F0D1F9642002F083
:100CD0000FF8FFF71DFF642002F00AF8FFF798FFF6
:100CE0001220FFF732FFFFF793FF0120FFF72DFFE0
:100CF000F920FFF742FF0020FFF73FFF0020FFF73A
:100D00003CFF1120FFF721FF0320FFF736FFF923F7
:100D1000792200210846FFF748FF00210846FFF727
:100D200064FF3C20FFF711FF0520FFF726FF21207D
:100D3000FFF70BFF0020FFF720FF8020FFF71DFFCC
:100D40001820FFF702FF8020FFF717FFFFF760FF73
:100D50000248FFF77EFF08BD0004004800000020A5
:100D600070B505462420FFF7F0FE002601E00136AD
:100D7000B6B2F92E0AD800240F2CF8D804EB0613CB
:100D8000E85CFFF7FAFE0134A4B2F5E72620FFF78E
:100D9000DCFE00260AE004EB0613E85CFFF7EDFE3C
:100DA0000134A4B20F2CF6D90136B6B2F92E01D80F
:100DB0000024F7E7FFF776FF70BD08B51020FFF7B6
:100DC000C4FE0120FFF7D9FE642001F091FF08BDA9
:100DD00008B5002240214FF0904003F048F900226E
:100DE00010214FF0904003F042F901220221054802
:100DF00003F03DF9002208214FF0904003F037F94D
:100E000008BD00BF0004004800B583B08DF807009E
:100E10004FF47A7301220DF10701034805F052FDEA
:100E200003B05DF804FB00BF5C03002030B4124C3B
:100E300000252560206021816281BDF80800A08125
:100E40000220E08211F0070F0DD1CC080A4844823D
:100E50008282C3810024048243B1B42B06D0064BA6
:100E60009A80D98005E0CC080134EFE7024B9980E5
:100E7000DA8030BC704700BF9C020020014B186034
:100E8000704700BF9C020020034630B15A2804D0AE
:100E9000B42802D0B0F5877F01D1014AD3817047D1
:100EA0009C020020584B9B888342C0F0AB80564B7D
:100EB000DB888B42C0F0A68010B4534BDB89B42B87
:100EC0001DD011D843B15A2B3BD14F4B1B895B1A14
:100ED0009BB2013B014698B24B4B1B8A032B30D887
:100EE000DFE803F01F193239B3F5877F29D1464B6C
:100EF0005B891B1A9BB2013B084699B2ECE7424C56
:100F000023891B1A9BB2013B98B263895B1A9BB27F
:100F1000013B99B2E0E73C4B1B891B1A9BB2013B9A
:100F200098B2394B1B8983420BD3374B5B898B4279
:100F300007D3354BDB8A022B19D0042B30D0072B7B
:100F400048D05DF8044B70472F4B5B895B1A9BB20E
:100F5000013B99B2E5E72C4C23891B1A9BB2013B5C
:100F600098B263895B1A9BB2013B99B2D9E7C0F38F
:100F7000CF03254CB4F812C00CFB01332468E15CAC
:100F80003AB900F007006FF0800202411140E154CD
:100F9000D7E700F00700802202411143E154D0E777
:100FA000C0F38F04184BB3F812C00CFB014102F0E0
:100FB00003021C6814F801C000F0030040006FF049
:100FC000C003034103EA0C035BB2920102411343E5
:100FD0006354B6E7C0F34F040B4BB3F812C00CFBDD
:100FE00001411C6814F801C000F0010080006FF09E
:100FF000F003034103EA0C035BB212010241134305
:1010000063549EE7704700BF9C0200202F4BDB8A91
:10101000022B1AD010B5042B3AD0072B53D010BD99
:1010200002FB0C3229490968885401339BB2274AD4
:10103000528A9A42F4D80CF1010C1FFA8CFC234B13
:101040009B8A634504D90023F1E74FF0000CF6E7D3
:10105000704703FB0E1C42B2130143EA82135BB2DA
:1010600043EA82035BB2194C24681A4304F80C204B
:10107000013189B2154B5B8A8B42EAD80EF1010E21
:101080001FFA8EFE114B9B8A7345C8D90021F1E7E8
:101090004FF0000EF6E70CF1010C1FFA8CFC0B4B25
:1010A0009B8A6345BBD90022084B5B8A9342F2D9E5
:1010B00003FB0C2143B2054C246843EA0313635439
:1010C000013292B2F0E74FF0000CE8E79C020020FA
:1010D0002DE9F84F1D462D4B9B88834254D306467D
:1010E0000F469046294BDB888B424DD39DF8283024
:1010F000012B2AD04FF0000941E0013424B2A2466E
:101100004FEA450909F1FF394C453DDA00231A46FB
:101110004B45F2DA06EB0A01491B0029EDDB3A44A4
:10112000521B002AE9DB301980B21FFA83FB0BEB5C
:10113000070189B2491B401B424689B280B2FFF7C2
:10114000B1FE0BF101031BB2E1E70024D7E706EB88
:10115000090080B21FFA8CF4E11989B20139013813
:10116000424689B280B2FFF79DFE04F1010C0FFAEE
:101170008CFCAC45EBDB09F101090FFA89F9A945B3
:1011800002DA4FF0000CF4E7BDE8F88F9C02002073
:101190002DE9F04F8BB005460E4606921C4605938E
:1011A000BDF8501003919DF854B09DF858A0374BEE
:1011B0009B88834266D31046344AD288B24261D3B8
:1011C00083425FD3A2425DD3A0EB0509B9F1000FC2
:1011D000B8BFC9F10009A31B83EAE371A1EBE37176
:1011E00007914B42049385420BD201230893059B40
:1011F0009E420AD201230993079BA9EB030800240E
:1012000026E04FF0FF330893F1E74FF0FF330993E7
:10121000F2E7012300935B46039A31462846FFF725
:1012200057FF049BB3EB480F08DC069B9D4229D077
:10123000079BA8EB0308089B1D44ADB2B9EB480F10
:1012400006DB059B9E421DD0C844099B1E44B6B2D6
:101250000134E4B2BAF1010FDBD10D4BA3FB04233F
:1012600023F0010707EB5307E71B17F0FF07D0D167
:10127000012300935B46FF2231462846FFF728FFF3
:101280003C46CEE70BB0BDE8F08F00BF9C020020CB
:10129000ABAAAAAA2DE9F84F1F46BDF828B0BDF8A1
:1012A0002C80304B9B88834259D381468A462D4BF4
:1012B000DB888B4253D3203AFB8802FB03F3B988C7
:1012C00011F0070218BF012202EBD1023D6802FBB8
:1012D000035500263EE02A7804F0070180230B41E5
:1012E0001A4212D006EB0A0104EB09005A4689B2F1
:1012F00080B2FFF7D7FD08E006EB0A0104EB090016
:10130000424689B280B2FFF7CDFD04F00703072BF8
:1013100018D00134A4B2BB88A34215D9B8F1FF0F8D
:10132000D9D02A7804F0070180230B411A42E3D078
:1013300006EB0A0104EB09005A4689B280B2FFF7B6
:10134000B1FDE2E70135E4E713F0070F00D0013506
:101350000136B6B2FB88B34201D90024DBE7BDE811
:10136000F88F00BF9C0200202DE9F04F83B01C468F
:10137000BDF830A0BDF834B0194B9B8883422BD305
:10138000804689461646164BDB888B4224D30F468F
:10139000054614E0E3883B441149C9888B4201DDCE
:1013A0004F464546CDF804A0CDF800B02346394657
:1013B0002846FFF76FFF0136A3882B449DB2327891
:1013C00052B1A3882B44064989888B42E2DDE38829
:1013D0003B449FB24546DDE703B0BDE8F08F00BF58
:1013E0009C0200202DE9F04F8BB006460F461546B3
:1013F0009846BDF850A0BDF854905E4A07AC07CAA5
:1014000003C422809C880395EA785B4DA5FB0212F9
:101410000AA901EBD202CDF804A0CDF8009012F891
:101420000C2C39463046FFF735FF04EB060B1FFA4C
:101430008BFB039AD378A5FB0312D20802EB82023E
:10144000A3EB42030AA951FA83F2CDF804A0CDF828
:101450000090434612F80C2C39465846FFF71AFF05
:10146000A30804930BEB94004FEA540B1BFA80F093
:10147000CDF804A0CDF8009043462E22394680B224
:10148000FFF708FF06EB4400039A9278A5FB0232AF
:101490000DF1280C0CEBD2021BFA80F0CDF804A061
:1014A000CDF80090434612F80C2C394680B2FFF775
:1014B000F1FE04EB44030593F018039A9378A5FB1F
:1014C0000312D20802EB8202A3EB42030DF1280CB7
:1014D0005CFA83F21BFA80F0CDF804A0CDF80090FE
:1014E000434612F80C2C394680B2FFF7D3FE06EBC8
:1014F00084001BFA80F080B20499401ACDF804A051
:10150000CDF8009043462E22394680B2FFF7C2FE46
:10151000039A1288A5FB02320AA901EBD20204EB5E
:1015200084043019CDF804A0CDF80090434612F899
:101530000C2C394680B2FFF7ADFE039A1388A5FB49
:101540000325ED0805EB8505A3EB45030AAA12FA6E
:1015500083F2059B06EB4300CDF804A0CDF8009084
:10156000434612F80C2C394680B2FFF793FE0BB0BD
:10157000BDE8F08FA4B80008CDCCCCCC2DE9F04F5D
:1015800089B006460F4691469846BDF848B0BDF86A
:101590004CA03C4A05AC07CA03C422809C8899F839
:1015A0000420394DA5FB021208A901EBD202CDF8A7
:1015B00004B0CDF800A012F80C2C39463046FFF7E5
:1015C00069FE0396A619B6B299F80430A5FB03127A
:1015D000D20802EB8202A3EB420308AA52FA83F27A
:1015E000CDF804B0CDF800A0434612F80C2C3946D3
:1015F0003046FFF74FFE06EB9400660816FA80F0BF
:10160000CDF804B0CDF800A043463A22394680B266
:10161000FFF740FE039B03EB440099F80520A5FB70
:10162000023208A901EBD20216FA80F0CDF804B01C
:10163000CDF800A0434612F80C2C394680B2FFF7D3
:1016400029FE04EB4404039B1C4499F80530A5FBD8
:101650000325ED0805EB8505A3EB450308AA52FA1F
:1016600083F216FA84F0CDF804B0CDF800A043461A
:1016700012F80C2C394680B2FFF70CFE09B0BDE819
:10168000F08F00BFA4B80008CDCCCCCC2DE9F0473A
:101690008246894617461E46DDF82080002512E066
:1016A0000134E4B2BC420CD206FB04835B5D002B28
:1016B000F6D1002205EB090104EB0A00FFF7F2FB6B
:1016C000EEE70135EDB2B54201D20024EAE7BDE80C
:1016D000F087F8B504468188006802F0C1FCB0FAD2
:1016E00080F56D09A779AF420CBF0126002601D015
:1016F000237C3BB1AF4217D0237C0BB9AF4225D03E
:101700003046F8BD01F0EEFAA368C01A6428F1D99A
:1017100001232374637C0BB90123E37400236374F6
:1017200001F0E0FAA060E5E7237C002BE4D001F0B3
:10173000D9FAA368C01A6428DED90023237401F003
:10174000D1FAA06001F0CEFAE060D5E701F0CAFA64
:10175000E368C01AC728D3D9637C002BD0D10123FA
:10176000637401F0BFFAE060CAE70346C07C00B9C9
:1017700070470022DA74FBE700B5864600200B466E
:101780000139C9B2A3B11EF801CB082303E04FEA27
:101790005C0C013BDBB2002BF1D080EA0C0212F0B2
:1017A000010F4FEA5000F2D080F08C00C0B2EEE79B
:1017B0005DF804FBF0B583B0019143781BB90127B4
:1017C000384603B0F0BD054616469DF80410406843
:1017D00001F0D6F89DF80570B7B93C461CE0FF2132
:1017E000686801F0CDF830550134E4B2A742F6D86C
:1017F000791EC9B23046FFF7BFFF3E4416F8013CE0
:1018000083420ED10027DBE70024EFE7315D6868F3
:1018100001F0B6F80134E4B29DF80630A342F5D8E1
:10182000CEE70127CCE710B504460121406801F05E
:1018300089F803E00121606801F084F8FF28F9D1FC
:1018400010BD70B582B006460C460DF1070244216A
:10185000FFF7B0FF0546012C04D0022C06D0284625
:1018600002B070BD3046FFF7DEFFF6E7337C5F2B3A
:101870000BD005D81F2B0DD03F2B0DD1BC2006E07F
:101880007F2B0BD140F2EE2001E040F2771001F007
:101890002FFAE4E75E20FAE70020F8E70020F6E7F9
:1018A00010B584B0044601AA00216FF0410363F330
:1018B0000701092363F30F21FFF77CFFD0BB9DF8DD
:1018C0000630E3739DF80730A3739DF80810217468
:1018D0009DF805309DF8042042EA0322134612F4D5
:1018E000784201D05B429BB25F2925D00AD81F29DC
:1018F0000FD03F2927D123F003035B055B0D07EED3
:10190000903A0AE07F291ED1C3F30A0307EE903A0A
:1019100003E003F4FF6307EE903AF8EE677A9FED79
:101920000C7A67EE877AC4ED057A1AB1F1EE677A20
:10193000C4ED057A04B010BD23F001035B055B0D17
:1019400007EE903AE9E7C3F30A0307EE903AE4E7BB
:101950000000803D38B505460C460A4600214E235E
:1019600063F30701032363F31741FFF723FF28B94C
:101970002378EB736378AB73A3782B7438BD03784B
:101980000BB90120704710B50446406801F017F804
:1019900010B90123637010BD002363700120FAE7C2
:1019A00010B582B004466A460021332363F3070171
:1019B000082363F30F21FFF7FDFE60B9034608E03B
:1019C0005A1C03F10901694411F8081C23441972D7
:1019D000D3B2052BF4D902B010BD00B583B00DF120
:1019E0000702CC21FFF7E6FE03B05DF804FB0023FD
:1019F0004370416001230370704700002DE9F041FE
:101A00008AB0002405940694079408940994454BE1
:101A1000DA6C42F00402DA64DA6C02F00402019239
:101A2000019ADA6C42F00102DA64DA6C02F0010227
:101A30000292029ADA6C42F00202DA64DA6C02F084
:101A400002020392039ADA6C42F08002DA64DB6CE1
:101A500003F080030493049B224658214FF09040EA
:101A600002F005FB304F22460221384602F0FFFA11
:101A7000012505954FF488130693079405A94FF0A7
:101A8000904002F08FF94FF00808CDF814800695C9
:101A90000795089405A94FF0904002F083F9502370
:101AA000059306950794089405A94FF0904002F01D
:101AB00079F94FF4487305930694079405A94FF0FC
:101AC000904002F06FF9F1230593032606960794E0
:101AD00005A9384602F066F9022305930695079496
:101AE000089405A9384602F05DF94FF404430593C4
:101AF0000696079405A94FF0904002F053F9CDF8EF
:101B000014800696079405A9084802F04BF922466E
:101B10002146062001F0E0FF062001F0EDFF0AB0AB
:101B2000BDE8F0810010024000040048001C00489D
:101B300000B583B00A4B9A6C42F001029A649B6C28
:101B400003F001030193019B002211460B2001F0D9
:101B5000C3FF0B2001F0D0FF03B05DF804FB00BF12
:101B60000010024010B491420CD0401A019CA4EB2A
:101B7000030C0CFB00F0521A90FBF2F018445DF8D5
:101B8000044B7047019A134403EBD3735810F6E7E4
:101B90002DE9F04F99B0B54DFF2400945A23FA2255
:101BA0007A212846FFF742F92846FFF767F92046D1
:101BB000FFF72CFA002000F0ADFF05B2002000F086
:101BC000A9FF07B2002406E0204600F0A3FF05B2FB
:101BD0000AE00134E4B201F035F884420ED2204626
:101BE00000F098FFA842EFDD204600F093FFB842D6
:101BF000EFDB204600F08EFF07B2EAE7BD421AD0C5
:101C0000002D1DDB3E46A846A7EB050CBCF5C87FA2
:101C100040DABCF1FA0F59DABCF1630F30DCBCF1E9
:101C2000320F63DABCF1180F20DCBCF1000F60DB6F
:101C30004FF005094CE00A3D2DB20A373FB2DFE70D
:101C4000002FDFDD162300936E233A46294600203D
:101C5000FFF788FF81B200230293012201920093D3
:101C60000B46FA220A20FFF793FACBE7ACF11903EF
:101C7000182B02D84FF00A092AE04FF4FA6927E03E
:101C8000ACF16403952B02D84FF0320920E04FF4F9
:101C9000FA691DE0BCF5FA6F0DDABCF5487F2BDA66
:101CA000ACF5C873B3F5C87F02D24FF0C8090FE096
:101CB0004FF4FA690CE0ACF5FA63B3F5FA6F02D8A9
:101CC0004FF47A7904E04FF4FA6901E04FF06409C7
:101CD000002D14DB09F1FF344444CA4694FBF9F4A7
:101CE00014FB09F424B2CDF810C038E04FF0140909
:101CF000EEE74FF4FA69EBE74FF4FA79E8E7C9F158
:101D00000104E9E74FF0000B32E0594B83FB042359
:101D1000E217C2EB631212B2564906A807F00EFD95
:101D20005FFA80FB0020FFF7AFF8582300930223EF
:101D3000324641462846FFF715FFA0EB4B0080B224
:101D4000083000210191FF2300934B4B06AA80B27B
:101D5000FFF70AFB5A20FFF797F84C4424B22546B8
:101D600006EB0A039C4276DA002CCBD04FF0010B35
:101D7000A74209DA162300936E23324641462846CD
:101D8000FFF7F0FE152866DD162300936E2332461A
:101D900041462846FFF7E6FE81B2CDF808B00123A0
:101DA0000193002300930B46FA220A20FFF7F0F973
:101DB0002F4A82FB0432E317C3EB6213642202FB57
:101DC00013431BB2002BA0D02C4981FB0421E21746
:101DD000C2EBA10202EB8202A4EB420212B212B9E0
:101DE000049A632A1DDD254981FB0421E217C2EB19
:101DF000610202EB8202A21A12B2002AADD1049A49
:101E0000092AAADC1A4981FB0421E217C2EB6112FC
:101E1000DBB2D2B21A4906A807F090FC5FFA80FB49
:101E200080E76B1D154A82FB0312DB17C3EBA2038D
:101E30009BB2144AA2FB0312D10801EB8101A3EB70
:101E40004103DBB2C2F3C7020D4906A807F076FCD6
:101E50005FFA80FB66E705210B4804F098FB834698
:101E60000027CDF814A0B24639E000BF00000010F2
:101E70001F85EB51B0B80008B800002067666666A1
:101E8000B4B80008CDCCCCCCC0030020384600F05C
:101E900041FE162600966E2352464146FFF762FE2B
:101EA00004907C1CE7B2384600F034FE00966E23A6
:101EB00052464146FFF756FE04EB840404F10A0241
:101EC00005EB85050A35002102910123019300915C
:101ED00083B292B2BDF81010A8B2FFF759F93D468F
:101EE00000F0B0FE8742D1D3DDF814A000F0AAFEC6
:101EF00044B201E0083C64B2002C2BDD00F0A2FEED
:101F00008442F7D004EB8405ADB20A35ADB20123AB
:101F1000029301930026009670232A461421284636
:101F2000FFF736F900F08EFE001B01384FF4E16335
:101F300003FB10B06A4A02446A4906A807F0FEFB98
:101F40000196FF230093684B06AA72212846FFF7EB
:101F50000BFACFE7A9F10A039BB2592B40F2998003
:101F6000B9F1090F00F2A080604AA2FB0992AAEB26
:101F7000521352095E4915A807F0E0FB00200190BA
:101F8000FF2300935B4B15AA0146FFF7EDF95A4B6F
:101F90001888FEF7B7FA02460B464FA1D1E90001B7
:101FA000FEF744FCFEF72AFD07EE900A534B18603B
:101FB000B0EE027AF4EEC77AF1EE10FA7DD4002486
:101FC00002940125019500947023FA2219460A20F3
:101FD000FFF7DEF802940195009470230A22142181
:101FE0001046FFF7D5F8109411941294139414949A
:101FF0000F94434D224610A9284604F0ADF922461D
:102000000FA9284604F0CEF99DF83E308DF8373000
:102010009DF83D308DF836309DF83F30ADF83430C6
:10202000384E0194FF27009733460DAA2146AF2072
:10203000FFF7D8F900F006FE0138C0B200F06AFDE3
:10204000054600F0FFFD0138C0B200F063FD274AED
:10205000A2FB00135B094FF0640808FB1303A2FB0B
:1020600005129BB2C2F34F1227490AA807F066FB7C
:102070000194009733460AAA21465520FFF774F9C8
:102080002248FEF76DFE404600F032FE19B0BDE872
:10209000F08F164AA2FB0992AAEB521352091C496F
:1020A00015A807F04BFB69E7104BA3FB0932520957
:1020B000184915A807F042FB60E70020FEF7E4FE90
:1020C000154B00931A2310225F216B20FFF7DEFAD5
:1020D0005A20FEF7D9FE72E79999999919E0B24012
:1020E00000B54998B0B80008B80000201F85EB5132
:1020F000C8B80008A0000020CC020020D0020020B8
:10210000C0030020A8000020E4B800080000001070
:10211000BCB80008D8B8000820E7000810B586B0A1
:102120000446FEF74AFEFEF753FE164A136E23F4EA
:1021300080531366144804F0AFFB0023019302930D
:10214000039304930593FA2301930323029301A9B4
:102150004FF0904001F026FE00F0DEFD4FF0FF3022
:1021600001F0CEFC34B103F025F9012003F02AF987
:1021700006B010BD002304220A21044804F030F9FF
:10218000F1E700BF001002405C030020C003002004
:1021900010B582B0114C12492046FFF728FC2046AA
:1021A000FFF7EDFB2046FFF7FBFB2046FFF778FB30
:1021B000E37B8DF80430A37B8DF805307F238DF809
:1021C00006302046FFF7DBFB2046FFF706FC01A99F
:1021D0002046FFF7BFFB02B010BD00BFB4020020D5
:1021E000D402002010B50B4C2046FFF7C8FB204658
:1021F000FFF7F3FB01212046FFF723FB2046FFF703
:10220000BEFB2046FFF7E9FB2046FFF749FB94EDB4
:10221000050A10BDB40200202DE9F043A3B000264A
:102220001D961E961F96209621964FF090431D9363
:102230000122ADF87820189619961A961B961C96CE
:1022400018934FF48072ADF8642013961496159687
:102250001696179613934FF40073ADF850308F4BCA
:1022600011938DF848608E4B93E803000F908DF822
:1022700040108C4B0D938DF8386000F033FD044610
:102280001DA8FFF726FA13A8FFF723FA18A8FFF7EF
:1022900020FA1DA8FFF769FA18A8FFF766FA13A835
:1022A000FFF763FA354619E005EB4503C3EBC303BB
:1022B0005B009BB2A3F1080292B2263B98B20023C6
:1022C000029302210191009354231946FEF760FF07
:1022D0005AE00135EDB2052D00F0AF80002E40F040
:1022E000AE80DFF8C481FF2700975A23FA227A21B3
:1022F0004046FEF79BFD4046FEF7C0FD3846FEF720
:1023000085FE9DF846308DF817309DF845308DF8E4
:1023100016309DF94430ADF814309DF847308DF8F3
:1023200018309DF848308DF81930DFF884814FF06F
:102330000009CDF804900097434605AA20214020CB
:10234000FFF750F8CDF804900097434605AA4021C6
:102350005620FFF713F9022DA6D8C5EBC523C5EB10
:102360008303C5EB83035B009BB203F1B40292B21B
:10237000963398B2CDF8089002210191CDF80090E3
:1023800034231946FEF704FF4748FEF7E9FC3746B9
:102390000BE000F0A7FC0446474600F0A3FC001B3E
:1023A000B0F57A7F01D9002F98D11DA8FFF791F9D8
:1023B00013A8FFF78EF918A8FFF78BF91DA8FFF7F0
:1023C000D4F9002885D113A8FFF7CFF98046C0B112
:1023D00005F188030DEB030212F9443C01335BB2B3
:1023E00002F8443C12F84C2C934206DD05F18803B8
:1023F0006B4413F9542C03F8442C00F073FC04468E
:10240000474618A8FFF7B1F980460028C5D005F166
:1024100088030DEB030212F9443C013B5BB202F866
:10242000443C12F8542C9342B3DA05F188036B4410
:1024300013F94C2C03F8442CABE706464EE7002476
:10244000089409940A940B940C9407949DF84730CF
:102450008DF820309DF848308DF821309DF84430BB
:102460008DF81F309DF845308DF81D309DF84630B1
:102470008DF81E3001238DF81C304FF480330B9300
:102480000A4D224607A9284603F00BFF224608A959
:10249000284603F0A0FE23B0BDE8F0831903180C12
:1024A000ECB800080001010000000010C00300208B
:1024B000B000002072B6FEE708B51148114B03606A
:1024C0004FF4827343604FF4004383604FF4E06342
:1024D000C3600023036143614FF4007282611822DC
:1024E000C2610362436283620722C26203630823FC
:1024F000436304F062F900B908BDFFF7DBFF00BFDA
:102500005C0300200030014030B587B00025019504
:1025100002950395049505950095244C06212046C7
:1025200004F035F8224B2360A5607F23E360FF238E
:1025300023616561A561E5614FF0804323626562B7
:10254000204603F0E1FD40BB00238DF804308DF8F8
:1025500005308DF806304FF4803204920593012245
:1025600001A9124803F037FEC8B901228DF80020F6
:102570008DF801208DF8022025238DF8033069465F
:102580000A4803F08EFE60B9002304221E2107488A
:1025900003F026FF38B907B030BDFFF78BFFFFF718
:1025A00089FFFFF787FFFFF785FF00BFC00300200B
:1025B0000028004008B50B480B4B03604FF4E13393
:1025C000436000238360C36003610C224261836126
:1025D000C3610362436204F0FAFD00B908BDFFF76E
:1025E00069FF00BFD40200200044004000B58BB05A
:1025F0000023079308930993019302930393049391
:10260000059306931C481D4A026043608360C360C3
:10261000036104224261037601224276C26180F89E
:1026200020308362C36280F83030436380F83830F2
:1026300000F0AEFBD0B90023079307A90E4801F0C4
:1026400059F9A8B90E4B0193062302930023039373
:102650007F2204920422059206930DEB02010648A4
:1026600000F030FE30B90BB05DF804FBFFF722FF3D
:10267000FFF720FFFFF71EFF340400200000045086
:102680000100008000B597B04422002105A807F0A2
:1026900077F80023009301930293039304934FF47C
:1026A000007002F037FE38BB02F024FE154AD2F863
:1026B000903023F01803C2F890303423059301239F
:1026C00007930F930C9300230D9380220E92109387
:1026D00005A802F037FF88B90F230093002101916C
:1026E000029103910491684603F09AFA40B903F00D
:1026F0009FFC17B05DF804FBFFF7DCFEFFF7DAFE86
:10270000FFF7D8FE0010024008B5074803F0DAFED4
:1027100000F009FBFFF7B6FFFFF770F9FFF7CCFEFB
:10272000FEF7CEFA08BD00BFC003002008B52DEDAE
:10273000028B00F0B5FAFFF7A5FFFFF75FF9FFF78F
:10274000F7F9FFF7B9FEFFF7DFFEFFF733FFFFF7FB
:102750004DFF05F003FD01224249434801F040F8D6
:10276000FFF716FDFEF7ACFA00F054F900F01CFA82
:10277000002873D00120FFF7D1FCFFF7C5FFFFF75A
:1027800031FD9FED3A8A60EE087AFCEEE77A17EEAB
:10279000903A98B200F04CF9FFF724FD60EE087A09
:1027A000FCEEE77A17EE903A98B200F041F9FFF7A5
:1027B00019FD60EE087AFCEEE77A17EE903A98B2CF
:1027C00000F036F9FFF70EFD60EE087AFCEEE77ACE
:1027D00017EE903A98B200F02BF900F0ABF9FFF742
:1027E000D7F905F0AFFC0028FBD1FFF797FCFFF706
:1027F0008BFF00F0D9F9FFF7F5FC9FED1C8A20EE66
:10280000080ABCEEC00A10EE103A98B200F010F9B7
:10281000FFF7E8FC20EE080ABCEEC00A10EE103A02
:1028200098B200F005F9FFF7DDFC20EE080ABCEED7
:10283000C00A10EE103A98B200F0FAF8FFF7D2FC96
:1028400020EE080ABCEEC00A10EE103A98B200F072
:10285000EFF8FFF79DF900F06DF9C2E7FFF7DCFC38
:102860008DE700BFCC020020340400200000C842E5
:1028700010B5044641600268304B9A4230D003F0F4
:1028800099FA0246E369B3F5004F2DD00021901864
:102890004941801841F10001C90041EA5071C0006E
:1028A000801863684FEA83024FEA937341F1000195
:1028B000FEF7F4F8224AA2FB00314909642303FB26
:1028C00011031B013233A2FB03235B0903F0F00267
:1028D00002EB011203F00F0321681344CB6010BD1B
:1028E00003F068FA0246CDE70023901843EB03019A
:1028F000801841F10001C90041EA5071C000801800
:1029000041F10001626892185B41FEF7C7F80C4A7A
:10291000A2FB00314909642303FB1103DB003233BE
:10292000A2FB03235B095A0002F4F87202EB0112C6
:1029300003F0070321681344CB60D0E7003801405F
:102940001F85EB5110B582B00446FF238DF8073088
:1029500000238DF8063009B98DF807300A230122CB
:102960000DF10701204604F0DFFA0A2301220DF1E0
:102970000601204604F03CFB9DF8060002B010BDA5
:102980002DE9F04107460E460024254606E00123C6
:1029900003FA08F32B43DDB20134E4B2072C0BD861
:1029A000A04646FA04F101F001013846FFF7CAFFDC
:1029B000FF28ECD00023EBE72846BDE8F08110B5F6
:1029C00082B00446F0238DF8073000238DF80630DE
:1029D0004FF41651FFF74CFF0A2301220DF10701B6
:1029E000204604F0A1FA0A2301220DF10601204637
:1029F00004F0FEFA4FF4E1312046FFF739FF9DF86D
:102A000006209DF807309A4202D0002002B010BD87
:102A10000120FBE7054B002283F8602083F8632048
:102A2000012183F8621083F8612070479C04002024
:102A300030B591B0344A92F8603022F81300013377
:102A4000DBB282F8603092F86310013182F86310D3
:102A50002F2B05D91346002283F8622083F86020CB
:102A6000294B93F862303BB9274B93F8602083F8E9
:102A700061202F2283F8632000240B940C940D9482
:102A80000E940F940A94214D22460BA9284603F078
:102A900063FC22460AA9284603F084FC9DF82B30EB
:102AA000643306939DF82930013B05939DF82A3045
:102AB00004939DF82C3003939DF82D3002939DF8DC
:102AC0002E3001930123099301A806F035FF044637
:102AD00002F010FC0E4B1B7863B10C4C0521204614
:102AE00003F055FD00F5E1620521204603F040FDAD
:102AF00011B030BD22460521284603F039FD044BB4
:102B000001221A70E9E700BF9C040020C0030020E6
:102B100098040020064B93F861301844C0B22F2867
:102B200001D93038C0B2024B33F81000704700BFF3
:102B30009C04002010B502F0DDFB184A062118485D
:102B400003F016FD00240EE06300164931F824203E
:102B5000013331F8133043EA024204F1080110480E
:102B600003F006FD0134172CEEDD0E4A92F86310D7
:102B700092F861301B0443EA016392F8601043EA63
:102B8000012392F8622032B101221A43072104483E
:102B900003F0EEFC10BD0022F7E700BFFF55FFAACF
:102BA000C00300209C0400202DE9F04106212248AA
:102BB00003F0EDFC214B98423BD1002413E004F1DB
:102BC00008081D4F4146384603F0E1FC6500000C43
:102BD0001B4E26F815004146384603F0D8FC013557
:102BE00026F815000134172CE9DD134D072128467E
:102BF00003F0CDFC000E124C84F863000721284638
:102C000003F0C5FCC0F3074084F8610007212846A3
:102C100003F0BDFCC0F3072084F8600007212846BC
:102C200003F0B5FC00F0010084F862000120BDE86B
:102C3000F0810020FBE700BFC0030020FF55FFAA82
:102C40009C040020014B93F8630070479C04002013
:102C5000104B1B780BB90120704710B504464FF498
:102C60007A70B0FBF3F30C4A1068B0FBF3F000F09D
:102C70004BFF68B90F2C01D901200AE00022214640
:102C80004FF0FF3000F028FF044B1C60002000E0F4
:102C9000012010BDC0000020CC000020C400002096
:102CA00010B5094A136843F480731360032000F0E1
:102CB00001FF0F20FFF7CCFF10B10124204610BD0B
:102CC000044601F0E9F9F9E700200240034B1B78C4
:102CD000034A11680B441360704700BFC000002016
:102CE00000050020014B1868704700BF0005002058
:102CF00038B50446FFF7F6FF0546B4F1FF3F02D0B2
:102D0000044B1B781C44FFF7EDFF401BA042FAD395
:102D100038BD00BFC00000204FF0E022136923F04F
:102D20000203136170474FF0E022136943F002037E
:102D30001361704710B430300B0A9B0003F00C0392
:102D4000C45801F01F014FF01F0C0CFA01FC24EADB
:102D50000C0CC2F384628A404CEA0202C2505DF855
:102D6000044B704710B414304B0E9B0003F0040367
:102D7000C458C1F304514FF0070C0CFA01FC24EACB
:102D80000C0C8A404CEA0202C2505DF8044B7047BA
:102D900030B583B000230193002800F0DB800446A7
:102DA000436D13B323689A6812F0005F05D09A68E8
:102DB00022F0204222F03F029A602268936813F0CA
:102DC000805F1FD1936823F0104323F03F0343F04B
:102DD00080539360604B1B689B09604AA2FB0323EE
:102DE0009B0901335B00019309E001F06DF90023B9
:102DF000A36584F85030D5E7019B013B0193019B0B
:102E0000002BF9D12268936813F0805F7BD1636D4A
:102E100043F010036365A36D43F00103A365012034
:102E2000936813F0040300D00123616D11F0100FBB
:102E300040F08980002B40F08680636D23F481731D
:102E400043F002036365936813F0010F14D1444B00
:102E50009A6812F0010200D00122424B9B6813F0E5
:102E6000010300D00123134306D163683E498A68F9
:102E700022F47C1213438B60627E636B43EA42331D
:102E8000E2681343A268134394F8202043EA024304
:102E9000012A3AD0A26A22B102F47072E16A0A43AE
:102EA00013432168CD68314A2A401A43CA60226818
:102EB000936813F0080300D00123ABB9237E94F884
:102EC0003010490041EA8331D36823F4804323F072
:102ED00002030B43D36094F83830012B1AD02268D8
:102EE000136923F0010313612369012B22D02268A7
:102EF000136B23F00F031363636D23F0030343F09D
:102F00000103636524E000208AE7626A013A43EA2C
:102F10004243BFE721680B696FF38A03E26B256CBC
:102F20002A43656C2A43A56C2A43134343F00103EB
:102F30000B61D9E721680B6B23F00F03E269013ABB
:102F400013430B63D8E7636D43F0100363650120FF
:102F500003B030BD0120FBE7CC000020632D3E050F
:102F600000000450000104500003045007C0F0FFAB
:102F70007047704708B5806AFFF7FBFF08BD7047D0
:102F800070470000F8B5044603681F685D689A4BF7
:102F90009E6806F01F0617F0020F10D015F0020F02
:102FA0000DD0436D13F0100F03D1436D43F4006354
:102FB0004365204600F09CFC236802221A6017F04B
:102FC000040F02D015F0040F05D117F0080F4DD0F3
:102FD00015F0080F4AD0636D13F0100F03D1636D25
:102FE00043F4007363652368DA6812F4406F37D1E5
:102FF000824A934227D01A46934207D0092E25D8F9
:1030000040F22121F14011F0010F1FD0DA6812F4D3
:10301000005F25D11A6812F0080F21D09A6812F0CB
:10302000040F15D15A6822F00C025A60636D23F424
:1030300080736365636D13F4805F11D1636D43F03A
:10304000010363650CE0A2F58072D5E7D268DEE784
:10305000636D43F010036365A36D43F00103A36543
:103060002046FFF785FF23680C221A6017F0200F17
:1030700002D015F0200F05D117F0400F5CD015F0ED
:10308000400F59D0636D13F0100F03D1636D43F4FB
:10309000005363652368DA6C12F0C00F12D101216E
:1030A000DA6812F4406F0FD10120544A93420DD0D8
:1030B0001A4693420DD066B1062E0AD0072E08D0CC
:1030C000D26807E00021EBE70020EEE7A2F580726E
:1030D000EFE7DA6851B312F0007F03D030B312F497
:1030E000005F23D1196811F0400F1FD012F4001FA8
:1030F0001CD19A6812F0080F10D15A6822F06002B1
:103100005A60636D23F480536365636D13F4807FAD
:103110000CD1636D43F00103636507E0636D43F019
:1031200010036365A36D43F00103A365204600F01F
:10313000DBFB236860221A6017F0800F02D015F0C5
:10314000800F2FD117F4807F02D015F4807F34D107
:1031500017F4007F02D015F4007F3AD117F0100F5A
:1031600019D015F0100F16D0636B33B1002E3CD080
:10317000214B9B6813F4604F0AD0636D43F4806366
:103180006365A36D43F00203A3652046FFF7F8FED5
:10319000236810221A6017F4806F02D015F4806F34
:1031A0002ED1F8BD636D43F4803363652046FFF78D
:1031B000E6FE236880221A60C4E7636D43F400339F
:1031C0006365204600F092FB23684FF480721A601A
:1031D000BEE7636D43F480236365204600F087FB00
:1031E00023684FF400721A60B8E72368DB6813F0B5
:1031F000010FCDD0C1E700BF00030450000104500F
:10320000636D43F480436365A36D43F00803A365D6
:1032100023684FF480621A60204600F066FBC0E726
:1032200008B50346806A426D12F0500F30D1436DED
:1032300043F40073436503681A6812F0080F14D052
:10324000DA6812F4406F20D1DB6813F4005F1CD100
:10325000436D23F480734365436D13F4805F14D191
:10326000436D43F0010343650FE0DB6813F0020F89
:103270000BD1436D23F480734365436D13F4805F7A
:1032800003D1436D43F001034365FFF771FE08BDB1
:10329000426D12F0100F04D1C26C526B1846904769
:1032A000F5E7FFF76DFEF2E708B5806A436D43F07E
:1032B00040034365836D43F004038365FFF760FEBD
:1032C00008BD0000F0B583B00023019390F85030A2
:1032D000012B00F00C8204460D46012380F850308B
:1032E0000068836813F0040F09D0636D43F0200376
:1032F00063650120002384F8503003B0F0BD4968B5
:10330000052907D80239032971D8DFE801F00272D4
:103310006B6D0C212A68FFF70DFD2068836813F0A0
:10332000040300D00123826812F0080200D00122B9
:1033300023BB1ABBAA68B2F1004F5CD02968FFF723
:1033400011FD2268536923F00043536169692268C3
:10335000D368C3F3C1035B0099402869042854D0A3
:103360002E68603252F82070A74B3B4006F0F846BA
:1033700031430B4343F0004342F820302268936806
:1033800013F0010F17D12B68E868D2F8B010C3F31F
:10339000120621EA060100F0180C9C4820FA0CF0F5
:1033A0000340C3F312030B43C2F8B030EA68984BF2
:1033B0009A4200F091802B68964A134200F0938164
:1033C000954A926802F0E07094498B4200F03D818A
:1033D00093498B4200F0608192498B4200F07081EA
:1033E000002087E7182195E74FF4807192E70621C6
:1033F00090E712218EE700222968FFF7B3FC2268CC
:10340000536943F000435361A0E7136E116EC1F39B
:1034100084612B68C3F3120078BBC3F384639942C1
:1034200033D021684B6E4A6EC2F384622B68C3F3BB
:10343000120078BBC3F384639A4233D021688B6E49
:103440008A6EC2F384622B68C3F3120078BBC3F3A5
:1034500084639A4233D02168CB6ECA6EC2F3846211
:103460002B68C3F3120078BBC3F384639A4285D1FF
:10347000CB6E23F00043CB6680E793FAA3F313B13E
:10348000B3FA83F3CBE72023C9E7136E23F000439D
:103490001366C6E793FAA3F313B1B3FA83F3CBE74A
:1034A0002023C9E74B6E23F000434B66C6E793FA2F
:1034B000A3F313B1B3FA83F3CBE72023C9E78B6EF1
:1034C00023F000438B66C6E793FAA3F313B1B3FA74
:1034D00083F3CBE72023C9E720682B68C3F31206E8
:1034E00026BB9A0E013202F01F02092A8CBF00226D
:1034F0000122002A52D046BB990E0131890601F003
:10350000F84176BB9F0E013707F01F070122BA4032
:103510001143AEBB9B0E013303F01F0303EB4303C8
:103520001B051943AA68FFF71DFC44E793FAA3F2B1
:103530004AB1B2FA82F2013202F01F02092A8CBFAC
:1035400000220122D5E72022F5E793FAA3F131B159
:10355000B1FA81F10131890601F0F841D1E720216A
:10356000F8E793FAA3F24AB1B2FA82F2013202F01A
:103570001F024FF0010C0CFA02F2C9E72022F5E716
:1035800093FAA3F343B1B3FA83F3013303F01F03B8
:1035900003EB43031B05C4E72023F6E7CEB9990EDE
:1035A0000131890601F0F841FEB99F0E013707F09D
:1035B0001F070122BA401143B6BB9B0E013303F033
:1035C0001F0303EB43031E3B1B0543F0007319432A
:1035D000A8E793FAA3F131B1B1FA81F1013189067B
:1035E00001F0F841E0E72021F8E793FAA3F24AB1AD
:1035F000B2FA82F2013202F01F024FF0010C0CFA13
:1036000002F2D8E72022F5E700F0FF03FFFF0700F2
:1036100000007F400000088000030450000052C7F3
:10362000000084CB0100008093FAA3F35BB1B3FAEE
:1036300083F3013303F01F0303EB43031E3B1B051E
:1036400043F00073C3E72023F3E712F4000F7FF485
:10365000BFAE2268274B9A4201D000204AE640F4D0
:10366000000325498A6822F0E07213438B60234BE4
:103670001B689B09224AA2FB03239B09013303EB2E
:1036800043039B00019302E0019B013B0193019BDB
:10369000002BF9D100202DE612F0807F7FF49CAE44
:1036A0002268144B9A4201D0002023E640F0807338
:1036B00011498A6822F0E07213438B60002019E6FA
:1036C00012F4800F11D122680A4B9A4201D00020D7
:1036D00010E640F4800308498A6822F0E072134340
:1036E0008B60002006E6002004E6002002E60220AF
:1036F00003E600BF0000045000030450CC0000208B
:10370000632D3E0530B583B00023019303689A68AA
:1037100012F0010F58D1044699682D4A114219D16F
:103720009A6822F0004222F03F0242F001029A60C1
:10373000284B9B6813F4000F1CD0274B1B689B0978
:10374000264AA2FB03239B09013303EB43039B009F
:1037500001930CE0436D43F010034365836D43F028
:1037600001038365012030E0019B013B0193019B34
:10377000002BF9D1FFF7B6FA054623681A6812F054
:10378000010F1FD19A6812F0010F07D19A6822F039
:10379000004222F03F0242F001029A60FFF7A2FAD3
:1037A000431B022BE9D923681B6813F0010FE4D1F6
:1037B000636D43F010036365A36D43F00103A365DC
:1037C000012002E0002000E0002003B030BD00BF77
:1037D0003F00008000030450CC000020632D3E0514
:1037E000F8B504463B4B9D680068806810F0040FF4
:1037F0006CD10E46174605F01F0594F85030012B8A
:1038000066D0012384F85030092D05D840F22123D9
:10381000EB4013F0010F04D1002384F85030012055
:1038200055E02046FFF76EFF00284BD1636D23F46F
:10383000706323F0010343F4807363652368264AB1
:10384000934239D01A46934200D01DB9636D23F4D8
:1038500080136365636D13F4805F30D0A36D23F034
:103860000603A365E36C1D4ADA62E36C1C4A1A6323
:10387000E36C1C4A5A6323681C221A60002384F8F4
:1038800050302268536843F0100353602268D368B5
:1038900043F00103D36021683B4632464031E06C7F
:1038A00000F0E2F92268936823F0004323F03F031D
:1038B00043F0040393600AE0A2F58072C3E700239B
:1038C000A365CFE7002384F8503000E00220F8BD64
:1038D0000220FCE7000304500001045021320008DC
:1038E000752F0008A932000870477047704770476D
:1038F0007047000090F85020012A7ED010B49BB091
:103900000346012280F85020002216921792006888
:103910003B4A904238D000220192019A002A37D0C7
:10392000926812F0040200D00122806810F0040FA7
:1039300053D1002A51D10A68002A32D0314CA268F2
:1039400022F46042486893F830C040EA4C300243A9
:10395000A2602B4A906810F0010000D001202A4A92
:10396000926812F0010200D00122024341D1254C9D
:10397000A26822F4716222F00F020868896801438C
:103980000A43A26000202DE002F580720192C4E794
:103990005A6D42F020025A65002283F8502001201F
:1039A00023E018498A6822F460428A60144A9168C8
:1039B00011F0010100D00121134A926812F00102B6
:1039C00000D001220A4316D10E498A6822F471629E
:1039D00022F00F028A60002004E05A6D42F02002BB
:1039E0005A650120002283F850201BB05DF8044B7B
:1039F00070470020F6E70020F4E70220704700BF80
:103A0000000004500003045000010450002807DBAC
:103A100000F01F02400901239340024A42F820307F
:103A2000704700BF00E100E000280CDB00F01F023F
:103A30004009012393402030034A42F82030BFF36D
:103A40004F8FBFF36F8F704700E100E0002808DB65
:103A50000901C9B200F1604000F5614080F800132F
:103A6000704700F00F000901C9B2014B19547047AB
:103A700014ED00E000B500F00700C0F1070CBCF148
:103A8000040F28BF4FF0040C031D062B0FD9C31ED3
:103A90004FF0FF3E0EFA0CF021EA000199400EFAB9
:103AA00003FE22EA0E0241EA02005DF804FB002355
:103AB000EEE70000074AD36823F4E0631B041B0C05
:103AC000000200F4E060034343F0BF6343F40033BB
:103AD000D360704700ED00E010B50446054BD86890
:103AE000C0F30220FFF7C6FF01462046FFF7AEFFF6
:103AF00010BD00BF00ED00E008B5FFF787FF08BD6F
:103B000008B5FFF791FF08BD0138B0F1807F0BD2F7
:103B10004FF0E0235861054AF02182F8231000207D
:103B2000986107221A6170470120704700ED00E09C
:103B300030B4446C04F01C0C012404FA0CF4056C41
:103B40006C60046863608368102B05D0036899601B
:103B50000368DA6030BC704703689A600368D96014
:103B6000F8E70000002871D010B403460168384A15
:103B7000914248D8374A0A443748A0FB020212094A
:103B800092005A64354A1A64022283F82520086894
:103B90006FF30E109A68DC6822431C6922435C694B
:103BA00022439C692243DC6922431C6A224302436C
:103BB0000A609A68B2F5804F1BD0196C274A91426F
:103BC0002CD0264AD2F8A814586C00F01C0C0F20F8
:103BD00000FA0CF021EA0001C2F8A814D2F8A814E7
:103BE00058685C6C04F01C0C00FA0CF00143C2F83D
:103BF000A8140020D863012283F8252083F824002C
:103C00005DF8044B7047164A0A441348A0FB0202B1
:103C1000120992005A64134A1A64B5E7D2F8A81040
:103C2000586C00F01C0C0F2000FA0CF021EA000187
:103C3000C2F8A810D2F8A81058685C6C04F01C0CEC
:103C400000FA0CF00143C2F8A810D2E70120704737
:103C500007040240F8FFFDBFCDCCCCCC00000240F1
:103C6000F8FBFDBF0004024038B5044690F824007C
:103C7000012832D0012084F8240094F82500C0B235
:103C8000012804D0002384F82430022038BD02200B
:103C900084F825000020E0632568286820F00100F2
:103CA00028602046FFF744FF236B5BB1226813684E
:103CB00043F00E0313602268136843F0010313609E
:103CC0000020E3E72268136823F0040313602268EE
:103CD000136843F00A031360EDE70220D6E738B516
:103CE000036C196804682568436C03F01C03042204
:103CF0009A400A4215D015F0040F12D0236813F031
:103D0000200F03D1236823F004032360436C03F0E6
:103D10001C02016C042393404B60036B03B1984772
:103D200038BD02229A400A421CD015F0020F19D069
:103D3000236813F0200F06D1236823F00A032360C1
:103D4000012380F82530436C03F01C02016C022330
:103D500093404B60002380F82430C36A002BDFD0EF
:103D60009847DDE7082202FA03F30B42D8D015F09A
:103D7000080FD5D0236823F00E032360436C03F0B3
:103D80001C03016C012202FA03F34B60C26380F84A
:103D90002520002380F82430436B002BC0D09847A7
:103DA000BEE70000F0B583B0002362E085685E00E6
:103DB0000324B44025EA0405CC68B4402C43846055
:103DC000456825EA0C054C68C4F300149C402C435C
:103DD00044605FE0DD08083550F8254003F0070C2B
:103DE0004FEA8C0C4FF00F0E0EFA0CFE24EA0E0E6A
:103DF0000C6904FA0CF444EA0E0440F8254060E033
:103E0000032400E0002404FA0EF42C430CF1020C0D
:103E10004F4D45F82C404F4CA568D44325EA020687
:103E20004F6817F4801F01D042EA0506494DAE6085
:103E3000ED6804EA05064F6817F4001F01D042EA56
:103E40000506444DEE606D6804EA05064F6817F4F8
:103E5000003F01D042EA05063E4D6E602D682C40C1
:103E60004E6816F4803F01D042EA0504394A1460D6
:103E700001330A6832FA03F468D04FF0010C0CFAEF
:103E800003FC1CEA0202F3D04C6804F00304013C7A
:103E9000012C8BD94C6804F00304032C0CD0C468AB
:103EA0005D004FF0030C0CFA05FC24EA0C0C8C6846
:103EB000AC4044EA0C04C4604C6804F00304022CD7
:103EC00088D004684FEA430E4FF0030C0CFA0EFC46
:103ED00024EA0C0C4C6804F0030404FA0EF444EADF
:103EE0000C0404604C6814F4403FC1D01A4C256E99
:103EF00045F001052566246E04F001040194019C3F
:103F00004FEA930C0CF10205114C54F8255003F0C4
:103F1000030E4FEA8E0E0F2404FA0EF425EA040570
:103F2000B0F1904F3FF46EAF0C4CA0420AD004F5B4
:103F30008064A04208D004F58064A0423FF460AFE2
:103F4000072460E701245EE702245CE703B0F0BDCC
:103F5000000001400004014000100240000400483D
:103F6000002331FA03F274D0F0B52EE0032500E00F
:103F7000002505FA0CF5A5424FD004685D004FF00E
:103F8000030C0CFA05FC44EA0C0404604FEAD30E5F
:103F90000EF1080E50F82E4003F00706B6000F256C
:103FA000B54024EA050440F82E40846824EA0C0455
:103FB0008460446824EA02024260C26822EA0C0279
:103FC000C260013331FA03F242D001229A4012EA70
:103FD0000107F6D04FEA930E0EF102051D4C54F87E
:103FE000254003F0030C4FEA8C0C0F2505FA0CF664
:103FF0003440B0F1904FBBD0174DA84209D005F521
:104000008065A84207D005F58065A842AED0072597
:10401000AFE70125ADE70225ABE7104C256825EA9F
:1040200007052560656825EA07056560E56825EAF6
:104030000705E560A56825EA0705A560054F0EF1AF
:10404000020457F8245025EA060547F8245094E75F
:10405000F0BD70470000014000040048000401402A
:104060000369194201D001207047002070470AB14E
:1040700081617047816270477047000008B5054B49
:104080005B69034200D108BD024B5861FFF7F4FFA2
:10409000F9E700BF0004014082B00A4B1A6E42F0FB
:1040A00001021A661A6E02F001020092009A9A6DDD
:1040B00042F080529A659B6D03F080530193019BFF
:1040C00002B070470010024002681C4B9A4200D0B8
:1040D000704710B582B0044603F17043A3F5F8337E
:1040E000DA6C42F40052DA64DB6C03F4005301939F
:1040F000019B1348134B0360002343608360C3603C
:10410000802202614FF4807242614FF480628261CA
:104110002022C2610362FFF725FD60B9084BE3640A
:104120009C62002211461220FFF7D6FC1220FFF7F6
:10413000E3FC02B010BDFEF7BDF9EFE7000004504C
:10414000EC0300200800024010B58EB00446342273
:10415000002101A805F014FB2268114B9A4201D0FE
:104160000EB010BD4FF4003301934FF480730D93E4
:1041700001A801F043FE78B90A4AD2F8903043F41E
:104180000043C2F89030002211460320FFF7A4FC40
:104190000320FFF7B1FCE3E7FEF78CF9ECE700BF83
:1041A000002800400010024000B589B000230393AE
:1041B00004930593069307930268134B9A4202D027
:1041C00009B05DF804FB03F560431A6E42F48052B7
:1041D0001A661A6E02F480520192019ADA6C42F069
:1041E0000102DA64DB6C03F001030293029B822379
:1041F00003930223049306930523079303A94FF027
:104200009040FFF7CFFDDBE70030014008B50268C2
:10421000074B9A4200D008BD064A136E23F4805320
:10422000136682214FF09040FFF79AFEF3E700BF3C
:10423000003001400010024010B594B00446002147
:104240000F911091119112911391342202A805F04F
:1042500097FA2268184B9A4201D014B010BD02237D
:10426000029302A801F0CAFD10BB144B9A6D42F4F0
:1042700000329A659A6D02F400320092009ADA6C6C
:1042800042F00102DA64DB6C03F001030193019B4D
:1042900004230F93122310930123119303231293EA
:1042A000072313930FA94FF09040FFF77BFDD4E74E
:1042B000FEF700F9D9E700BF0044004000100240BB
:1042C00038B512F4804F43D00468B4F8503091F8F8
:1042D00000C04FEACC0E1EFA83F32344B3F8024425
:1042E000C4F309048B69A34228D31B1B8B618B6920
:1042F0007BB9056835F82C309BB223F4804323F05A
:10430000700383F4005343F4004343F0800325F823
:104310002C3012F0400F0ED002680D7832F82530A4
:104320009BB223F4E04323F0700343F4004343F0D3
:10433000C00322F8253024B9204638BD00238B6104
:10434000D5E723460A894969006803F0B4FEF3E71C
:104350000468B4F8503091F800C04FEACC0E1EFA51
:1043600083F32344B3F80644C4F309048B69A342DE
:104370002FD31B1B8B618B697BB9056835F82C30FB
:104380009BB223F4804323F0700383F4005343F47F
:10439000004343F0800325F82C3012F0400F0FD17A
:1043A000026891F800C032F82C309BB223F4E0434D
:1043B00023F0700343F4004343F0C00322F82C3091
:1043C000002CB9D023464A894969006803F073FE7E
:1043D000B2E700238B61CEE738B5002875D00446DC
:1043E00090F89132A3B1032384F8913200236371D2
:1043F000206802F065FF234653F8040B0ECB02F051
:104400004FFF50B1022384F891320125284638BD70
:1044100080F8903204F05CF9E5E70021206802F0B2
:1044200059FF034608B9024615E0022384F8913289
:104430000125EBE702EB820104EBC1010120487486
:104440000A740020C87408624862013202EB8201DB
:10445000C9006050D2B220799042EBD816E003EB4D
:10446000830204EBC202002182F8511182F850311C
:1044700082F85311C2F86011C2F8641103EB830291
:1044800004EBC202C2F868110133DBB29842E6D8ED
:10449000234653F8040B0ECB02F01EFF054658B915
:1044A00000236373012384F89132E37A012B08D04F
:1044B000206803F01EFBA9E7022384F8913201254E
:1044C000A4E7204600F0FFFEF2E701259EE790F802
:1044D0009032012B0ED010B50446012380F89032A3
:1044E000006802F0E4FE206803F0F8FA002084F887
:1044F000900210BD0220704770B505460C46164666
:1045000012F0400F00F020810268B2F850300978B4
:104510004FEAC10C1CFA83F31344B3F80224C2F32C
:104520000902A36993422CD99B1AA361A06958B3CD
:1045300016F4804F0DD0286830F821309BB223F458
:10454000E04323F0700343F4404343F0800320F83A
:10455000213094F82430012B00F08D802A682178D6
:1045600032F821309BB223F4E04323F0400383F080
:10457000300343F4004343F0800322F8213000204D
:1045800070BD0023A361D1E76378002B48D12A686E
:10459000B2F8503012FA83F36344B3F80224C2F342
:1045A0000902A3F80224B3F802246FEA42426FEA38
:1045B000524292B2A3F802242A686378002B3BD1BE
:1045C000B2F8503012FA83F3227803EBC203B3F847
:1045D0000624C2F30902A3F80624B3F806246FEAFE
:1045E00042426FEA524292B2A3F80624E378022BC9
:1045F0002FD02178284604F0CDF816F4804FBED095
:104600002A68217832F821309BB223F4E04323F06A
:10461000700343F4404343F0800322F82130AEE7B7
:10462000012BC9D12A68B2F8503012FA83F36344DF
:104630000022A3F80224BFE7012BD7D1B2F85030F3
:1046400012FA83F3227803EBC2030022A3F80624B4
:10465000CCE72A68217832F821309BB223F4E0437A
:1046600023F0400383F0200343F4004343F080032E
:1046700022F82130BDE7636913446361E3691344A1
:10468000E361216A236999421DD3C91A21626278C4
:10469000002A44D12968B1F8502011FA82F2217819
:1046A00002EBC102B2F80214C1F30901A2F802142C
:1046B000ABB9B2F802146FEA41416FEA514189B2D5
:1046C000A2F802142DE021B9002384F82430134607
:1046D000DDE7002384F8243023620B46D7E73E2B26
:1046E0000DD8590813F0010F00D00131B2F80204BF
:1046F00080B2890289B20143A2F8021411E058097C
:1047000013F01F0F00D10138B2F8021489B28002F1
:1047100080B2014341F40041A2F8021401E0012AF1
:1047200006D09BB222896169286803F0F0F915E789
:104730002968B1F8502011FA82F2217802EBC10207
:1047400099B2A2F80214ECE70268B2F85030097886
:10475000C80010FA83F31344B3F80624C2F3090225
:10476000A369934246D39B1AA361A369002B44D04B
:1047700016F4804F0DD1286830F821309BB223F415
:10478000E04323F0700343F4404343F0800320F8F8
:10479000213094F82430012B7FF4E0AE6369134498
:1047A0006361E3691344E361216A23699942C0F0BC
:1047B0009C80C91A216229686278002A40F0C18071
:1047C000B1F8502011FA82F2217802EBC102B2F85E
:1047D0000614C1F30901A2F80614002B40F09180E1
:1047E000B2F806146FEA41416FEA514189B2A2F86A
:1047F0000614A8E00023A361B7E76378002B49D132
:104800002A68B2F8503012FA83F30344B3F8022452
:10481000C2F30902A3F80224B3F802246FEA424269
:104820006FEA524292B2A3F802242A686378002BFE
:104830003CD1B2F8503012FA83F3227803EBC20372
:10484000B3F80624C2F30902A3F80624B3F8062439
:104850006FEA42426FEA524292B2A3F80624E3782A
:10486000022B30D02178284603F094FF16F4804FB5
:104870007FF485AE2A68217832F821309BB223F488
:10488000E04323F0700343F4404343F0800322F8F5
:10489000213074E6012BC8D12A68B2F8503012FAE0
:1048A00083F303440022A3F80224BEE7012BD6D1F0
:1048B000B2F8503012FA83F3227803EBC2030022DD
:1048C000A3F80624CBE72A68217832F821309BB27E
:1048D00023F4E04323F0400383F0200343F4004338
:1048E00043F0800322F82130BCE721B9002384F88B
:1048F000243013465FE70023236284F824300B46FC
:1049000059E73E2B0DD8590813F0010F00D00131A3
:10491000B2F8060480B2890289B20143A2F80614F3
:1049200011E0580913F01F0F00D10138B2F8061436
:1049300089B2800280B2014341F40041A2F806141A
:1049400001E0012A06D09BB262896169286803F000
:10495000DEF803E6B1F8502011FA82F2217802EB7A
:10496000C10299B2A2F80614EDE72DE9F04105461F
:104970002868B0F8443013F4004F00F05582B0F8C6
:104980004440A3B214F00F0440F09F8013F0100FC6
:104990004AD003889AB213F4006F75D112F4004F15
:1049A000E6D0038823F070031B051B0D43F0800342
:1049B00003802868B0F8503095F85021D20012FAE0
:1049C00083F30344B3F80634C3F30903C5F86C3129
:1049D0008BB1D5F8641171B1B5F8562103F06BFBBA
:1049E000D5F86431D5F86C211344C5F86431002141
:1049F000284603F0C3FE2A68138899B213F4006FA7
:104A0000B6D101F44051B1F5405FB1D013889BB2EB
:104A100023F4804323F0700383F4405343F40043B2
:104A200043F080031380A3E703889BB223F4E143A0
:104A300023F070036FEA43436FEA53439BB2038052
:104A40002968B1F850302A7CD20012FA83F30B4463
:104A5000B3F80234C3F30903EB626A6A1A446A6268
:104A60000021284603F096FE6B7B002B80D0AB6ABA
:104A7000002B7FF47DAF6B7B2A6843F08003A2F8A4
:104A80004C3000236B7373E7B0F8503095F8502129
:104A9000D20012FA83F30344B3F80634C3F30903D4
:104AA000C5F86C31B5F8562105F5267103F003FB06
:104AB0002A68138823F070031B051B0D43F0800345
:104AC0001380284603F052FE52E730F824309EB29D
:104AD00013F4004F4ED116F0800F3FF449AF04EBB2
:104AE0008401C900103129442A6832F824309BB26D
:104AF00023F4E14323F070036FEA43436FEA534327
:104B00009BB222F8243004EB840305EBC303DB7C67
:104B1000012B00F0E98016F4807F40F08081286846
:104B2000B0F8503004EB840205EBC202167CF200B0
:104B300012FA83F30344B3F80234C3F30903621C8B
:104B400002EB820255F832209A4240F24B81671CF8
:104B500007EB8707D21A45F83720621C02EB820266
:104B600055F83220002A40F044813146284603F0AF
:104B700011FEFDE630F8243023F070031B051B0DF9
:104B800043F0800320F8243004EB8401C90001F5D0
:104B9000A87105EB010804EB840305EBC30393F84C
:104BA0005C31002B40D12868B0F8503004EB84020F
:104BB00005EBC20292F85021D20012FA83F30344AB
:104BC000B3F80674C7F3090717BB04EB840305EBBE
:104BD000C303D3F86C213A44C3F86C21D3F86421A1
:104BE0003A44C3F86421D3F868313BB104EB840341
:104BF00005EBC303D3F860319F4270D204EB84030A
:104C000005EBC30393F85011284603F0B7FD62E7A4
:104C100004EB840105EBC1013B46B1F85621D1F804
:104C2000641103F048FAD0E704EB840305EBC303F7
:104C300093F85331022B33D0296804EB840205EB3F
:104C4000C20292F8500131F820309BB223F4E043C5
:104C500023F0700343F4004343F0C00321F82030F5
:104C6000286892F8503130F8232012F4804F1ED07B
:104C7000B0F85020DB0013FA82F30344B3F8027457
:104C8000C7F30907002FA0D004EB840105EBC10195
:104C90003B46B1F85821D1F8641103F00CFA94E7BF
:104CA000324641462846FFF70BFB07468DE7B0F832
:104CB0005020DB0013FA82F30344B3F80674C7F301
:104CC0000907002F81D004EB840105EBC1013B46AD
:104CD000B1F85A21D1F8641103F0EDF975E74146B6
:104CE000286802F026FFF6E6631C03EB8303DB0073
:104CF0000022EA5004EB840305EBC3031B7F1BB3C4
:104D000016F0400F3BD004EB840305EBC3035B7C40
:104D10001BBB2A68B2F8503012FA83F304EB84020A
:104D200005EBC202127C03EBC203B3F80224C2F308
:104D30000902A3F80224B3F802246FEA42426FEAA0
:104D4000524292B2A3F8022404EB840405EBC4049B
:104D5000217C284603F01EFD0AE6012BF4D12A68C7
:104D6000B2F8503012FA83F304EB840205EBC2026E
:104D7000127C03EBC2030022A3F80224E4E72A68B2
:104D800004EB840305EBC3035B7CD3B9B2F850306A
:104D900012FA83F304EB840205EBC202127C03EBEC
:104DA000C203B3F80624C2F30902A3F80624B3F839
:104DB00006246FEA42426FEA524292B2A3F80624F6
:104DC000C2E7012BC0D1B2F8503012FA83F304EBE2
:104DD000840205EBC202127C03EBC2030022A3F89B
:104DE0000624B1E7621C02EB8202D2000027AF501A
:104DF000B3E604EB840205EBC202566A1E44566217
:104E0000013404EB840205EBC202526804EB840413
:104E100005EBC4041344636002F08BFEA8E5324640
:104E20002846FFF769FBA3E50020BDE8F08190F874
:104E30009032012B0CD010B50446012380F890323B
:104E40004173006802F044FE002084F8900210BD17
:104E50000220704710B50446006802F052FE10F4BC
:104E6000004F23D110F4806F24D110F4804F32D141
:104E700010F4005F39D110F4805F40D110F4006F5E
:104E800067D110F0800F40F0818010F4007F40F077
:104E9000AD8010F4807F27D02268B2F844309BB2F6
:104EA00023F480739BB2A2F844301DE02046FFF744
:104EB0005CFD19E02268B2F844309BB223F48063B1
:104EC0009BB2A2F84430204603F075FC0021204636
:104ED000FFF7ADFF08E02268B2F844309BB223F43C
:104EE00080439BB2A2F8443010BD2268B2F844302F
:104EF0009BB223F400539BB2A2F84430F4E722683B
:104F0000B2F840309BB223F004039BB2A2F84030C9
:104F10002268B2F840309BB223F008039BB2A2F89B
:104F2000403094F8C832012B0CD0204603F066FCC8
:104F30002268B2F844309BB223F480539BB2A2F8AB
:104F40004430D1E7002184F8C812204603F048FD20
:104F5000EBE72268B2F840309BB243F00803A2F8B6
:104F600040302268B2F844309BB223F400639BB215
:104F7000A2F844302268B2F840309BB243F00403F8
:104F8000A2F84030204603F029FCADE72268B2F8D1
:104F900044309BB223F080039BB2A2F8443094F8D3
:104FA000C832FBB92268B2F840309BB243F0040328
:104FB000A2F840302268B2F840309BB243F00803B8
:104FC000A2F84030012184F8C8122368B3F85430A5
:104FD000C3F38D0303F03C03C4F8CC32204603F046
:104FE000FFFC81E7204603F0F9FB7DE72268B2F879
:104FF00044309BB223F400739BB2A2F844302046A5
:1050000003F0D3FB70E710B50446084611F0800F9B
:1050100027D101F0070C0CEB8C01C90001F5A87E2B
:1050200004EB0E010CEB8C0C04EBCC0C4FF0000EDF
:105030008CF851E100F007000870C2F30A020A611F
:10504000CB70022B1DD094F89032012B1CD0012381
:1050500084F89032206802F050F9002084F8900221
:1050600010BD01F0070C0CEB8C01C900103121447C
:105070000CEB8C0C04EBCC0C4FF0010E8CF811E017
:10508000D8E700230B71DEE70220E9E710B50446FC
:105090000A4611F0800F1FD101F0070000EB8003DA
:1050A000DB0003F5A873E11800EB800004EBC000FF
:1050B000002380F8513102F007020A7094F8903210
:1050C000012B17D0012384F89032206802F0A2FB54
:1050D000002084F8900210BD01F0070000EB80036F
:1050E000DB001033E11800EB800004EBC00001236B
:1050F0004374E0E70220EEE710B501F0070C0CEB7B
:105100008C01C90001F5A8710CEB8C0E00EBCE0EE2
:10511000CEF86421CEF868310024CEF86C418EF8C8
:1051200051418EF850C10144006802F002FD204652
:1051300010BD01F0070101EB810100EBC100D0F8C7
:105140006C01704738B501F0070C0CEB8C01C900FD
:1051500010310CEB8C0E00EBCE0ECEF824200CF1AF
:10516000010202EB820440F8343001258EF83450FD
:10517000CEF8303000EBC402002454608EF8115099
:105180008EF810C00144006802F0D3FC204638BD00
:1051900038B501F007050279AA4235D304460B461B
:1051A00011F0800F1ED101EB8101C90001F5A8713A
:1051B000014403EB830300EBC303002283F8512176
:1051C00001238B700D7094F89032012B1ED00123B7
:1051D00084F89032206802F008FC7DB1002084F849
:1051E000900238BD05EB8501C9001031014405EB83
:1051F000850300EBC30301225A74E1E704F526712D
:10520000206802F082FCE9E70120EAE70220E8E7F3
:105210000B46017903F00F02914234D310B50446D6
:1052200013F0800F21D103F0070202EB8201C900C5
:1052300001F5A871014402EB820200EBC2020020DA
:1052400082F8510100228A7003F007030B7094F872
:105250009032012B19D0012384F89032206802F09B
:10526000E9FB002084F8900210BD03F0070202EB76
:105270008201C9001031014402EB820200EBC2023C
:1052800001205074DEE7012070470220ECE711F0A6
:10529000800F0BD001F0070101EB8101C900103133
:1052A000084452B90273C3800020704701EB8101AA
:1052B000C90001F5A8710844F3E7012202730381D4
:1052C0001B0C4381F0E7034602680121C0F8D412A9
:1052D000002083F8C802B2F854309BB20B43A2F806
:1052E0005430B2F854309BB243F00203A2F8543069
:1052F00070470000024A136843F4807313607047DC
:1053000000700040024B186800F4C060704700BF96
:1053100000700040B0F5007F0FD01F4B1B6803F4F6
:10532000C063B3F5806F34D01B4A136823F4C063A5
:1053300043F48063136000207047174B1B6803F42D
:10534000C063B3F5007F20D0134A136823F4C06311
:1053500043F400731360114B1B68322202FB03F30A
:105360000F4AA2FB03239B0C013300E0013B0A4AD6
:10537000526912F4806F01D0002BF7D1064B5B69A4
:1053800013F4806F03D10020704700207047032082
:1053900070470020704700BF00700040CC00002024
:1053A00083DE1B43024A536843F4806353607047B3
:1053B00000700040024A136843F480431360704752
:1053C000007000400C4A136823F0070343F0020307
:1053D00013600A4A136943F004031361012808D0DB
:1053E00040BF20BF20BF054A136923F004031361A7
:1053F000704730BFF7E700BF0070004000ED00E0ED
:1054000030B583B00446204B9B6D13F0805F0BD00A
:10541000FFF778FFB0F5007F17D0802C1FD82DD074
:10542000702C2DD000211BE0174DAB6D43F0805345
:10543000AB65AB6D03F080530193019BFFF762FFF7
:10544000AB6D23F08053AB65E4E7802C03D9A02C2F
:1054500003D9022104E0002102E0012100E0032140
:105460000A4A136823F007030B431360136803F021
:1054700007038B4206D1002003B030BD0221EFE7C5
:105480000121EDE70120F7E7001002400020024073
:10549000284A9368D26802F0030213F00C030AD082
:1054A0000C2B06D0042B1FD0082B20D00020024646
:1054B00010E0012AF6D11F4A126812F0080F0CD131
:1054C0001C4AD2F89420C2F303221B4951F822202F
:1054D00043B100200C2B0DD07047164A1268C2F35E
:1054E0000312F2E71046F5E714480022F2E71448E9
:1054F0000022EFE70F4BDB6803F00303022B03D01E
:10550000032B02D10E4A00E00C4A0A49CB68C3F3D0
:1055100002130133C868C0F3062002FB00F0B0FBA1
:10552000F3F0CB68C3F3416301335B00B0FBF3F0EE
:10553000D2E700BF00100240C0E800080024F400D9
:1055400000127A00002800F05383F0B583B00446BF
:10555000964B9D6805F00C05DE6806F003060368AF
:1055600013F0100F5AD0E5B10C2D18D0E369002BC1
:1055700000F0BB808D4A136843F001031360FDF710
:10558000B1FB0746894B1B6813F0020F40F09A806D
:10559000FDF7A8FBC01B0228F4D9032035E3012E38
:1055A000E4D1824B1B6813F0020F03D0E369002B98
:1055B00000F02083606A7D4B1B6813F0080F5BD0FE
:1055C0007A4B1B6803F0F00398425CD8774B1A685B
:1055D00042F008021A601A6822F0F002616A0A4377
:1055E0001A605A6822F47F42216A42EA01225A6014
:1055F000002D60D0FFF74CFF6C4B9B68C3F3031387
:105600006B4AD35C03F01F03D8406A4B18606A4BA7
:105610001868FDF71DFB002840F0F782236813F09F
:10562000010F00F08180082D75D00C2D71D06368BA
:10563000B3F5803F00F09880B3F5A02F00F09A807A
:105640005A4B1A6822F480321A601A6822F48022B7
:105650001A606368002B00F09A80FDF743FB074651
:10566000524B1B6813F4003F5ED1FDF73BFBC01BA0
:105670006428F5D90320C8E24C4BD3F894301B09B9
:1056800003F0F003A0E7FFF7BBFE002840F0B48270
:10569000464B1A6842F008021A601A6822F0F002BB
:1056A000616A0A431A605A6822F47F42216A42EA18
:1056B00001225A609EE7606AFFF7A2FE002899D097
:1056C0000120A2E2394B1A6842F008021A601A68F7
:1056D00022F0F002616A0A431A605A6822F47F429B
:1056E000216A42EA01225A6098E7304A136823F09F
:1056F00001031360FDF7F6FA07462C4B1B6813F005
:10570000020F8BD0FDF7EEFAC01B0228F5D903205B
:105710007BE2032E8BD1254B1B6813F4003F03D093
:105720006368002B00F06A82236813F0020F58D0E0
:10573000042D45D00C2D41D0E368002B00F0918062
:105740001A4A136843F480731360FDF7CBFA0646D8
:10575000164B1B6813F4806F7AD1FDF7C3FA801BD8
:105760000228F5D9032050E2104A136843F480332D
:1057700013606EE703F18043A3F53C331A6842F4EB
:1057800080221A601A6842F480321A6061E7FDF7DD
:10579000A9FA0746054B1B6813F4003FC4D0FDF778
:1057A000A1FAC01B6428F5D903202EE200100240A4
:1057B000F8E80008CC000020C4000020022EBBD175
:1057C000AF4B1B6813F4806F03D0E368002B00F02D
:1057D0001782AB4A536823F0FE43216943EA016311
:1057E0005360236813F0080F7DD06369002B63D0EA
:1057F000A34BD3F89430A16903F01002914210D06A
:1058000003F00302022A00F0FD8113F0010F3CD1E6
:105810009B4AD2F8943023F01003A1690B43C2F8DD
:105820009430974AD2F8943043F00103C2F8943090
:10583000FDF758FA0646924BD3F8943013F0020F56
:1058400051D1FDF74FFA801B1128F4D90320DCE178
:105850008B4A536823F0FE43216943EA0163536096
:10586000BFE7874A136823F480731360FDF73AFAA1
:105870000646834B1B6813F4806FB2D0FDF732FAF3
:10588000801B0228F5D90320BFE17D4AD2F894306D
:1058900023F00103C2F89430FDF724FA0646784B52
:1058A000D3F8943013F0020FB2D0FDF71BFA801B2F
:1058B0001128F4D90320A8E1714AD2F8943023F0DA
:1058C0000103C2F89430FDF70DFA06466C4BD3F88D
:1058D000943013F0020F06D0FDF704FA801B112854
:1058E000F4D9032091E1236813F0040F00F08D80B8
:1058F000634B9B6D13F0805F2ED1614B9A6D42F02C
:1059000080529A659B6D03F080530193019B0126A1
:105910005C4B1B6813F4807F20D0A36813F0010F49
:1059200038D05749D1F8902022F0800203F080034C
:105930001343C1F89030A36813F0040F22D0D1F8BC
:10594000902042F00402C1F89020D1F8902042F05B
:105950000102C1F890202AE00026D9E7494A1368DD
:1059600043F480731360FDF7BDF90746454B1B6890
:1059700013F4807FD1D1FDF7B5F9C01B0228F5D90A
:10598000032042E13E4AD2F8903043F00103C2F8CE
:1059900090300CE03A4BD3F8902022F00102C3F88B
:1059A0009020D3F8902022F00402C3F89020A3683E
:1059B0008BB1FDF797F90746314BD3F8903013F0D0
:1059C000020F21D1FDF78EF9C01B41F288339842B6
:1059D000F2D9032019E1FDF785F90746284BD3F8E2
:1059E000903013F0020F08D0FDF77CF9C01B41F294
:1059F00088339842F2D9032007E1214AD2F8903047
:105A000023F08003C2F89030E6B9236813F0200F2A
:105A10003AD0A36AE3B11A4AD2F8983043F00103AE
:105A2000C2F89830FDF75EF90646154BD3F898306A
:105A300013F0020F28D1FDF755F9801B0228F4D985
:105A40000320E2E00E4A936D23F080539365DCE778
:105A50000B4AD2F8983023F00103C2F89830FDF7D2
:105A600041F90646064BD3F8983013F0020F0BD0DD
:105A7000FDF738F9801B0228F4D90320C5E000BFE8
:105A80000010024000700040E36A002B00F0BC8070
:105A9000022B17D00C2D00F0BC805F4A136823F056
:105AA00080731360FDF71EF904465B4B1B6813F00F
:105AB000007F00F09480FDF715F9001B0228F4D94F
:105AC0000320A2E0544BDB6803F00301226B9142F8
:105AD00016D00C2D00F09B804F4A136823F0807382
