:020000040800F2
:10000000008000203D960008257100082771000837
:10001000297100082B7100082D71000800000000F4
:100020000000000000000000000000002F71000828
:1000300031710008000000003371000835710008BC
:100040008D9600088D9600088D9600083D71000879
:100050008D9600088D9600084D7100088D96000859
:100060008D9600088D9600088D960008597100083D
:100070008D9600088D9600088D9600088D960008D4
:100080008D9600088D960008697100080000000038
:100090000000000000000000000000008D96000835
:1000A0008D9600088D9600088D9600088D960008A4
:1000B0008D96000800000000000000008D960008EA
:1000C0008D9600088D9600088D9600088D96000884
:1000D0008D9600088D9600088D9600088D96000874
:1000E0008D9600088D9600080000000000000000BA
:1000F0000000000000000000000000000000000000
:1001000000000000000000000000000000000000EF
:1001100000000000000000008D96000800000000B4
:100120008D9600088D9600088D9600088D96000823
:100130008D96000800000000000000000000000094
:100140008D9600088D9600088D960008797100083C
:100150008D9600088D9600088D9600088D960008F3
:100160008D9600088D960008000000000000000039
:10017000000000008D960008000000000000000054
:100180008D9600088D9600088D96000800000000EE
:1001900010F8012B11F8013B012A28BF9A42F7D031
:1001A000D01A7047034613F8012B002AFBD1181A06
:1001B000013870470000000000000000000000004F
:1001C00001F0FF01102A2BDB10F0070F08D010F808
:1001D000013B013A8B422DD010F0070F42B3F6D10C
:1001E000F0B441EA012141EA014122F007047FF025
:1001F00000070023F0E80256083C85EA010586EA7C
:10020000010685FA47F5A3FA87F586FA47F6A5FAB7
:1002100087F68EB9EED1F0BC01F0FF0102F00702C3
:1002200032B110F8013B013A83EA010313B1F8D16E
:100230000020704701387047002D06BF354603384F
:10024000073815F0010F07D1013015F4807F02BF88
:10025000013015F4C03F0130F0BC0138704700BFD9
:1002600081F0004102E000BF83F0004330B54FEA67
:1002700041044FEA430594EA050F08BF90EA020FD4
:100280001FBF54EA000C55EA020C7FEA645C7FEA67
:10029000655C00F0E2804FEA5454D4EB5555B8BF8A
:1002A0006D420CDD2C4480EA020281EA030382EAFB
:1002B000000083EA010180EA020281EA0303362D8D
:1002C00088BF30BD11F0004F4FEA01314FF4801C60
:1002D0004CEA113102D0404261EB410113F0004F72
:1002E0004FEA03334CEA133302D0524263EB430329
:1002F00094EA050F00F0A780A4F10104D5F1200EC7
:100300000DDB02FA0EFC22FA05F2801841F1000121
:1003100003FA0EF2801843FA05F359410EE0A5F1F5
:1003200020050EF1200E012A03FA0EFC28BF4CF026
:10033000020C43FA05F3C01851EBE37101F00045DC
:1003400007D54FF0000EDCF1000C7EEB00006EEBE9
:100350000101B1F5801F1BD3B1F5001F0CD3490873
:100360005FEA30004FEA3C0C04F101044FEA4452CA
:1003700012F5800F80F09A80BCF1004F08BF5FEA51
:10038000500C50F1000041EB045141EA050130BD31
:100390005FEA4C0C404141EB0101013C28BFB1F543
:1003A000801FE9D291F0000F04BF01460020B1FA8E
:1003B00081F308BF2033A3F10B03B3F120020CDA61
:1003C0000C3208DD02F1140CC2F10C0201FA0CF03F
:1003D00021FA02F10CE002F11402D8BFC2F1200CA4
:1003E00001FA02F120FA0CFCDCBF41EA0C0190405A
:1003F000E41AA2BF01EB0451294330BD6FEA0404A3
:100400001F3C1CDA0C340EDC04F11404C4F120028D
:1004100020FA04F001FA02F340EA030021FA04F39F
:1004200045EA030130BDC4F10C04C4F1200220FAF6
:1004300002F001FA04F340EA0300294630BD21FA34
:1004400004F0294630BD94F0000F83F4801306BFFA
:1004500081F480110134013D4EE77FEA645C18BFEE
:100460007FEA655C29D094EA050F08BF90EA020F85
:1004700005D054EA000C04BF1946104630BD91EA7D
:10048000030F1EBF0021002030BD5FEA545C05D180
:100490004000494128BF41F0004130BD14F58004BF
:1004A0003CBF01F5801130BD01F0004545F0FE4133
:1004B00041F470014FF0000030BD7FEA645C1ABF68
:1004C000194610467FEA655C1CBF0B46024650EA9F
:1004D000013406BF52EA033591EA030F41F40021CB
:1004E00030BD00BF90F0000F04BF0021704730B551
:1004F0004FF4806404F132044FF000054FF0000126
:1005000050E700BF90F0000F04BF0021704730B5E6
:100510004FF4806404F1320410F0004548BF4042BB
:100520004FF000013EE700BF42004FEAE2014FEA10
:1005300031014FEA02701FBF12F07F4393F07F4FEB
:1005400081F06051704732F07F4208BF704793F0EE
:100550007F4F04BF41F40021704730B54FF4607401
:1005600001F0004521F000411CE700BF50EA010204
:1005700008BF704730B54FF000050AE050EA0102AD
:1005800008BF704730B511F0004502D5404261EB1D
:1005900041014FF4806404F132045FEA915C3FF45E
:1005A000D8AE4FF003025FEADC0C18BF03325FEAFB
:1005B000DC0C18BF033202EBDC02C2F1200300FAAC
:1005C00003FC20FA02F001FA03FE40EA0E0021FAD1
:1005D00002F11444BDE600BF70B54FF0FF0C4CF4BF
:1005E000E06C1CEA11541DBF1CEA135594EA0C0F71
:1005F00095EA0C0F00F0DEF82C4481EA030621EAAC
:100600004C5123EA4C5350EA013518BF52EA0335E6
:1006100041F4801143F4801338D0A0FB02CE4FF098
:100620000005E1FB02E506F00042E0FB03E54FF0C8
:100630000006E1FB03569CF0000F18BF4EF0010EC0
:10064000A4F1FF04B6F5007F64F5407404D25FEABC
:100650004E0E6D4146EB060642EAC62141EA55516F
:100660004FEAC52040EA5E504FEACE2EB4F1FD0CB1
:1006700088BFBCF5E06F1ED8BEF1004F08BF5FEA2F
:10068000500E50F1000041EB045170BD06F00046E1
:1006900046EA010140EA020081EA0301B4EB5C048E
:1006A000C2BFD4EB0C0541EA045170BD41F4801186
:1006B0004FF0000E013C00F3AB8014F1360FDEBFAB
:1006C000002001F0004170BDC4F10004203C35DA87
:1006D0000C341BDC04F11404C4F1200500FA05F30A
:1006E00020FA04F001FA05F240EA020001F00042AB
:1006F00021F0004110EBD37021FA04F642EB060121
:100700005EEA430E08BF20EAD37070BDC4F10C044A
:10071000C4F1200500FA04F320FA05F001FA04F20E
:1007200040EA020001F0004110EBD37041F10001FA
:100730005EEA430E08BF20EAD37070BDC4F1200505
:1007400000FA05F24EEA020E20FA04F301FA05F26D
:1007500043EA020321FA04F001F0004121FA04F215
:1007600020EA020000EBD3705EEA430E08BF20EAE5
:10077000D37070BD94F0000F0FD101F0004640001F
:1007800041EB010111F4801F08BF013CF7D041EAA1
:10079000060195F0000F18BF704703F000465200A5
:1007A00043EB030313F4801F08BF013DF7D043EA76
:1007B0000603704794EA0C0F0CEA135518BF95EA2C
:1007C0000C0F0CD050EA410618BF52EA4306D1D1B3
:1007D00081EA030101F000414FF0000070BD50EAD2
:1007E000410606BF1046194652EA430619D094EA5C
:1007F0000C0F02D150EA013613D195EA0C0F05D146
:1008000052EA03361CBF104619460AD181EA030199
:1008100001F0004141F0FE4141F470014FF0000051
:1008200070BD41F0FE4141F4780170BD70B54FF0EC
:10083000FF0C4CF4E06C1CEA11541DBF1CEA13556C
:1008400094EA0C0F95EA0C0F00F0A7F8A4EB05044E
:1008500081EA030E52EA03354FEA013100F0888045
:100860004FEA03334FF0805545EA131343EA12630E
:100870004FEA022245EA111545EA10654FEA0026C3
:100880000EF000419D4208BF964244F1FD0404F57C
:10089000407402D25B084FEA3202B61A65EB0305D8
:1008A0005B084FEA32024FF480104FF4002CB6EB95
:1008B000020E75EB030E22BFB61A754640EA0C0015
:1008C0005B084FEA3202B6EB020E75EB030E22BF55
:1008D000B61A754640EA5C005B084FEA3202B6EB96
:1008E000020E75EB030E22BFB61A754640EA9C0055
:1008F0005B084FEA3202B6EB020E75EB030E22BF25
:10090000B61A754640EADC0055EA060E18D04FEAE2
:10091000051545EA16754FEA06164FEAC30343EA82
:1009200052734FEAC2025FEA1C1CC0D111F4801F4F
:100930000BD141EA00014FF000004FF0004CB6E748
:1009400011F4801F04BF01430020B4F1FD0C88BFE7
:10095000BCF5E06F3FF6AFAEB5EB030C04BFB6EBF2
:10096000020C5FEA500C50F1000041EB045170BDE5
:100970000EF0004E4EEA113114EB5C04C2BFD4EB12
:100980000C0541EA045170BD41F480114FF0000E96
:10099000013C90E645EA060E8DE60CEA135594EA12
:1009A0000C0F08BF95EA0C0F3FF43BAF94EA0C0F15
:1009B0000AD150EA01347FF434AF95EA0C0F7FF48A
:1009C00025AF104619462CE795EA0C0F06D152EADE
:1009D00003353FF4FDAE1046194622E750EA4106C2
:1009E00018BF52EA43067FF4C5AE50EA41047FF4D3
:1009F0000DAF52EA43057FF4EBAE12E74FEA410236
:100A0000B2F1E04324BFB3F5001CDCF1FE5C0DD96C
:100A100001F0004C4FEAC0024CEA5070B2F1004FB6
:100A200040EB830008BF20F00100704711F0804FB9
:100A300021D113F13872BCBF01F00040704741F47E
:100A400080114FEA5252C2F11802C2F1200C10FA82
:100A50000CF320FA02F018BF40F001004FEAC12366
:100A60004FEAD32303FA0CFC40EA0C0023FA02F30A
:100A70004FEA4303CCE77FEA625307D150EA0133E0
:100A80001EBF4FF0FE4040F44000704701F00040B0
:100A900040F0FE4040F40000704700BF53B94AB92F
:100AA000002908BF00281CBF4FF0FF314FF0FF3076
:100AB00000F00CB8ADF1080C6DE904CE0AF040FD71
:100AC000DDF804E0DDE9022304B07047704700BFA1
:100AD0000348044B834202D0034B03B118477047CD
:100AE0007802002078020020000000000548064B34
:100AF0001B1AD90F01EBA301491002D0034B03B11C
:100B0000184770477802002078020020000000009B
:100B100010B5064C237843B9FFF7DAFF044B13B145
:100B20000448AFF300800123237010BD7802002039
:100B30000000000038B8000808B5054B1BB1054996
:100B40000548AFF30080BDE80840FFF7CFBF00BF06
:100B5000000000007C02002038B8000808B501221F
:100B600008214FF0904003F0FCF9142002F040F807
:100B7000002208214FF0904003F0F3F9022002F028
:100B800037F8012208214FF0904003F0EAF91420D1
:100B900002F02EF808BD10B50446002240214FF0A7
:100BA000904003F0DEF9002210214FF0904003F056
:100BB000D8F9204600F04CF9012210214FF0904066
:100BC00003F0CFF910BD10B50446012240214FF0CB
:100BD000904003F0C6F9002210214FF0904003F03E
:100BE000C0F9204600F034F9012210214FF0904066
:100BF00003F0B7F910BDF8B507460D4616461C467A
:100C00004420FFF7C8FFC7F3C700FFF7DCFFC6F3B8
:100C1000C700FFF7D8FF4520FFF7BDFFE8B2FFF799
:100C2000D2FF280AFFF7CFFFE0B2FFF7CCFF200A80
:100C3000FFF7C9FFF8BD38B505460C464E20FFF753
:100C4000AAFFE8B2FFF7BFFF4F20FFF7A4FFE0B213
:100C5000FFF7B9FF200AFFF7B6FF38BD08B520211E
:100C60004FF0904003F076F918B10A2001F0C0FF70
:100C7000F5E70A2001F0BCFF08BD38B50546322073
:100C8000FFF789FF002404E0285DFFF79CFF013493
:100C9000E4B2982CF8D9FFF7E1FF38BD10B504464F
:100CA000FFF7EBFF3F20FFF776FF94F89900FFF77F
:100CB0008AFF0320FFF76FFF94F89A00FFF783FF86
:100CC0000420FFF768FF94F89B00FFF77CFF94F87F
:100CD0009C00FFF778FF94F89D00FFF774FF2C202D
:100CE000FFF759FF94F89E00FFF76DFF10BD08B5A0
:100CF0002220FFF750FFC720FFF765FF2020FFF7F6
:100D00004AFFFFF7ABFF08BD08B5002202212448C7
:100D100003F027F9642001F06BFFFFF71FFF642049
:100D200001F066FFFFF79AFF1220FFF734FFFFF78D
:100D300095FF0120FFF72FFFF920FFF744FF002068
:100D4000FFF741FF0020FFF73EFF1120FFF723FFD1
:100D50000320FFF738FFF923792200210846FFF727
:100D60004AFF00210846FFF766FF3C20FFF713FF0C
:100D70000520FFF728FF2120FFF70DFF0020FFF7D8
:100D800022FF8020FFF71FFF1820FFF704FF8020BD
:100D9000FFF719FFFFF762FF0248FFF77FFF08BD6B
:100DA000000400480000002070B505462420FFF72D
:100DB000F2FE002601E00136B6B2F92E0AD8002470
:100DC0000F2CF8D804EB0613E85CFFF7FCFE0134A7
:100DD000A4B2F5E72620FFF7DEFE00260AE004EBCA
:100DE0000613E85CFFF7EFFE0134A4B20F2CF6D92E
:100DF0000136B6B2F92E01D80024F7E7FFF777FFE6
:100E000070BD08B51020FFF7C6FE0120FFF7DBFE1E
:100E1000642001F0EDFE08BD08B5002240214FF02E
:100E2000904003F09EF8002210214FF0904003F014
:100E300098F801220221054803F093F800220821C6
:100E40004FF0904003F08DF808BD00BF000400484B
:100E500000B583B08DF807004FF47A7301220DF1CD
:100E60000701034805F0A4FC03B05DF804FB00BFD4
:100E70005803002030B4124C0025256020602181E9
:100E80006281BDF80800A0810220E08211F0070F06
:100E90000DD1CC080A4844828282C3810024048296
:100EA00043B1B42B06D0064B9A80D98005E0CC081C
:100EB0000134EFE7024B9980DA8030BC704700BF05
:100EC00094020020014B1860704700BF940200207C
:100ED000034630B15A2804D0B42802D0B0F5877F39
:100EE00001D1014AD381704794020020584B9B885E
:100EF0008342C0F0AB80564BDB888B42C0F0A680AB
:100F000010B4534BDB89B42B16D00AD8FBB15A2B43
:100F10003BD14F4B1B895B1A9BB2013B014698B2F8
:100F200015E0B3F5877F30D1494B5B891B1A9BB223
:100F3000013B084699B20AE0454C23891B1A9BB233
:100F4000013B98B263895B1A9BB2013B99B2404B5B
:100F50001B8A032B19D8DFE803F008021B223C4B45
:100F60001B891B1A9BB2013B98B2394B1B898342E8
:100F70000BD3374B5B898B4207D3354BDB8A022B74
:100F800019D0042B30D0072B48D05DF8044B7047A4
:100F90002F4B5B895B1A9BB2013B99B2E5E72C4C66
:100FA00023891B1A9BB2013B98B263895B1A9BB2DF
:100FB000013B99B2D9E7C0F3CF03254CB4F812C076
:100FC0000CFB01332468E15C3AB900F007006FF0D4
:100FD000800202411140E154D7E700F0070080226F
:100FE00002411143E154D0E7C0F38F04184BB3F82A
:100FF00012C00CFB014102F003021C6814F801C08E
:1010000000F0030040006FF0C003034103EA0C034B
:101010005BB29201024113436354B6E7C0F34F043D
:101020000B4BB3F812C00CFB01411C6814F801C053
:1010300000F0010080006FF0F003034103EA0C03AD
:101040005BB212010241134363549EE7704700BF35
:10105000940200202F4BDB8A022B1AD010B5042BF0
:101060003AD0072B53D010BD02FB0C322949096836
:10107000885401339BB2274A528A9A42F4D80CF121
:10108000010C1FFA8CFC234B9B8A634504D9002377
:10109000F1E74FF0000CF6E7704703FB0E1C42B27D
:1010A000130143EA82135BB243EA82035BB2194C39
:1010B00024681A4304F80C20013189B2154B5B8A6D
:1010C0008B42EAD80EF1010E1FFA8EFE114B9B8A5D
:1010D0007345C8D90021F1E74FF0000EF6E70CF197
:1010E000010C1FFA8CFC0B4B9B8A6345BBD9002279
:1010F000084B5B8A9342F2D903FB0C2143B2054CA7
:10110000246843EA03136354013292B2F0E74FF0CC
:10111000000CE8E7940200202DE9F84F1D462D4B06
:101120009B88834253D306460F469046294BDB8863
:101130008B424CD39DF82830012B29D04FF0000969
:1011400040E0013424B2A2464FEA450909F1FF39D3
:101150004C453CDA00234B45F3DA06EB0A02521BFE
:10116000002AEEDBFA18521B002AEADB301980B2A3
:101170001FFA83FB0BEB070189B2491B401B424658
:1011800089B280B2FFF7B2FE0BF101031BB2E2E7B6
:101190000024D8E706EB090080B21FFA8CF4E119AD
:1011A00089B201390138424689B280B2FFF79EFE0A
:1011B00004F1010C0FFA8CFCAC45EBDB09F10109E1
:1011C0000FFA89F9A94502DA4FF0000CF4E7BDE8FF
:1011D000F88F00BF940200202DE9F04F8BB0054638
:1011E0000E4606921C460593BDF8501003919DF8DB
:1011F00054B09DF858A0374B9B88834266D3104665
:10120000344AD288B24261D383425FD3A2425DD3D3
:10121000A0EB0509B9F1000FB8BFC9F10009A31B84
:1012200083EAE371A1EBE37107914B42049385429A
:101230000BD201230893059B9E420AD201230993F6
:10124000079BA9EB0308002426E04FF0FF33089327
:10125000F1E74FF0FF330993F2E7012300935B4678
:10126000039A31462846FFF757FF049BB3EB480F1C
:1012700008DC069B9D4229D0079BA8EB0308089B2E
:101280001D44ADB2B9EB480F06DB059B9E421DD055
:10129000C844099B1E44B6B20134E4B2BAF1010F4E
:1012A000DBD10D4BA3FB042323F0010707EB53070E
:1012B000E71B17F0FF07D0D1012300935B46FF2205
:1012C00031462846FFF728FF3C46CEE70BB0BDE885
:1012D000F08F00BF94020020ABAAAAAA2DE9F84F14
:1012E0001F46BDF828B0BDF82C80304B9B88834248
:1012F00059D381468A462D4BDB888B4253D3203A03
:10130000FB8802FB03F3B98811F0070218BF012222
:1013100002EBD1023D6802FB035500263EE02A782D
:1013200004F0070180230B411A4212D006EB0A0198
:1013300004EB09005A4689B280B2FFF7D7FD08E0F6
:1013400006EB0A0104EB0900424689B280B2FFF7BE
:10135000CDFD04F00703072B18D00134A4B2BB88DD
:10136000A34215D9B8F1FF0FD9D02A7804F00701AC
:1013700080230B411A42E3D006EB0A0104EB09007B
:101380005A4689B280B2FFF7B1FDE2E70135E4E7E2
:1013900013F0070F00D001350136B6B2FB88B34217
:1013A00001D90024DBE7BDE8F88F00BF94020020DC
:1013B0002DE9F04F83B01C46BDF830A0BDF834B025
:1013C000194B9B8883422BD3804689461646164B81
:1013D000DB888B4224D30F4605460CE0CDF804A0F1
:1013E000CDF800B0234639462846FFF777FF01368F
:1013F000A3882B449DB2327892B1A3882B440A492A
:1014000089888B4203DDE3883B449FB24546E388ED
:101410003B440549C9888B42E0DD4F464546DDE740
:1014200003B0BDE8F08F00BF940200202DE9F04F1B
:101430008BB006460F4615469846BDF850A0BDF83D
:1014400054905E4A07AC07CA03C422809C88039567
:10145000EA785B4DA5FB02120AA901EBD20212F851
:101460000C2CCDF804A0CDF8009039463046FFF79B
:1014700035FF04EB060B1FFA8BFB039AD378A5FB11
:101480000312D20802EB8202A3EB42030AA951FA2B
:1014900083F313F80C2CCDF804A0CDF8009043464C
:1014A00039465846FFF71AFFA30805930BEB940043
:1014B0004FEA540B1BFA80F0CDF804A0CDF8009051
:1014C00043462E22394680B2FFF708FF06EB440060
:1014D000039A9378A5FB03230DF1280C0CEBD3039F
:1014E00013F80C2C1BFA80F0CDF804A0CDF8009076
:1014F0004346394680B2FFF7F1FE04EB4403049300
:10150000F018039A9378A5FB0312D20802EB82022B
:10151000A3EB42030DF1280C5CFA83F313F80C2CB7
:101520001BFA80F0CDF804A0CDF800904346394670
:1015300080B2FFF7D3FE06EB84001BFA80F080B286
:101540000599401ACDF804A0CDF8009043462E220C
:10155000394680B2FFF7C2FE039A1388A5FB032326
:101560000AA901EBD30313F80C2C04EB8404301903
:10157000CDF804A0CDF800904346394680B2FFF77D
:10158000ADFE039A1388A5FB0325ED0805EB850541
:10159000A3EB45030AAA12FA83F313F80C2C049B5D
:1015A00006EB4300CDF804A0CDF800904346394641
:1015B00080B2FFF793FE0BB0BDE8F08F5CB8000877
:1015C000CDCCCCCC2DE9F0478246894617461E4645
:1015D000DDF82080002512E0002205EB090104EB74
:1015E0000A00FFF783FC0134E4B2BC4205D206FBDB
:1015F00004835B5D002BF6D1EEE70135EDB2B54219
:1016000001D20024F1E7BDE8F087F8B504468188EF
:10161000006802F09FFCB0FA80F56D09A779AF422F
:101620000CBF0126002601D0237C3BB1AF4217D06E
:10163000237C0BB9AF4225D03046F8BD01F0D2FA79
:10164000A368C01A6428F1D901232374637C0BB901
:101650000123E3740023637401F0C4FAA060E5E79A
:10166000237C002BE4D001F0BDFAA368C01A6428E3
:10167000DED90023237401F0B5FAA06001F0B2FABC
:10168000E060D5E701F0AEFAE368C01AC728D3D905
:10169000637C002BD0D10123637401F0A3FAE060D6
:1016A000CAE70346C07C00B970470022DA74FBE742
:1016B00000B5864600200B460139C9B2A3B11EF819
:1016C00001CB082303E04FEA5C0C013BDBB2002BAB
:1016D000F1D080EA0C0212F0010F4FEA5000F2D074
:1016E00080F08C00C0B2EEE75DF804FBF0B583B08B
:1016F000019143781BB90127384603B0F0BD054678
:1017000016469DF80410406801F0BAF89DF805707F
:10171000B7B93C461CE0FF21686801F0B1F83055CC
:101720000134E4B2A742F6D8791EC9B23046FFF7B9
:10173000BFFF3E4416F8013C83420ED10027DBE791
:101740000024EFE7315D686801F09AF80134E4B2F3
:101750009DF80630A342F5D8CEE70127CCE710B5B7
:1017600004460121406801F06DF803E00121606842
:1017700001F068F8FF28F9D110BD70B582B00646B7
:101780000C460DF107024421FFF7B0FF0546012C7E
:1017900004D0022C06D0284602B070BD3046FFF7B8
:1017A000DEFFF6E7337C5F2B0BD005D81F2B0DD067
:1017B0003F2B0DD1BC2006E07F2B0BD140F2EE2059
:1017C00001E040F2771001F013FAE4E75E20FAE757
:1017D0000020F8E70020F6E710B584B0044601AA1F
:1017E00000216FF0410363F30701092363F30F2125
:1017F000FFF77CFFD0BB9DF80630E3739DF8073000
:10180000A3739DF8081021749DF805309DF80420FD
:1018100042EA0322134612F4784201D05B429BB2A3
:101820005F2925D00AD81F290FD03F2927D123F0BF
:1018300003035B055B0D07EE903A0AE07F291ED19A
:10184000C3F30A0307EE903A03E003F4FF6307EEE5
:10185000903AF8EE677A9FED0C7A67EE877AC4EDDE
:10186000057A1AB1F1EE677AC4ED057A04B010BDBD
:1018700023F001035B055B0D07EE903AE9E7C3F344
:101880000A0307EE903AE4E70000803D38B50546CC
:101890000C460A4600214E2363F30701032363F33A
:1018A0001741FFF723FF28B92378EB736378AB73F5
:1018B000A3782B7438BD03780BB90120704710B59D
:1018C0000446406800F0FBFF10B90123637010BDAF
:1018D000002363700120FAE710B582B004466A461F
:1018E0000021332363F30701082363F30F21FFF77C
:1018F000FDFE60B9034608E05A1C03F10901694482
:1019000011F8081C23441972D3B2052BF4D902B084
:1019100010BD00B583B00DF10702CC21FFF7E6FE44
:1019200003B05DF804FB00234370416001230370A2
:10193000704700002DE9F0438BB005AD00240594FD
:101940000694079408940994454BDA6C42F004021B
:10195000DA64DA6C02F004020192019ADA6C42F065
:101960000102DA64DA6C02F001020292029ADA6C85
:1019700042F00202DA64DA6C02F002020392039A85
:10198000DA6C42F08002DA64DB6C03F080030493CB
:10199000049B224658214FF0904002F0E2FADFF813
:1019A000C88022460221404602F0DBFA0126059655
:1019B0004FF488130693079429464FF0904002F0A5
:1019C0006BF94FF00809CDF8149006960796089425
:1019D00029464FF0904002F05FF950230593069698
:1019E0000794089429464FF0904002F055F94FF4BF
:1019F000487305930694079429464FF0904002F0EF
:101A00004BF9F1230593032706970794294640468F
:101A100002F042F90223059306960794089429469A
:101A2000404602F039F94FF40443059306970794B2
:101A300029464FF0904002F02FF9CDF81490069708
:101A400007942946074802F027F922462146062036
:101A500001F0BEFF062001F0CBFF0BB0BDE8F08324
:101A600000100240001C00480004004800B583B08C
:101A70000A4B9A6C42F001029A649B6C03F00103DA
:101A80000193019B002211460B2001F0A1FF0B20C6
:101A900001F0AEFF03B05DF804FB00BF0010024090
:101AA00010B491420CD0401A019CA4EB030C0CFB27
:101AB00000F0521A90FBF2F018445DF8044B7047A6
:101AC000019A134403EBD3735810F6E700000000AB
:101AD0002DE9F04F99B0B54DFF2400945A23FA2216
:101AE0007A212846FFF7C6F92846FFF7EBF920468A
:101AF000FFF7B0FA002000F08DFF05B2002000F0E3
:101B000089FF07B2002406E0204600F083FF05B2FB
:101B10000AE00134E4B201F015F884420ED2204606
:101B200000F078FFA842EFDD204600F073FFB842D6
:101B3000EFDB204600F06EFF07B2EAE7BD421AD0A5
:101B4000002D1DDB3E46A846A7EB050CBCF5C87F63
:101B500040DABCF1FA0F59DABCF1630F30DCBCF1AA
:101B6000320F63DABCF1180F20DCBCF1000F60DB30
:101B70004FF005094CE00A3D2DB20A373FB2DFE7CE
:101B8000002FDFDD162300936E233A4629460020FE
:101B9000FFF786FF81B20023029301220192009396
:101BA0000B46FA220A20FFF717FBCBE7ACF119032B
:101BB000182B02D84FF00A092AE04FF4FA6927E0FF
:101BC000ACF16403952B02D84FF0320920E04FF4BA
:101BD000FA691DE0BCF5FA6F0DDABCF5487F2BDA27
:101BE000ACF5C873B3F5C87F02D24FF0C8090FE057
:101BF0004FF4FA690CE0ACF5FA63B3F5FA6F02D86A
:101C00004FF47A7904E04FF4FA6901E04FF0640987
:101C1000002D14DB09F1FF344444CA4694FBF9F467
:101C200014FB09F424B2CDF810C038E04FF01409C9
:101C3000EEE74FF4FA69EBE74FF4FA79E8E7C9F118
:101C40000104E9E74FF0000B32E0594B83FB04231A
:101C5000E217C2EB631212B2564906A807F018FD4C
:101C60005FFA80FB0020FFF733F95823009302232B
:101C7000324641462846FFF713FFA0EB4B0080B2E7
:101C8000083000210191FF2300934B4B06AA80B23C
:101C9000FFF78EFB5A20FFF71BF94C4424B2254670
:101CA00006EB0A039C4276DA002CCBD04FF0010BF6
:101CB000A74209DA162300936E233246414628468E
:101CC000FFF7EEFE152866DD162300936E233246DD
:101CD00041462846FFF7E4FE81B2CDF808B0012363
:101CE0000193002300930B46FA220A20FFF774FAAF
:101CF0002F4A82FB0432E317C3EB6213642202FB18
:101D000013431BB2002BA0D02C4981FB0421E21706
:101D1000C2EBA10202EB8202A4EB420212B212B9A0
:101D2000049A632A1DDD254981FB0421E217C2EBD9
:101D3000610202EB8202A21A12B2002AADD1049A09
:101D4000092AAADC1A4981FB0421E217C2EB6112BD
:101D5000DBB2D2B21A4906A807F09AFC5FFA80FB00
:101D600080E76B1D154A82FB0312DB17C3EBA2034E
:101D70009BB2144AA2FB0312D10801EB8101A3EB31
:101D80004103DBB2C2F3C7020D4906A807F080FC8D
:101D90005FFA80FB66E705210B4804F06EFB834683
:101DA0000027CDF814A0B24639E000BF00000010B3
:101DB0001F85EB5168B80008B000002067666666B2
:101DC00070B80008CDCCCCCCBC030020384600F065
:101DD00021FE162600966E2352464146FFF760FE0E
:101DE00004907C1CE7B2384600F014FE00966E2387
:101DF00052464146FFF754FE04EB840404F10A0204
:101E000005EB85050A35002102910123019300911C
:101E100083B292B2BDF81010A8B2FFF7DDF93D46CB
:101E200000F090FE8742D1D3DDF814A000F08AFEC6
:101E300044B201E0083C64B2002C2CDD00F082FECC
:101E40008442F7D004EB8405ADB20A35ADB201236C
:101E5000029301930026009670232A4614212846F7
:101E6000FFF7BAF900F06EFE001B01384FF4E16392
:101E700003FB10B006AF6C4A02446C49384607F0C9
:101E800007FC0196FF230093694B3A4672212846CE
:101E9000FFF78EFACEE7A9F10A039BB2592B40F265
:101EA0009A80B9F1090F00F2A180624AA2FB09925F
:101EB000AAEB52135209604915A807F0E9FB00206C
:101EC0000190FF2300935D4B15AA0146FFF770FABE
:101ED0005B4B1888FEF716FB02460B4650A1D1E972
:101EE0000001FEF7A3FCFEF789FD07EE900A554BB3
:101EF0001860B0EE027AF4EEC77AF1EE10FA7ED4F2
:101F0000002402940125019500947023FA221946B9
:101F10000A20FFF761F902940195009470230A22C8
:101F200014211046FFF758F910A910944C608C60EA
:101F3000CC600C610F94444D2246284604F07EF993
:101F400022460FA9284604F09FF99DF83E308DF8EF
:101F500037309DF83D308DF836309DF83F30ADF884
:101F600034303A4E0194FF27009733460DAA21469C
:101F7000AF20FFF75BFA00F0E5FD0138C0B200F0DA
:101F800049FD054600F0DEFD0138C0B200F042FD1B
:101F9000284AA2FB00135B094FF0640808FB1303F7
:101FA000A2FB05120AAD9BB2C2F34F122849284684
:101FB00007F06EFB0194009733462A4621465520D0
:101FC000FFF7F6F92348FEF7EFFE404600F010FE5B
:101FD00019B0BDE8F08F174AA2FB0992AAEB521381
:101FE00052091D4915A807F053FB68E7114BA3FBE5
:101FF00009325209194915A807F04AFB5FE700208A
:10200000FEF766FF164B00931A2310225F216B2008
:10201000FFF7D8FA5A20FEF75BFF71E7AFF30080B5
:102020009999999919E0B24000B5499868B80008A3
:10203000B00000201F85EB5184B80008A0000020EC
:10204000C8020020CC020020BC030020A800002011
:10205000A0B800080000001078B8000894B8000884
:102060002CCC000810B586B00446FEF7CAFEFEF779
:10207000D3FE1B4A136E23F480531366194804F0F1
:1020800081FB01A9002301934B608B60CB600B6146
:10209000FA230193032302934FF0904001F0FCFDDB
:1020A00000F0BAFD4FF0FF3001F0A6FC5CB10E4B22
:1020B0009B6913F4806F01D10A2105E00B4804F0FD
:1020C000B2F9014600E00A2100230422074804F087
:1020D000F9F803F0E7F8012003F0ECF806B010BDC2
:1020E000001002405803002000280040BC030020DC
:1020F00010B582B0114C12492046FFF714FC20465F
:10210000FFF7D9FB2046FFF7E7FB2046FFF764FB0C
:10211000E37B8DF80430A37B8DF805307F238DF8A9
:1021200006302046FFF7C7FB2046FFF7F2FB01A968
:102130002046FFF7ABFB02B010BD00BFB00200208D
:10214000D002002010B50B4C2046FFF7B4FB204610
:10215000FFF7DFFB01212046FFF70FFB2046FFF7CB
:10216000AAFB2046FFF7D5FB2046FFF735FB94ED91
:10217000050A10BDB00200202DE9F0419CB017AF58
:1021800000241794189419941A941B944FF09043B8
:1021900017934FF00108ADF8608012AE12941394BB
:1021A00014941594169412934FF48072ADF84C2049
:1021B0000DAD0D940E940F94109411940D934FF453
:1021C0000073ADF83830244B0B938DF83040234B1F
:1021D00093E8030009908DF82810214B07938DF8A0
:1021E000204000F0FFFC3846FFF70FFA2846FFF7C3
:1021F0000CFA3046FFF709FA3846FFF752FA304634
:10220000FFF74FFA2846FFF74CFA02AD0294039409
:1022100004940594069401940C238DF80830192336
:102220008DF8073003238DF8053018238DF806301C
:102230008DF804804FF4803305930A4E224601A99D
:10224000304603F0A0FF22462946304603F035FF12
:102250001CB0BDE8F08100BF1903180CA8B8000835
:1022600000010100BC03002008B589B206F0C4F9E2
:1022700008BD000008B5044B01221A7005F0D8FE15
:10228000024B187008BD00BFAD020020AE02002056
:10229000012801D000BF704708B505F0C9FE10B98C
:1022A000014B01221A7008BDAC02002072B6FEE795
:1022B00008B51148114B03604FF4827343604FF42B
:1022C000004383604FF4E063C36000230361436114
:1022D0004FF4007282611822C2610362436283621A
:1022E0000722C26203630823436304F0DCF900B9E8
:1022F00008BDFFF7DBFF00BF58030020003001409E
:1023000030B587B000250195029503950495059594
:102310000095244C0621204604F0AFF8224B2360A0
:10232000A5607F23E360FF2323616561A561E5610B
:102330004FF0804323626562204603F057FE40BBA6
:1023400000238DF804308DF805308DF806304FF4F9
:10235000803204920593012201A9124803F0ADFED8
:10236000C8B901228DF800208DF801208DF80220D7
:1023700025238DF8033069460A4803F004FF60B94D
:10238000002304221E21074803F09CFF38B907B040
:1023900030BDFFF78BFFFFF789FFFFF787FFFFF7E0
:1023A00085FF00BFBC0300200028004008B50B4893
:1023B0000B4B03604FF4E133436000238360C36041
:1023C00003610C2242618361C3610362436204F0D2
:1023D00072FE00B908BDFFF769FF00BFD002002000
:1023E0000044004000B58BB0002307930893099385
:1023F0000193029303930493059306931C481D4A8B
:10240000026043608360C36003610422426103761B
:1024100001224276C26180F820308362C36280F874
:102420003030436380F8383000F032FCD0B90023FC
:10243000079307A90E4801F0D9F9A8B90E4B0193EB
:1024400006230293002303937F2204920422059221
:1024500006930DEB0201064800F0B2FE30B90BB056
:102460005DF804FBFFF722FFFFF720FFFFF71EFFD9
:1024700030040020000004500100008000B597B037
:102480004422002105A807F027F9002300930193B7
:102490000293039304934FF4007002F0B3FE38BB31
:1024A00002F0A0FE154AD2F8903023F01803C2F8CB
:1024B000903034230593012307930F930C9300234B
:1024C0000D9380220E92109305A802F0ADFF88B9FB
:1024D0000F2300930021019102910391049168461A
:1024E00003F010FB40B903F015FD17B05DF804FBD5
:1024F000FFF7DCFEFFF7DAFEFFF7D8FE0010024020
:1025000008B5074803F050FF00F08DFBFFF7B6FF5A
:10251000FFF710FAFFF7CCFEFEF7F6FB08BD00BF91
:10252000BC03002010B52DED028B044600283CD0E2
:10253000FFF7E6FF00F0B8FAFFF704FE9FED218AEF
:1025400020EE080ABCEEC00A10EE103A98B200F075
:10255000EFF9FFF7F7FD20EE080ABCEEC00A10EE17
:10256000103A98B200F0E4F9FFF7ECFD20EE080A0B
:10257000BCEEC00A10EE103A98B200F0D9F9FFF79D
:10258000E1FD20EE080ABCEEC00A10EE103A98B247
:1025900000F0CEF9FFF79CFA00F04CFA54B100209D
:1025A000FFF760FDBDEC028B10BD0821064806F068
:1025B00023F8BFE7002304220A21044803F082FE27
:1025C000F0E700BF0000C842B0B80008BC0300201C
:1025D000F8B52DED028B00F0E3FAFFF74FFFFFF7A0
:1025E000A9F9FFF743FAFFF763FEFFF789FEFFF74C
:1025F000DDFEFFF7F7FE05F025FD012254495548A1
:1026000001F06AF8FFF774FDFEF77EFB00F082F937
:1026100000F04AFA002841D00120FFF723FDFFF720
:102620006FFFFFF78FFD9FED4C8A60EE087AFCEE9E
:10263000E77A17EE903A98B200F07AF9FFF782FD48
:1026400060EE087AFCEEE77A17EE903A98B200F066
:102650006FF9FFF777FD60EE087AFCEEE77A17EE88
:10266000903A98B200F064F9FFF76CFD60EE087ADA
:10267000FCEEE77A17EE903A98B200F059F900F0C4
:10268000D9F9FFF725FA05F0D3FC50B10023042255
:102690000A21324803F016FE002446E0FFF76CFDE5
:1026A000BFE70020FFF7DEFCF6E700262C4B1E708C
:1026B0002C4D287880F00100FFF734FF2E7038E0B1
:1026C000294B00221A70FFF71BFF00F08BFA05461A
:1026D00002E005F0ADFCA8B900F084FA431B41F21A
:1026E000873293420ED81E4B1B78002BF1D0002767
:1026F0001B4B1F701B4E307880F00100FFF712FF5C
:102700003770E6E7194B9B6913F4806F15D0134DB2
:10271000284603F088FE014600230422284603F0E1
:10272000D1FD0AE005F084FC04460D4B1B78002B1C
:10273000BBD10D4B1B78002BC2D105F079FC0028D2
:10274000F0D1002CEED00120FFF78CFCEAE700BFAF
:10275000C8020020300400200000C842BC03002052
:10276000AD020020AE020020AC0200200028004094
:1027700010B5044641600268304B9A4230D003F0F5
:102780008BFA0246E369B3F5004F2DD00021901873
:102790004941801841F10001C90041EA5071C0006F
:1027A000801863684FEA83024FEA937341F1000196
:1027B000FEF774F9224AA2FB00314909642303FBA6
:1027C00011031B013233A2FB03235B0903F0F00268
:1027D00002EB011203F00F0321681344CB6010BD1C
:1027E00003F05AFA0246CDE70023901843EB0301A9
:1027F000801841F10001C90041EA5071C000801801
:1028000041F10001626892185B41FEF747F90C4AFA
:10281000A2FB00314909642303FB1103DB003233BF
:10282000A2FB03235B095A0002F4F87202EB0112C7
:1028300003F0070321681344CB60D0E70038014060
:102840001F85EB5110B582B00446FF238DF8073089
:1028500000238DF8063009B98DF807300A230122CC
:102860000DF10701204604F0D3FA0A2301220DF1ED
:102870000601204604F030FB9DF8060002B010BDB2
:102880002DE9F04107460E460024254606E00123C7
:1028900003FA08F32B43DDB20134E4B2072C0BD862
:1028A000A04646FA04F101F001013846FFF7CAFFDD
:1028B000FF28ECD00023EBE72846BDE8F08110B5F7
:1028C00082B00446F0238DF8073000238DF80630DF
:1028D0004FF41651FFF74CFF0A2301220DF10701B7
:1028E000204604F095FA0A2301220DF10601204644
:1028F00004F0F2FA4FF4E1312046FFF739FF9DF87A
:1029000006209DF807309A4202D0002002B010BD88
:102910000120FBE7054B002283F8602083F8632049
:10292000012183F8621083F8612070479804002029
:1029300030B591B0344A92F8603022F81300013378
:10294000DBB282F8603092F86310013182F86310D4
:102950002F2B05D91346002283F8622083F86020CC
:10296000294B93F862303BB9274B93F8602083F8EA
:1029700061202F2283F863200BA900240B944C6064
:102980008C60CC600C610A94204D2246284603F0EE
:1029900055FC22460AA9284603F076FC9DF82B3008
:1029A000643306939DF82930013B05939DF82A3046
:1029B00004939DF82C3003939DF82D3002939DF8DD
:1029C0002E3001930123099301A806F05FFF04460E
:1029D00002F008FC0E4B1B7863B10C4C052120461D
:1029E00003F04BFD00F5E1620521204603F036FDC2
:1029F00011B030BD22460521284603F02FFD044BBF
:102A000001221A70E9E700BF98040020BC030020EF
:102A100094040020064B93F861301844C0B22F286C
:102A200001D93038C0B2024B33F81000704700BFF4
:102A30009804002010B502F0D5FB184A062118486A
:102A400003F00CFD00240EE06300164931F8242049
:102A5000013331F8133043EA024204F1080110480F
:102A600003F0FCFC0134172CEEDD0E4A92F86310E3
:102A700092F861301B0443EA016392F8601043EA64
:102A8000012392F8622032B101221A43072104483F
:102A900003F0E4FC10BD0022F7E700BFFF55FFAADA
:102AA000BC030020980400202DE9F04106212248B3
:102AB00003F0E3FC214B98423BD1002413E004F1E6
:102AC00008081D4F4146384603F0D7FC6500000C4E
:102AD0001B4E26F815004146384603F0CEFC013562
:102AE00026F815000134172CE9DD134D072128467F
:102AF00003F0C3FC000E124C84F863000721284643
:102B000003F0BBFCC0F3074084F8610007212846AE
:102B100003F0B3FCC0F3072084F8600007212846C7
:102B200003F0ABFC00F0010084F862000120BDE876
:102B3000F0810020FBE700BFBC030020FF55FFAA87
:102B400098040020014B93F863007047980400201C
:102B5000104B1B780BB90120704710B504464FF499
:102B60007A70B0FBF3F30C4A1068B0FBF3F000F09E
:102B700047FF68B90F2C01D901200AE00022214645
:102B80004FF0FF3000F024FF044B1C60002000E0F9
:102B9000012010BDB8000020C4000020BC000020AF
:102BA00010B5094A136843F480731360032000F0E2
:102BB000FDFE0F20FFF7CCFF10B10124204610BD11
:102BC000044601F0E1F9F9E700200240034B1B78CD
:102BD000034A11680B441360704700BFB80000201F
:102BE000FC040020014B1868704700BFFC04002063
:102BF00038B50446FFF7F6FF0546B4F1FF3F02D0B3
:102C0000044B1B781C44FFF7EDFF401BA042FAD396
:102C100038BD00BFB80000204FF0E022136923F058
:102C20000203136170474FF0E022136943F002037F
:102C30001361704710B430300B0A9B0003F00C0393
:102C4000C45801F01F014FF01F0C0CFA01FC24EADC
:102C50000C0CC2F384628A404CEA0202C2505DF856
:102C6000044B704710B414304B0E9B0003F0040368
:102C7000C458C1F304514FF0070C0CFA01FC24EACC
:102C80000C0C8A404CEA0202C2505DF8044B7047BB
:102C900030B583B000230193002800F0D9800446AA
:102CA000436D13B323689A6812F0005F05D09A68E9
:102CB00022F0204222F03F029A602268936813F0CB
:102CC000805F1FD1936823F0104323F03F0343F04C
:102CD000805393605F4B1B689B095F4AA2FB0323F1
:102CE0009B0901335B00019309E001F065F90023C2
:102CF000A36584F85030D5E7019B013B0193019B0C
:102D0000002BF9D12268936813F0805F79D1636D4D
:102D100043F010036365A36D43F00103A365012035
:102D2000936813F0040300D00123616D11F0100FBC
:102D300040F08780002B40F08480636D23F4817322
:102D400043F002036365936813F0010F12D1434B04
:102D50009B6813F0010300D00123414A926812F0EE
:102D6000010F07D133B963683E498A6822F47C12A7
:102D700013438B60627E636B43EA4233E268134322
:102D8000A268134394F8202043EA0243012A3AD070
:102D9000A26A22B102F47072E16A0A431343216805
:102DA000CD68314A2A401A43CA602268936813F0FA
:102DB000080300D00123ABB9237E94F830104900FA
:102DC00041EA8331D36823F4804323F002030B43A9
:102DD000D36094F83830012B1AD02268136923F09D
:102DE000010313612369012B22D02268136B23F0A6
:102DF0000F031363636D23F0030343F00103636563
:102E000024E000208CE7626A013A43EA4243BFE7CC
:102E100021680B696FF38A03E26B256C2A43656CAA
:102E20002A43A56C2A43134343F001030B61D9E7FE
:102E300021680B6B23F00F03E269013A13430B6324
:102E4000D8E7636D43F010036365012003B030BD24
:102E50000120FBE7C4000020632D3E050000045064
:102E6000000104500003045007C0F0FF7047704792
:102E700008B5806AFFF7FBFF08BD70477047000088
:102E8000F8B5044603681F685D689A4B9E6806F0B3
:102E90001F0617F0020F10D015F0020F0DD0436D72
:102EA00013F0100F03D1436D43F4006343652046D4
:102EB00000F09AFC236802221A6017F0040F02D077
:102EC00015F0040F05D117F0080F4DD015F0080FBD
:102ED0004AD0636D13F0100F03D1636D43F4007398
:102EE00063652368DA6812F4406F37D1824A9342EF
:102EF00027D01A46934207D0092E25D840F2212127
:102F0000F14011F0010F1FD0DA6812F4005F25D1F3
:102F10001A6812F0080F21D09A6812F0040F15D128
:102F20005A6822F00C025A60636D23F48073636563
:102F3000636D13F4805F11D1636D43F0010363652A
:102F40000CE0A2F58072D5E7D268DEE7636D43F04E
:102F500010036365A36D43F00103A3652046FFF7EB
:102F600085FF23680C221A6017F0200F02D015F09D
:102F7000200F05D117F0400F5CD015F0400F59D04D
:102F8000636D13F0100F03D1636D43F40053636559
:102F90002368DA6C12F0C00F12D10121DA6812F442
:102FA000406F0FD10120544A93420DD01A469342EC
:102FB0000DD066B1062E0AD0072E08D0D26807E0E1
:102FC0000021EBE70020EEE7A2F58072EFE7DA6878
:102FD00051B312F0007F03D030B312F4005F23D15D
:102FE000196811F0400F1FD012F4001F1CD19A680D
:102FF00012F0080F10D15A6822F060025A60636D17
:1030000023F480536365636D13F4807F0CD1636D8B
:1030100043F00103636507E0636D43F010036365EC
:10302000A36D43F00103A365204600F0D9FB23689C
:1030300060221A6017F0800F02D015F0800F2FD198
:1030400017F4807F02D015F4807F34D117F4007F0D
:1030500002D015F4007F3AD117F0100F19D015F0F7
:10306000100F16D0636B33B1002E3CD0214B9B6800
:1030700013F4604F0AD0636D43F480636365A36DFE
:1030800043F00203A3652046FFF7F8FE23681022F1
:103090001A6017F4806F02D015F4806F2ED1F8BD3E
:1030A000636D43F4803363652046FFF7E6FE2368D3
:1030B00080221A60C4E7636D43F4003363652046E1
:1030C00000F090FB23684FF480721A60BEE7636DD6
:1030D00043F480236365204600F085FB23684FF4AA
:1030E00000721A60B8E72368DB6813F0010FCDD0D7
:1030F000C1E700BF0003045000010450636D43F4B6
:1031000080436365A36D43F00803A36523684FF410
:1031100080621A60204600F064FBC0E708B50346F1
:10312000806A426D12F0500F30D1436D43F400734A
:10313000436503681A6812F0080F14D0DA6812F4B5
:10314000406F20D1DB6813F4005F1CD1436D23F482
:1031500080734365436D13F4805F14D1436D43F076
:10316000010343650FE0DB6813F0020F0BD1436DE1
:1031700023F480734365436D13F4805F03D1436D83
:1031800043F001034365FFF771FE08BD426D12F085
:10319000100F04D1C26C526B18469047F5E7FFF749
:1031A0006DFEF2E708B5806A436D43F04003436566
:1031B000836D43F004038365FFF760FE08BD0000E4
:1031C000F0B583B00023019390F85030012B00F04C
:1031D0000B8204460D46012380F850300068836856
:1031E00013F0040F09D0636D43F0200363650120E1
:1031F000002384F8503003B0F0BD4968052907D892
:103200000239032971D8DFE801F002726B6D0C21DD
:103210002A68FFF70FFD2068836813F0040300D0CD
:103220000123826812F0080200D0012223BB1ABBDE
:10323000AA68B2F1004F5CD02968FFF713FD22683D
:10324000536923F00043536169692268D368C3F36B
:10325000C1035B0099402869042854D02E6860326D
:1032600052F82070A74B3B4006F0F84631430B4321
:1032700043F0004342F820302268936813F0010FB6
:1032800017D12B68E868D2F8B010C3F3120621EA10
:10329000060100F0180C9C4820FA0CF00340C3F320
:1032A00012030B43C2F8B030EA68984B9A4200F020
:1032B00091802B68964A134200F09281954A926859
:1032C00002F0E07094498B4200F03D8193498B42BB
:1032D00000F05F8192498B4200F06F81002087E708
:1032E000182195E74FF4807192E7062190E71221AB
:1032F0008EE700222968FFF7B5FC2268536943F086
:1033000000435361A0E7136E116EC1F384612B6813
:10331000C3F3120078BBC3F38463994233D02168AE
:103320004B6E4A6EC2F384622B68C3F3120078BB03
:10333000C3F384639A4233D021688B6E8A6EC2F3E2
:1033400084622B68C3F3120078BBC3F384639A4290
:1033500033D02168CB6ECA6EC2F384622B68C3F38C
:10336000120078BBC3F384639A4285D1CB6E23F0FD
:103370000043CB6680E793FAA3F313B1B3FA83F368
:10338000CBE72023C9E7136E23F000431366C6E79B
:1033900093FAA3F313B1B3FA83F3CBE72023C9E77E
:1033A0004B6E23F000434B66C6E793FAA3F313B1C9
:1033B000B3FA83F3CBE72023C9E78B6E23F00043F6
:1033C0008B66C6E793FAA3F313B1B3FA83F3CBE7A3
:1033D0002023C9E720682B68C3F3120626BB9A0E88
:1033E000013202F01F02092A8CBF00220122002AAA
:1033F00052D046BB990E0131890601F0F84176BBE7
:103400009F0E013707F01F070122BA401143AEBBE0
:103410009B0E013303F01F0303EB43031B0519430A
:10342000AA68FFF71FFC44E793FAA3F24AB1B2FA85
:1034300082F2013202F01F02092A8CBF002201220F
:10344000D5E72022F5E793FAA3F131B1B1FA81F182
:103450000131890601F0F841D1E72021F8E793FA1C
:10346000A3F24AB1B2FA82F2013202F01F024FF027
:10347000010C0CFA02F2C9E72022F5E793FAA3F354
:1034800043B1B3FA83F3013303F01F0303EB4303A8
:103490001B05C4E72023F6E7CEB9990E0131890652
:1034A00001F0F841FEB99F0E013707F01F07012216
:1034B000BA401143B6BB9B0E013303F01F0303EB6D
:1034C00043031E3B1B0543F000731943A8E793FA1F
:1034D000A3F131B1B1FA81F10131890601F0F8416E
:1034E000E0E72021F8E793FAA3F24AB1B2FA82F2B8
:1034F000013202F01F024FF0010C0CFA02F2D8E781
:103500002022F5E700F0FF03FFFF070000007F40E7
:103510000000088000030450000052C7000084CB64
:103520000100008093FAA3F35BB1B3FA83F3013394
:1035300003F01F0303EB43031E3B1B0543F0007323
:10354000C3E72023F3E712F4000F7FF4BFAE226835
:10355000264B9A4201D000204AE640F40003244959
:103560008A6822F0E07213438B60224B1B689B0930
:10357000214AA2FB03239B09013303EB43039B0076
:103580000193019B1BB1019B013B0193F9E70020D3
:103590002EE612F0807F7FF49DAE2268134B9A4294
:1035A00001D0002024E640F0807311498A6822F09F
:1035B000E07213438B6000201AE612F4800F11D1E1
:1035C00022680A4B9A4201D0002011E640F48003A1
:1035D00007498A6822F0E07213438B60002007E6F7
:1035E000002005E6002003E6022004E60000045067
:1035F00000030450C4000020632D3E0530B583B0A5
:103600000023019303689A6812F0010F58D1044611
:1036100099682D4A114219D19A6822F0004222F08D
:103620003F0242F001029A60284B9B6813F4000F9E
:103630001CD0274B1B689B09264AA2FB03239B092E
:10364000013303EB43039B0001930CE0436D43F014
:1036500010034365836D43F001038365012030E06F
:10366000019B013B0193019B002BF9D1FFF7BAFAB3
:10367000054623681A6812F0010F1FD19A6812F0EC
:10368000010F07D19A6822F0004222F03F0242F077
:1036900001029A60FFF7A6FA431B022BE9D92368BF
:1036A0001B6813F0010FE4D1636D43F010036365F1
:1036B000A36D43F00103A365012002E0002000E0B8
:1036C000002003B030BD00BF3F0000800003045065
:1036D000C4000020632D3E05F8B504463B4B9D68B1
:1036E0000068806810F0040F6CD10E46174605F094
:1036F0001F0594F85030012B66D0012384F8503018
:10370000092D05D840F22123EB4013F0010F04D11D
:10371000002384F85030012055E02046FFF76EFF6B
:1037200000284BD1636D23F4706323F0010343F44D
:10373000807363652368264A934239D01A469342C0
:1037400000D01DB9636D23F480136365636D13F4BA
:10375000805F30D0A36D23F00603A365E36C1D4AA0
:10376000DA62E36C1C4A1A63E36C1C4A5A632368EE
:103770001C221A60002384F850302268536843F0FA
:10378000100353602268D36843F00103D3602168BB
:103790003B4632464031E06C00F0E2F92268936823
:1037A00023F0004323F03F0343F0040393600AE057
:1037B000A2F58072C3E70023A365CFE7002384F856
:1037C000503000E00220F8BD0220FCE70003045066
:1037D000000104501D310008712E0008A5310008B9
:1037E00070477047704770477047000090F850204E
:1037F000012A7FD010B49BB00346012280F85020EC
:1038000000221692179200683B4A904237D000225D
:103810000192019A002A36D0926812F0040200D078
:103820000122806810F0040F50D1002A4ED10A689E
:10383000002A31D0314CA26822F46042486893F8E3
:1038400030C040EA4C300243A2602B4A926812F02A
:10385000010200D001222A48806810F0010F41D1F6
:10386000002A41D1254CA26822F4716222F00F0295
:103870000868896801430A43A26000202BE002F532
:1038800080720192C5E75A6D42F020025A6500220B
:1038900083F85020012021E018498A6822F4604210
:1038A0008A60154A926812F0010200D00122144980
:1038B000896811F0010F19D1D2B910498A6822F430
:1038C000716222F00F028A60002004E05A6D42F01B
:1038D00020025A650120002283F850201BB05DF8B9
:1038E000044B70470020F6E70020F4E70020F2E7E1
:1038F0000020F0E70220704700000450000304504D
:1039000000010450002807DB00F01F0240090123DA
:103910009340024A42F82030704700BF00E100E0C7
:1039200000280CDB00F01F024009012393402030E7
:10393000034A42F82030BFF34F8FBFF36F8F7047B9
:1039400000E100E0002808DB0901C9B200F1604095
:1039500000F5614080F80013704700F00F00090186
:10396000C9B2014B1954704714ED00E000B500F0E6
:103970000700C0F1070CBCF1040F28BF4FF0040C86
:10398000031D062B0FD9C31E4FF0FF3E0EFA0CF09D
:1039900021EA000199400EFA03FE22EA0E0241EAF2
:1039A00002005DF804FB0023EEE70000074AD3683D
:1039B00023F4E0631B041B0C000200F4E0600343EB
:1039C00043F0BF6343F40033D360704700ED00E081
:1039D00010B50446054BD868C0F30220FFF7C6FFB8
:1039E00001462046FFF7AEFF10BD00BF00ED00E02E
:1039F00008B5FFF787FF08BD08B5FFF791FF08BDC1
:103A00000138B0F1807F0BD24FF0E0235861054AB6
:103A1000F02182F823100020986107221A61704774
:103A20000120704700ED00E030B4446C04F01C0C41
:103A3000012404FA0CF4056C6C600468636083680C
:103A4000102B05D0036899600368DA6030BC7047BA
:103A500003689A600368D960F8E70000002871D015
:103A600010B403460168384A914248D8374A0A449C
:103A70003748A0FB0202120992005A64354A1A64C0
:103A8000022283F8252008686FF30E109A68DC681C
:103A900022431C6922435C6922439C692243DC69FE
:103AA00022431C6A224302430A609A68B2F5804F9F
:103AB0001BD0196C274A91422CD0264AD2F8A81460
:103AC000586C00F01C0C0F2000FA0CF021EA0001E9
:103AD000C2F8A814D2F8A81458685C6C04F01C0C46
:103AE00000FA0CF00143C2F8A8140020D8630122A8
:103AF00083F8252083F824005DF8044B7047164AAC
:103B00000A441348A0FB0202120992005A64134AA5
:103B10001A64B5E7D2F8A810586C00F01C0C0F20FE
:103B200000FA0CF021EA0001C2F8A810D2F8A8109F
:103B300058685C6C04F01C0C00FA0CF00143C2F8ED
:103B4000A810D2E70120704707040240F8FFFDBF2C
:103B5000CDCCCCCC00000240F8FBFDBF00040240FD
:103B600038B5044690F82400012831D0012084F8AB
:103B7000240094F82500012804D0002384F8243080
:103B8000022038BD022084F825000020E06325686B
:103B9000286820F0010028602046FFF745FF236BCE
:103BA0005BB12268136843F00E0313602268136848
:103BB00043F0010313600020E3E72268136823F059
:103BC000040313602268136843F00A031360EDE7EF
:103BD0000220D6E738B5036C196804682568436C81
:103BE00003F01C0304229A400A4215D015F0040F7A
:103BF00012D0236813F0200F03D1236823F00403AD
:103C00002360436C03F01C02016C042393404B605F
:103C1000036B03B1984738BD02229A400A421CD078
:103C200015F0020F19D0236813F0200F06D1236876
:103C300023F00A032360012380F82530436C03F04E
:103C40001C02016C022393404B60002380F8243057
:103C5000C36A002BDFD09847DDE7082202FA03F39E
:103C60000B42D8D015F0080FD5D0236823F00E03EF
:103C70002360436C03F01C03016C012202FA03F37E
:103C80004B60C26380F82520002380F82430436B0A
:103C9000002BC0D09847BEE7F0B583B0002362E0A8
:103CA00085685E000324B44025EA0405CC68B4406E
:103CB0002C438460456825EA0C054C68C4F3001465
:103CC0009C402C4344605FE0DD08083550F82540F7
:103CD00003F0070C4FEA8C0C4FF00F0E0EFA0CFE9F
:103CE00024EA0E0E0C6904FA0CF444EA0E0440F8BF
:103CF000254060E0032400E0002404FA0EF42C4385
:103D00000CF1020C4F4D45F82C404F4CA568D443A4
:103D100025EA02064F6817F4801F01D042EA050623
:103D2000494DAE60ED6804EA05064F6817F4001FC0
:103D300001D042EA0506444DEE606D6804EA0506CE
:103D40004F6817F4003F01D042EA05063E4D6E6011
:103D50002D682C404E6816F4803F01D042EA0504DD
:103D6000394A146001330A6832FA03F468D04FF01C
:103D7000010C0CFA03FC1CEA0202F3D04C6804F0BC
:103D80000304013C012C8BD94C6804F00304032C80
:103D90000CD0C4685D004FF0030C0CFA05FC24EA5B
:103DA0000C0C8C68AC4044EA0C04C4604C6804F011
:103DB0000304022C88D004684FEA430E4FF0030C32
:103DC0000CFA0EFC24EA0C0C4C6804F0030404FA10
:103DD0000EF444EA0C0404604C6814F4403FC1D073
:103DE0001A4C256E45F001052566246E04F0010489
:103DF0000194019C4FEA930C0CF10205114C54F80C
:103E0000255003F0030E4FEA8E0E0F2404FA0EF431
:103E100025EA0405B0F1904F3FF46EAF0C4CA04280
:103E20000AD004F58064A04208D004F58064A04262
:103E30003FF460AF072460E701245EE702245CE7FB
:103E400003B0F0BD0000014000040140001002403A
:103E500000040048002331FA03F274D0F0B52EE0DC
:103E6000032500E0002505FA0CF5A5424FD00468B3
:103E70005D004FF0030C0CFA05FC44EA0C040460EE
:103E80004FEAD30E0EF1080E50F82E4003F007064D
:103E9000B6000F25B54024EA050440F82E4084689A
:103EA00024EA0C048460446824EA02024260C26886
:103EB00022EA0C02C260013331FA03F242D001223D
:103EC0009A4012EA0107F6D04FEA930E0EF102056E
:103ED0001D4C54F8254003F0030C4FEA8C0C0F25C1
:103EE00005FA0CF63440B0F1904FBBD0174DA84204
:103EF00009D005F58065A84207D005F58065A84280
:103F0000AED00725AFE70125ADE70225ABE7104CA2
:103F1000256825EA07052560656825EA07056560C7
:103F2000E56825EA0705E560A56825EA0705A560B7
:103F3000054F0EF1020457F8245025EA060547F80C
:103F4000245094E7F0BD7047000001400004004891
:103F5000000401400369194201D00120704700208C
:103F600070470AB1816170478162704708B5054B9F
:103F70005B69034200D108BD024B5861FEF788F926
:103F8000F9E700BF0004014082B00A4B1A6E42F00C
:103F900001021A661A6E02F001020092009A9A6DEE
:103FA00042F080529A659B6D03F080530193019B10
:103FB00002B070470010024002681C4B9A4200D0C9
:103FC000704710B582B0044603F17043A3F5F8338F
:103FD000DA6C42F40052DA64DB6C03F400530193B0
:103FE000019B1348134B0360002343608360C3604D
:103FF000802202614FF4807242614FF480628261DC
:104000002022C2610362FFF729FD60B9084BE36417
:104010009C62002211461220FFF7DAFC1220FFF703
:10402000E7FC02B010BDFEF741F9EFE700000450D5
:10403000E80300200800024010B58EB00446342288
:10404000002101A805F048FB2268114B9A4201D0DB
:104050000EB010BD4FF4003301934FF480730D93F5
:1040600001A801F03DFE78B90A4AD2F8903043F435
:104070000043C2F89030002211460320FFF7A8FC4D
:104080000320FFF7B5FCE3E7FEF710F9ECE700BF0C
:10409000002800400010024000B589B000230393BF
:1040A00004930593069307930268134B9A4202D038
:1040B00009B05DF804FB03F560431A6E42F48052C8
:1040C0001A661A6E02F480520192019ADA6C42F07A
:1040D0000102DA64DB6C03F001030293029B82238A
:1040E00003930223049306930523079303A94FF038
:1040F0009040FFF7D1FDDBE70030014008B50268D2
:10410000074B9A4200D008BD064A136E23F4805331
:10411000136682214FF09040FFF79CFEF3E700BF4B
:10412000003001400010024010B594B00446002158
:104130000F911091119112911391342202A805F060
:10414000CBFA2268184B9A4201D014B010BD02235A
:10415000029302A801F0C4FD10BB144B9A6D42F407
:1041600000329A659A6D02F400320092009ADA6C7D
:1041700042F00102DA64DB6C03F001030193019B5E
:1041800004230F93122310930123119303231293FB
:10419000072313930FA94FF09040FFF77DFDD4E75D
:1041A000FEF784F8D9E700BF004400400010024049
:1041B00038B512F4804F43D00468B4F8503091F809
:1041C00000C04FEACC0E1EFA83F32344B3F8024436
:1041D000C4F309048B69A34228D31B1B8B618B6931
:1041E0007BB9056835F82C309BB223F4804323F06B
:1041F000700383F4005343F4004343F0800325F835
:104200002C3012F0400F0ED002680D7832F82530B5
:104210009BB223F4E04323F0700343F4004343F0E4
:10422000C00322F8253024B9204638BD00238B6115
:10423000D5E723460A894969006803F0B3FEF3E72E
:104240000468B4F8503091F800C04FEACC0E1EFA62
:1042500083F32344B3F80644C4F309048B69A342EF
:104260002FD31B1B8B618B697BB9056835F82C300C
:104270009BB223F4804323F0700383F4005343F490
:10428000004343F0800325F82C3012F0400F0FD18B
:10429000026891F800C032F82C309BB223F4E0435E
:1042A00023F0700343F4004343F0C00322F82C30A2
:1042B000002CB9D023464A894969006803F072FE90
:1042C000B2E700238B61CEE738B5002875D00446ED
:1042D00090F89132A3B1032384F8913200236371E3
:1042E000206802F061FF234653F8040B0ECB02F066
:1042F0004BFF50B1022384F891320125284638BD86
:1043000080F8903204F092F9E5E70021206802F08D
:1043100055FF0346A8B902462079904216D902EB10
:10432000820104EBC101012048740A740020C874A2
:1043300008624862013202EB8201C9006050D2B2C9
:10434000EAE7022384F891320125D7E7984217D98A
:1043500003EB830204EBC202002182F8511182F8C0
:10436000503182F85311C2F86011C2F8641103EBA6
:10437000830204EBC202C2F868110133DBB2E5E745
:10438000234653F8040B0ECB02F01AFF054658B92A
:1043900000236373012384F89132E37A012B08D060
:1043A000206803F01AFBA9E7022384F89132012563
:1043B000A4E7204600F0FFFEF2E701259EE790F813
:1043C0009032012B0ED010B50446012380F89032B4
:1043D000006802F0E0FE206803F0F4FA002084F8A0
:1043E000900210BD0220704770B505460C46164677
:1043F00012F0400F00F020810268B2F850300978C6
:104400004FEAC10C1CFA83F31344B3F80224C2F33D
:104410000902A36993422CD99B1AA361A06958B3DE
:1044200016F4804F0DD0286830F821309BB223F469
:10443000E04323F0700343F4404343F0800320F84B
:10444000213094F82430012B00F08D802A682178E7
:1044500032F821309BB223F4E04323F0400383F091
:10446000300343F4004343F0800322F8213000205E
:1044700070BD0023A361D1E76378002B48D12A687F
:10448000B2F8503012FA83F36344B3F80224C2F353
:104490000902A3F80224B3F802246FEA42426FEA49
:1044A000524292B2A3F802242A686378002B3BD1CF
:1044B000B2F8503012FA83F3227803EBC203B3F858
:1044C0000624C2F30902A3F80624B3F806246FEA0F
:1044D00042426FEA524292B2A3F80624E378022BDA
:1044E0002FD02178284604F003F916F4804FBED06F
:1044F0002A68217832F821309BB223F4E04323F07C
:10450000700343F4404343F0800322F82130AEE7C8
:10451000012BC9D12A68B2F8503012FA83F36344F0
:104520000022A3F80224BFE7012BD7D1B2F8503004
:1045300012FA83F3227803EBC2030022A3F80624C5
:10454000CCE72A68217832F821309BB223F4E0438B
:1045500023F0400383F0200343F4004343F080033F
:1045600022F82130BDE7636913446361E3691344B2
:10457000E361216A236999421DD3C91A21626278D5
:10458000002A44D12968B1F8502011FA82F221782A
:1045900002EBC102B2F80214C1F30901A2F802143D
:1045A000ABB9B2F802146FEA41416FEA514189B2E6
:1045B000A2F802142DE021B9002384F82430134618
:1045C000DDE7002384F8243023620B46D7E73E2B37
:1045D0000DD8590813F0010F00D00131B2F80204D0
:1045E00080B2890289B20143A2F8021411E058098D
:1045F00013F01F0F00D10138B2F8021489B2800203
:1046000080B2014341F40041A2F8021401E0012A02
:1046100006D09BB222896169286803F0ECF915E79E
:104620002968B1F8502011FA82F2217802EBC10218
:1046300099B2A2F80214ECE70268B2F85030097897
:10464000C80010FA83F31344B3F80624C2F3090236
:10465000A369934246D39B1AA361A369002B44D05C
:1046600016F4804F0DD1286830F821309BB223F426
:10467000E04323F0700343F4404343F0800320F809
:10468000213094F82430012B7FF4E0AE63691344A9
:104690006361E3691344E361216A23699942C0F0CD
:1046A0009C80C91A216229686278002A40F0C18082
:1046B000B1F8502011FA82F2217802EBC102B2F86F
:1046C0000614C1F30901A2F80614002B40F09180F2
:1046D000B2F806146FEA41416FEA514189B2A2F87B
:1046E0000614A8E00023A361B7E76378002B49D143
:1046F0002A68B2F8503012FA83F30344B3F8022464
:10470000C2F30902A3F80224B3F802246FEA42427A
:104710006FEA524292B2A3F802242A686378002B0F
:104720003CD1B2F8503012FA83F3227803EBC20383
:10473000B3F80624C2F30902A3F80624B3F806244A
:104740006FEA42426FEA524292B2A3F80624E3783B
:10475000022B30D02178284603F0CAFF16F4804F90
:104760007FF485AE2A68217832F821309BB223F499
:10477000E04323F0700343F4404343F0800322F806
:10478000213074E6012BC8D12A68B2F8503012FAF1
:1047900083F303440022A3F80224BEE7012BD6D101
:1047A000B2F8503012FA83F3227803EBC2030022EE
:1047B000A3F80624CBE72A68217832F821309BB28F
:1047C00023F4E04323F0400383F0200343F4004349
:1047D00043F0800322F82130BCE721B9002384F89C
:1047E000243013465FE70023236284F824300B460D
:1047F00059E73E2B0DD8590813F0010F00D00131B5
:10480000B2F8060480B2890289B20143A2F8061404
:1048100011E0580913F01F0F00D10138B2F8061447
:1048200089B2800280B2014341F40041A2F806142B
:1048300001E0012A06D09BB262896169286803F011
:10484000DAF803E6B1F8502011FA82F2217802EB8F
:10485000C10299B2A2F80614EDE72DE9F041054630
:104860002868B0F8443013F4004F00F05582B0F8D7
:104870004440A3B214F00F0440F09F8013F0100FD7
:104880004AD003889AB213F4006F75D112F4004F26
:10489000E6D0038823F070031B051B0D43F0800353
:1048A00003802868B0F8503095F85021D20012FAF1
:1048B00083F30344B3F80634C3F30903C5F86C313A
:1048C0008BB1D5F8641171B1B5F8562103F06AFBCC
:1048D000D5F86431D5F86C211344C5F86431002152
:1048E000284603F0F9FE2A68138899B213F4006F82
:1048F000B6D101F44051B1F5405FB1D013889BB2FD
:1049000023F4804323F0700383F4405343F40043C3
:1049100043F080031380A3E703889BB223F4E143B1
:1049200023F070036FEA43436FEA53439BB2038063
:104930002968B1F850302A7CD20012FA83F30B4474
:10494000B3F80234C3F30903EB626A6A1A446A6279
:104950000021284603F0CCFE6B7B002B80D0AB6A95
:10496000002B7FF47DAF6B7B2A6843F08003A2F8B5
:104970004C3000236B7373E7B0F8503095F850213A
:10498000D20012FA83F30344B3F80634C3F30903E5
:10499000C5F86C31B5F8562105F5267103F002FB18
:1049A0002A68138823F070031B051B0D43F0800356
:1049B0001380284603F088FE52E730F824309EB278
:1049C00013F4004F4ED116F0800F3FF449AF04EBC3
:1049D0008401C900103129442A6832F824309BB27E
:1049E00023F4E14323F070036FEA43436FEA534338
:1049F0009BB222F8243004EB840305EBC303DB7C79
:104A0000012B00F0E98016F4807F40F08081286857
:104A1000B0F8503004EB840205EBC202167CF200C1
:104A200012FA83F30344B3F80234C3F30903621C9C
:104A300002EB820255F832209A4240F24B81671C09
:104A400007EB8707D21A45F83720621C02EB820277
:104A500055F83220002A40F044813146284603F0C0
:104A600047FEFDE630F8243023F070031B051B0DD4
:104A700043F0800320F8243004EB8401C90001F5E1
:104A8000A87105EB010804EB840305EBC30393F85D
:104A90005C31002B40D12868B0F8503004EB840220
:104AA00005EBC20292F85021D20012FA83F30344BC
:104AB000B3F80674C7F3090717BB04EB840305EBCF
:104AC000C303D3F86C213A44C3F86C21D3F86421B2
:104AD0003A44C3F86421D3F868313BB104EB840352
:104AE00005EBC303D3F860319F4270D204EB84031B
:104AF00005EBC30393F85011284603F0EDFD62E780
:104B000004EB840105EBC1013B46B1F85621D1F815
:104B1000641103F047FAD0E704EB840305EBC30309
:104B200093F85331022B33D0296804EB840205EB50
:104B3000C20292F8500131F820309BB223F4E043D6
:104B400023F0700343F4004343F0C00321F8203006
:104B5000286892F8503130F8232012F4804F1ED08C
:104B6000B0F85020DB0013FA82F30344B3F8027468
:104B7000C7F30907002FA0D004EB840105EBC101A6
:104B80003B46B1F85821D1F8641103F00BFA94E7D1
:104B9000324641462846FFF70BFB07468DE7B0F843
:104BA0005020DB0013FA82F30344B3F80674C7F312
:104BB0000907002F81D004EB840105EBC1013B46BE
:104BC000B1F85A21D1F8641103F0ECF975E74146C8
:104BD000286802F022FFF6E6631C03EB8303DB0088
:104BE0000022EA5004EB840305EBC3031B7F1BB3D5
:104BF00016F0400F3BD004EB840305EBC3035B7C52
:104C00001BBB2A68B2F8503012FA83F304EB84021B
:104C100005EBC202127C03EBC203B3F80224C2F319
:104C20000902A3F80224B3F802246FEA42426FEAB1
:104C3000524292B2A3F8022404EB840405EBC404AC
:104C4000217C284603F054FD0AE6012BF4D12A68A2
:104C5000B2F8503012FA83F304EB840205EBC2027F
:104C6000127C03EBC2030022A3F80224E4E72A68C3
:104C700004EB840305EBC3035B7CD3B9B2F850307B
:104C800012FA83F304EB840205EBC202127C03EBFD
:104C9000C203B3F80624C2F30902A3F80624B3F84A
:104CA00006246FEA42426FEA524292B2A3F8062407
:104CB000C2E7012BC0D1B2F8503012FA83F304EBF3
:104CC000840205EBC202127C03EBC2030022A3F8AC
:104CD0000624B1E7621C02EB8202D2000027AF502B
:104CE000B3E604EB840205EBC202566A1E44566228
:104CF000013404EB840205EBC202526804EB840425
:104D000005EBC4041344636002F087FEA8E5324655
:104D10002846FFF769FBA3E50020BDE8F08190F885
:104D20009032012B0CD010B50446012380F890324C
:104D30004173006802F040FE002084F8900210BD2C
:104D40000220704710B50446006802F04EFE10F4D1
:104D5000004F23D110F4806F24D110F4804F32D152
:104D600010F4005F39D110F4805F40D110F4006F6F
:104D700067D110F0800F40F0818010F4007F40F088
:104D8000AD8010F4807F27D02268B2F844309BB207
:104D900023F480739BB2A2F844301DE02046FFF755
:104DA0005CFD19E02268B2F844309BB223F48063C2
:104DB0009BB2A2F84430204603F0ABFC0021204611
:104DC000FFF7ADFF08E02268B2F844309BB223F44D
:104DD00080439BB2A2F8443010BD2268B2F8443040
:104DE0009BB223F400539BB2A2F84430F4E722684C
:104DF000B2F840309BB223F004039BB2A2F84030DB
:104E00002268B2F840309BB223F008039BB2A2F8AC
:104E1000403094F8C832012B0CD0204603F09CFCA3
:104E20002268B2F844309BB223F480539BB2A2F8BC
:104E30004430D1E7002184F8C812204603F07EFDFB
:104E4000EBE72268B2F840309BB243F00803A2F8C7
:104E500040302268B2F844309BB223F400639BB226
:104E6000A2F844302268B2F840309BB243F0040309
:104E7000A2F84030204603F05FFCADE72268B2F8AC
:104E800044309BB223F080039BB2A2F8443094F8E4
:104E9000C832FBB92268B2F840309BB243F0040339
:104EA000A2F840302268B2F840309BB243F00803C9
:104EB000A2F84030012184F8C8122368B3F85430B6
:104EC000C3F38D0303F03C03C4F8CC32204603F057
:104ED00035FD81E7204603F02FFC7DE72268B2F81C
:104EE00044309BB223F400739BB2A2F844302046B6
:104EF00003F009FC70E710B50446084611F0800F76
:104F000027D101F0070C0CEB8C01C90001F5A87E3C
:104F100004EB0E010CEB8C0C04EBCC0C4FF0000EF0
:104F20008CF851E100F007000870C2F30A020A6130
:104F3000CB70022B1DD094F89032012B1CD0012392
:104F400084F89032206802F04CF9002084F8900236
:104F500010BD01F0070C0CEB8C01C900103121448D
:104F60000CEB8C0C04EBCC0C4FF0010E8CF811E028
:104F7000D8E700230B71DEE70220E9E710B504460D
:104F80000A4611F0800F1FD101F0070000EB8003EB
:104F9000DB0003F5A873E11800EB800004EBC00010
:104FA000002380F8513102F007020A7094F8903221
:104FB000012B17D0012384F89032206802F09EFB69
:104FC000002084F8900210BD01F0070000EB800380
:104FD000DB001033E11800EB800004EBC00001237C
:104FE0004374E0E70220EEE710B501F0070C0CEB8C
:104FF0008C01C90001F5A8710CEB8C0E00EBCE0EF4
:10500000CEF86421CEF868310024CEF86C418EF8D9
:1050100051418EF850C10144006802F0FEFC204668
:1050200010BD01F0070101EB810100EBC100D0F8D8
:105030006C01704738B501F0070C0CEB8C01C9000E
:1050400010310CEB8C0E00EBCE0ECEF824200CF1C0
:10505000010202EB820440F8343001258EF834500E
:10506000CEF8303000EBC402002454608EF81150AA
:105070008EF810C00144006802F0CFFC204638BD15
:1050800038B501F007050279AA4235D304460B462C
:1050900011F0800F1ED101EB8101C90001F5A8714B
:1050A000014403EB830300EBC303002283F8512187
:1050B00001238B700D7094F89032012B1ED00123C8
:1050C00084F89032206802F004FC7DB1002084F85E
:1050D000900238BD05EB8501C9001031014405EB94
:1050E000850300EBC30301225A74E1E704F526713E
:1050F000206802F07EFCE9E70120EAE70220E8E709
:105100000B46017903F00F02914234D310B50446E7
:1051100013F0800F21D103F0070202EB8201C900D6
:1051200001F5A871014402EB820200EBC2020020EB
:1051300082F8510100228A7003F007030B7094F883
:105140009032012B19D0012384F89032206802F0AC
:10515000E5FB002084F8900210BD03F0070202EB8B
:105160008201C9001031014402EB820200EBC2024D
:1051700001205074DEE7012070470220ECE711F0B7
:10518000800F0BD001F0070101EB8101C900103144
:10519000084452B90273C3800020704701EB8101BB
:1051A000C90001F5A8710844F3E7012202730381E5
:1051B0001B0C4381F0E7034602680121C0F8D412BA
:1051C000002083F8C802B2F854309BB20B43A2F817
:1051D0005430B2F854309BB243F00203A2F854307A
:1051E00070470000024A136843F4807313607047ED
:1051F00000700040024B186800F4C060704700BFA8
:1052000000700040B0F5007F0FD01F4B1B6803F407
:10521000C063B3F5806F34D01B4A136823F4C063B6
:1052200043F48063136000207047174B1B6803F43E
:10523000C063B3F5007F20D0134A136823F4C06322
:1052400043F400731360114B1B68322202FB03F31B
:105250000F4AA2FB03239B0C013300E0013B0A4AE7
:10526000526912F4806F01D0002BF7D1064B5B69B5
:1052700013F4806F03D10020704700207047032093
:1052800070470020704700BF00700040C40000203D
:1052900083DE1B43024A536843F4806353607047C4
:1052A00000700040024A136843F480431360704763
:1052B000007000400C4A136823F0070343F0020318
:1052C00013600A4A136943F004031361012808D0EC
:1052D00040BF20BF20BF054A136923F004031361B8
:1052E000704730BFF7E700BF0070004000ED00E0FE
:1052F00030B583B00446204B9B6D13F0805F0BD01C
:10530000FFF778FFB0F5007F17D0802C1FD82DD085
:10531000702C2DD000211BE0174DAB6D43F0805356
:10532000AB65AB6D03F080530193019BFFF762FF08
:10533000AB6D23F08053AB65E4E7802C03D9A02C40
:1053400003D9022104E0002102E0012100E0032151
:105350000A4A136823F007030B431360136803F032
:1053600007038B4206D1002003B030BD0221EFE7D6
:105370000121EDE70120F7E7001002400020024084
:10538000254A9368D26802F0030213F00C0309D097
:105390000C2B05D0042B3BD0082B3BD000200FE07A
:1053A000012AF7D11C4A126812F0080F0CD11A4AD0
:1053B000D2F89420C2F30322184951F8220013B105
:1053C0000C2B06D000207047134A1268C2F3031258
:1053D000F2E7114BDB6803F00303022B16D0032B1B
:1053E00000D10F480C49CA68C2F302120132CB68DF
:1053F000C3F3062300FB03F3B3FBF2F3C868C0F367
:10540000416001304000B3FBF0F070470548E9E728
:10541000044870470248704700100240CCCD000895
:1054200000127A000024F400002800F05383F0B545
:1054300083B00446964B9D6805F00C05DE6806F0C7
:105440000306036813F0100F5AD0E5B10C2D18D0E5
:10545000E369002B00F0BB808D4A136843F0010321
:105460001360FDF7BFFB0746894B1B6813F0020F63
:1054700040F09A80FDF7B6FBC01B0228F4D9032048
:1054800035E3012EE4D1824B1B6813F0020F03D0E9
:10549000E369002B00F02083606A7D4B1B6813F0EA
:1054A000080F5BD07A4B1B6803F0F00398425CD87E
:1054B000774B1A6842F008021A601A6822F0F0026C
:1054C000616A0A431A605A6822F47F42216A42EAFA
:1054D00001225A60002D60D0FFF752FF6C4B9B6891
:1054E000C3F303136B4AD35C03F01F03D8406A4B2A
:1054F00018606A4B1868FDF72BFB002840F0F78214
:10550000236813F0010F00F08180082D75D00C2D59
:1055100071D06368B3F5803F00F09880B3F5A02F99
:1055200000F09A805A4B1A6822F480321A601A6886
:1055300022F480221A606368002B00F09A80FDF745
:1055400051FB0746524B1B6813F4003F5ED1FDF739
:1055500049FBC01B6428F5D90320C8E24C4BD3F8A3
:1055600094301B0903F0F003A0E7FFF7C1FE002809
:1055700040F0B482464B1A6842F008021A601A687A
:1055800022F0F002616A0A431A605A6822F47F42EC
:10559000216A42EA01225A609EE7606AFFF7A8FE8C
:1055A000002899D00120A2E2394B1A6842F0080283
:1055B0001A601A6822F0F002616A0A431A605A6897
:1055C00022F47F42216A42EA01225A6098E7304A77
:1055D000136823F001031360FDF704FB07462C4B0F
:1055E0001B6813F0020F8BD0FDF7FCFAC01B0228DA
:1055F000F5D903207BE2032E8BD1254B1B6813F4D6
:10560000003F03D06368002B00F06A82236813F028
:10561000020F58D0042D45D00C2D41D0E368002B4B
:1056200000F091801A4A136843F480731360FDF709
:10563000D9FA0646164B1B6813F4806F7AD1FDF732
:10564000D1FA801B0228F5D9032050E2104A1368D2
:1056500043F4803313606EE703F18043A3F53C33DA
:105660001A6842F480221A601A6842F480321A6082
:1056700061E7FDF7B7FA0746054B1B6813F4003FD7
:10568000C4D0FDF7AFFAC01B6428F5D903202EE281
:105690000010024004CE0008C4000020BC0000201E
:1056A000022EBBD1AF4B1B6813F4806F03D0E368AD
:1056B000002B00F01782AB4A536823F0FE432169A8
:1056C00043EA01635360236813F0080F7DD06369D8
:1056D000002B63D0A34BD3F89430A16903F01002E0
:1056E000914210D003F00302022A00F0FD8113F072
:1056F000010F3CD19B4AD2F8943023F01003A169EA
:105700000B43C2F89430974AD2F8943043F0010327
:10571000C2F89430FDF766FA0646924BD3F89430FF
:1057200013F0020F51D1FDF75DFA801B1128F4D957
:105730000320DCE18B4A536823F0FE43216943EAEE
:1057400001635360BFE7874A136823F480731360D3
:10575000FDF748FA0646834B1B6813F4806FB2D0FE
:10576000FDF740FA801B0228F5D90320BFE17D4AEE
:10577000D2F8943023F00103C2F89430FDF732FAE6
:105780000646784BD3F8943013F0020FB2D0FDF7F1
:1057900029FA801B1128F4D90320A8E1714AD2F814
:1057A000943023F00103C2F89430FDF71BFA06464B
:1057B0006C4BD3F8943013F0020F06D0FDF712FAB9
:1057C000801B1128F4D9032091E1236813F0040F02
:1057D00000F08D80634B9B6D13F0805F2ED1614B89
:1057E0009A6D42F080529A659B6D03F0805301934D
:1057F000019B01265C4B1B6813F4807F20D0A368BB
:1058000013F0010F38D05749D1F8902022F08002D0
:1058100003F080031343C1F89030A36813F0040F22
:1058200022D0D1F8902042F00402C1F89020D1F8A3
:10583000902042F00102C1F890202AE00026D9E72A
:10584000494A136843F480731360FDF7CBF90746A8
:10585000454B1B6813F4807FD1D1FDF7C3F9C01B02
:105860000228F5D9032042E13E4AD2F8903043F0B5
:105870000103C2F890300CE03A4BD3F8902022F0AC
:105880000102C3F89020D3F8902022F00402C3F85C
:105890009020A3688BB1FDF7A5F90746314BD3F8EB
:1058A000903013F0020F21D1FDF79CF9C01B41F29B
:1058B00088339842F2D9032019E1FDF793F907469E
:1058C000284BD3F8903013F0020F08D0FDF78AF977
:1058D000C01B41F288339842F2D9032007E1214AE4
:1058E000D2F8903023F08003C2F89030E6B92368F4
:1058F00013F0200F3AD0A36AE3B11A4AD2F89830D5
:1059000043F00103C2F89830FDF76CF90646154BD9
:10591000D3F8983013F0020F28D1FDF763F9801BFC
:105920000228F4D90320E2E00E4A936D23F080535D
:105930009365DCE70B4AD2F8983023F00103C2F8F4
:105940009830FDF74FF90646064BD3F8983013F020
:10595000020F0BD0FDF746F9801B0228F4D9032073
:10596000C5E000BF0010024000700040E36A002B59
:1059700000F0BC80022B17D00C2D00F0BC805F4AD9
:10598000136823F080731360FDF72CF904465B4B1A
:105990001B6813F0007F00F09480FDF723F9001BD3
:1059A0000228F4D90320A2E0544BDB6803F0030182
:1059B000226B914216D00C2D00F09B804F4A136849
:1059C00023F080731360FDF70DF905464B4B1B6800
:1059D00013F0007F2AD0FDF705F9401B0228F5D906
:1059E000032084E003F07002616B0139B2EB011F08
:1059F000E1D103F4FE42A16BB2EB012FDBD103F442
:105A0000C001E26B5208013AB1EB425FD3D103F01F
:105A1000C063226C5208013AB3EB426FCBD1374BD3
:105A20001B6813F0007F32D0002060E0334AD36857
:105A300033491940236B606B013843EA0013A06BB4
:105A400043EA0023E06B4008013843EA4053206CEE
:105A50004008013843EA40631943D160136843F0BA
:105A600080731360D36843F08073D360FDF7BAF896
:105A70000446224B1B6813F0007F06D1FDF7B2F8F5
:105A8000001B0228F5D9032031E000202FE01B4B3A
:105A90001A6842F080721A60DA6842F08072DA6046
:105AA000FDF7A0F80446154B1B6813F0007F06D1E4
:105AB000FDF798F8031B022BF5D9032017E000200F
:105AC00015E00E4AD36823F0887323F00303D360F4
:105AD00000200CE001207047012008E0012006E0D2
